{
  "_format": "hh-sol-artifact-1",
  "contractName": "StickFigureDevelopersNFT",
  "sourceName": "contracts/StickFigureDevelopersNFT.sol",
  "abi": [
    {
      "anonymous": false,
      "inputs": [
        {
          "indexed": true,
          "internalType": "address",
          "name": "owner",
          "type": "address"
        },
        {
          "indexed": true,
          "internalType": "address",
          "name": "approved",
          "type": "address"
        },
        {
          "indexed": true,
          "internalType": "uint256",
          "name": "tokenId",
          "type": "uint256"
        }
      ],
      "name": "Approval",
      "type": "event"
    },
    {
      "anonymous": false,
      "inputs": [
        {
          "indexed": true,
          "internalType": "address",
          "name": "owner",
          "type": "address"
        },
        {
          "indexed": true,
          "internalType": "address",
          "name": "operator",
          "type": "address"
        },
        {
          "indexed": false,
          "internalType": "bool",
          "name": "approved",
          "type": "bool"
        }
      ],
      "name": "ApprovalForAll",
      "type": "event"
    },
    {
      "anonymous": false,
      "inputs": [
        {
          "indexed": false,
          "internalType": "address",
          "name": "sender",
          "type": "address"
        },
        {
          "indexed": false,
          "internalType": "uint256",
          "name": "tokenId",
          "type": "uint256"
        }
      ],
      "name": "NewDeveloper",
      "type": "event"
    },
    {
      "anonymous": false,
      "inputs": [
        {
          "indexed": true,
          "internalType": "address",
          "name": "from",
          "type": "address"
        },
        {
          "indexed": true,
          "internalType": "address",
          "name": "to",
          "type": "address"
        },
        {
          "indexed": true,
          "internalType": "uint256",
          "name": "tokenId",
          "type": "uint256"
        }
      ],
      "name": "Transfer",
      "type": "event"
    },
    {
      "inputs": [],
      "name": "MAX_SUPPLY",
      "outputs": [
        {
          "internalType": "uint256",
          "name": "",
          "type": "uint256"
        }
      ],
      "stateMutability": "view",
      "type": "function"
    },
    {
      "inputs": [
        {
          "internalType": "address",
          "name": "to",
          "type": "address"
        },
        {
          "internalType": "uint256",
          "name": "tokenId",
          "type": "uint256"
        }
      ],
      "name": "approve",
      "outputs": [],
      "stateMutability": "nonpayable",
      "type": "function"
    },
    {
      "inputs": [
        {
          "internalType": "address",
          "name": "owner",
          "type": "address"
        }
      ],
      "name": "balanceOf",
      "outputs": [
        {
          "internalType": "uint256",
          "name": "",
          "type": "uint256"
        }
      ],
      "stateMutability": "view",
      "type": "function"
    },
    {
      "inputs": [],
      "name": "createDeveloper",
      "outputs": [],
      "stateMutability": "nonpayable",
      "type": "function"
    },
    {
      "inputs": [
        {
          "internalType": "uint256",
          "name": "",
          "type": "uint256"
        }
      ],
      "name": "developers",
      "outputs": [
        {
          "internalType": "enum StickFigureDeveloper.Iris",
          "name": "eyeColor",
          "type": "uint8"
        },
        {
          "internalType": "enum StickFigureDeveloper.Pupils",
          "name": "pupilSize",
          "type": "uint8"
        },
        {
          "internalType": "enum StickFigureDeveloper.Mouths",
          "name": "expression",
          "type": "uint8"
        },
        {
          "internalType": "enum StickFigureDeveloper.Clothes",
          "name": "clothesType",
          "type": "uint8"
        },
        {
          "components": [
            {
              "internalType": "string",
              "name": "rgbColor",
              "type": "string"
            },
            {
              "internalType": "bool",
              "name": "isDark",
              "type": "bool"
            }
          ],
          "internalType": "struct HexColorHelper.HexColor",
          "name": "shirtColor",
          "type": "tuple"
        },
        {
          "components": [
            {
              "internalType": "string",
              "name": "rgbColor",
              "type": "string"
            },
            {
              "internalType": "bool",
              "name": "isDark",
              "type": "bool"
            }
          ],
          "internalType": "struct HexColorHelper.HexColor",
          "name": "bottomColor",
          "type": "tuple"
        },
        {
          "internalType": "bool",
          "name": "is10x",
          "type": "bool"
        },
        {
          "internalType": "string",
          "name": "language",
          "type": "string"
        }
      ],
      "stateMutability": "view",
      "type": "function"
    },
    {
      "inputs": [
        {
          "internalType": "uint256",
          "name": "tokenId",
          "type": "uint256"
        }
      ],
      "name": "getApproved",
      "outputs": [
        {
          "internalType": "address",
          "name": "",
          "type": "address"
        }
      ],
      "stateMutability": "view",
      "type": "function"
    },
    {
      "inputs": [],
      "name": "getDeveloperCount",
      "outputs": [
        {
          "internalType": "uint256",
          "name": "",
          "type": "uint256"
        }
      ],
      "stateMutability": "view",
      "type": "function"
    },
    {
      "inputs": [],
      "name": "getMaxSupply",
      "outputs": [
        {
          "internalType": "uint256",
          "name": "",
          "type": "uint256"
        }
      ],
      "stateMutability": "pure",
      "type": "function"
    },
    {
      "inputs": [
        {
          "internalType": "string",
          "name": "seed",
          "type": "string"
        }
      ],
      "name": "getRandomInt",
      "outputs": [
        {
          "internalType": "uint256",
          "name": "",
          "type": "uint256"
        }
      ],
      "stateMutability": "view",
      "type": "function"
    },
    {
      "inputs": [
        {
          "internalType": "address",
          "name": "owner",
          "type": "address"
        },
        {
          "internalType": "address",
          "name": "operator",
          "type": "address"
        }
      ],
      "name": "isApprovedForAll",
      "outputs": [
        {
          "internalType": "bool",
          "name": "",
          "type": "bool"
        }
      ],
      "stateMutability": "view",
      "type": "function"
    },
    {
      "inputs": [
        {
          "internalType": "uint256",
          "name": "",
          "type": "uint256"
        }
      ],
      "name": "languages",
      "outputs": [
        {
          "internalType": "string",
          "name": "",
          "type": "string"
        }
      ],
      "stateMutability": "view",
      "type": "function"
    },
    {
      "inputs": [],
      "name": "name",
      "outputs": [
        {
          "internalType": "string",
          "name": "",
          "type": "string"
        }
      ],
      "stateMutability": "view",
      "type": "function"
    },
    {
      "inputs": [
        {
          "internalType": "uint256",
          "name": "tokenId",
          "type": "uint256"
        }
      ],
      "name": "ownerOf",
      "outputs": [
        {
          "internalType": "address",
          "name": "",
          "type": "address"
        }
      ],
      "stateMutability": "view",
      "type": "function"
    },
    {
      "inputs": [
        {
          "internalType": "address",
          "name": "from",
          "type": "address"
        },
        {
          "internalType": "address",
          "name": "to",
          "type": "address"
        },
        {
          "internalType": "uint256",
          "name": "tokenId",
          "type": "uint256"
        }
      ],
      "name": "safeTransferFrom",
      "outputs": [],
      "stateMutability": "nonpayable",
      "type": "function"
    },
    {
      "inputs": [
        {
          "internalType": "address",
          "name": "from",
          "type": "address"
        },
        {
          "internalType": "address",
          "name": "to",
          "type": "address"
        },
        {
          "internalType": "uint256",
          "name": "tokenId",
          "type": "uint256"
        },
        {
          "internalType": "bytes",
          "name": "_data",
          "type": "bytes"
        }
      ],
      "name": "safeTransferFrom",
      "outputs": [],
      "stateMutability": "nonpayable",
      "type": "function"
    },
    {
      "inputs": [
        {
          "internalType": "address",
          "name": "operator",
          "type": "address"
        },
        {
          "internalType": "bool",
          "name": "approved",
          "type": "bool"
        }
      ],
      "name": "setApprovalForAll",
      "outputs": [],
      "stateMutability": "nonpayable",
      "type": "function"
    },
    {
      "inputs": [
        {
          "internalType": "bytes4",
          "name": "interfaceId",
          "type": "bytes4"
        }
      ],
      "name": "supportsInterface",
      "outputs": [
        {
          "internalType": "bool",
          "name": "",
          "type": "bool"
        }
      ],
      "stateMutability": "view",
      "type": "function"
    },
    {
      "inputs": [],
      "name": "symbol",
      "outputs": [
        {
          "internalType": "string",
          "name": "",
          "type": "string"
        }
      ],
      "stateMutability": "view",
      "type": "function"
    },
    {
      "inputs": [
        {
          "internalType": "uint256",
          "name": "tokenId",
          "type": "uint256"
        }
      ],
      "name": "tokenURI",
      "outputs": [
        {
          "internalType": "string",
          "name": "",
          "type": "string"
        }
      ],
      "stateMutability": "view",
      "type": "function"
    },
    {
      "inputs": [
        {
          "internalType": "address",
          "name": "from",
          "type": "address"
        },
        {
          "internalType": "address",
          "name": "to",
          "type": "address"
        },
        {
          "internalType": "uint256",
          "name": "tokenId",
          "type": "uint256"
        }
      ],
      "name": "transferFrom",
      "outputs": [],
      "stateMutability": "nonpayable",
      "type": "function"
    }
  ],
  "bytecode": "0x60806040526040518060c001604052806040518060a001604052806076815260200162006b2a6076913981526020016040518060a001604052806076815260200162006d026076913981526020016040518060a001604052806076815260200162006ab46076913981526020016040518060a001604052806076815260200162006c8c6076913981526020016040518060a001604052806076815260200162006c166076913981526020016040518060a001604052806076815260200162006ba0607691398152506007906006620000d99291906200085a565b50604051806103a001604052806040518060400160405280600381526020017f416461000000000000000000000000000000000000000000000000000000000081525081526020016040518060400160405280600581526020017f424153494300000000000000000000000000000000000000000000000000000081525081526020016040518060400160405280600181526020017f430000000000000000000000000000000000000000000000000000000000000081525081526020016040518060400160405280600281526020017f432300000000000000000000000000000000000000000000000000000000000081525081526020016040518060400160405280600381526020017f432b2b000000000000000000000000000000000000000000000000000000000081525081526020016040518060400160405280600781526020017f436c6f6a7572650000000000000000000000000000000000000000000000000081525081526020016040518060400160405280600581526020017f436f626f6c00000000000000000000000000000000000000000000000000000081525081526020016040518060400160405280600481526020017f446172740000000000000000000000000000000000000000000000000000000081525081526020016040518060400160405280600681526020017f45726c616e67000000000000000000000000000000000000000000000000000081525081526020016040518060400160405280600281526020017f476f00000000000000000000000000000000000000000000000000000000000081525081526020016040518060400160405280600781526020017f4861736b656c6c0000000000000000000000000000000000000000000000000081525081526020016040518060400160405280600481526020017f4a6176610000000000000000000000000000000000000000000000000000000081525081526020016040518060400160405280600a81526020017f4a6176615363726970740000000000000000000000000000000000000000000081525081526020016040518060400160405280600581526020017f4a756c696100000000000000000000000000000000000000000000000000000081525081526020016040518060400160405280600681526020017f4b6f746c696e000000000000000000000000000000000000000000000000000081525081526020016040518060400160405280600381526020017f4c7561000000000000000000000000000000000000000000000000000000000081525081526020016040518060400160405280600581526020017f4f43616d6c00000000000000000000000000000000000000000000000000000081525081526020016040518060400160405280600b81526020017f4f626a6563746976652d4300000000000000000000000000000000000000000081525081526020016040518060400160405280600381526020017f504850000000000000000000000000000000000000000000000000000000000081525081526020016040518060400160405280600681526020017f50617363616c000000000000000000000000000000000000000000000000000081525081526020016040518060400160405280600481526020017f5065726c0000000000000000000000000000000000000000000000000000000081525081526020016040518060400160405280600681526020017f507974686f6e000000000000000000000000000000000000000000000000000081525081526020016040518060400160405280600181526020017f520000000000000000000000000000000000000000000000000000000000000081525081526020016040518060400160405280600481526020017f527562790000000000000000000000000000000000000000000000000000000081525081526020016040518060400160405280600481526020017f527573740000000000000000000000000000000000000000000000000000000081525081526020016040518060400160405280600581526020017f5363616c6100000000000000000000000000000000000000000000000000000081525081526020016040518060400160405280600881526020017f536f6c696469747900000000000000000000000000000000000000000000000081525081526020016040518060400160405280600581526020017f537769667400000000000000000000000000000000000000000000000000000081525081526020016040518060400160405280600a81526020017f5479706553637269707400000000000000000000000000000000000000000000815250815250600890601d620007a5929190620008c1565b50348015620007b357600080fd5b506040518060400160405280601c81526020017f537469636b2046696775726520446576656c6f706572732074657374000000008152506040518060400160405280600881526020017f535449434b46494700000000000000000000000000000000000000000000000081525081600090805190602001906200083892919062000928565b5080600190805190602001906200085192919062000928565b50505062000aab565b828054828255906000526020600020908101928215620008ae579160200282015b82811115620008ad5782518290805190602001906200089c92919062000928565b50916020019190600101906200087b565b5b509050620008bd9190620009b9565b5090565b82805482825590600052602060002090810192821562000915579160200282015b82811115620009145782518290805190602001906200090392919062000928565b5091602001919060010190620008e2565b5b509050620009249190620009b9565b5090565b828054620009369062000a46565b90600052602060002090601f0160209004810192826200095a5760008555620009a6565b82601f106200097557805160ff1916838001178555620009a6565b82800160010185558215620009a6579182015b82811115620009a557825182559160200191906001019062000988565b5b509050620009b59190620009e1565b5090565b5b80821115620009dd5760008181620009d3919062000a00565b50600101620009ba565b5090565b5b80821115620009fc576000816000905550600101620009e2565b5090565b50805462000a0e9062000a46565b6000825580601f1062000a22575062000a43565b601f01602090049060005260206000209081019062000a429190620009e1565b5b50565b6000600282049050600182168062000a5f57607f821691505b6020821081141562000a765762000a7562000a7c565b5b50919050565b7f4e487b7100000000000000000000000000000000000000000000000000000000600052602260045260246000fd5b615ff98062000abb6000396000f3fe608060405234801561001057600080fd5b506004361061012c5760003560e01c80636352211e116100ad578063a22cb46511610071578063a22cb46514610345578063b88d4fde14610361578063c87b56dd1461037d578063e985e9c5146103ad578063eff25cd6146103dd5761012c565b80636352211e1461028d578063644d3984146102bd5780636d3883f7146102c757806370a08231146102f757806395d89b41146103275761012c565b806323b872dd116100f457806323b872dd146101e957806332cb6b0c1461020557806342842e0e146102235780634c0f38c21461023f5780635ffb03c91461025d5761012c565b806301ffc9a71461013157806306fdde0314610161578063081812fc1461017f578063095ea7b3146101af57806312c443f3146101cb575b600080fd5b61014b60048036038101906101469190613a8b565b610414565b604051610158919061438c565b60405180910390f35b6101696104f6565b604051610176919061443a565b60405180910390f35b61019960048036038101906101949190613b1e565b610588565b6040516101a691906142fc565b60405180910390f35b6101c960048036038101906101c49190613a4f565b61060d565b005b6101d3610725565b6040516101e0919061467c565b60405180910390f35b61020360048036038101906101fe9190613949565b610736565b005b61020d610796565b60405161021a919061467c565b60405180910390f35b61023d60048036038101906102389190613949565b61079c565b005b6102476107bc565b604051610254919061467c565b60405180910390f35b61027760048036038101906102729190613b1e565b6107c6565b604051610284919061443a565b60405180910390f35b6102a760048036038101906102a29190613b1e565b610872565b6040516102b491906142fc565b60405180910390f35b6102c5610924565b005b6102e160048036038101906102dc9190613add565b610a38565b6040516102ee919061467c565b60405180910390f35b610311600480360381019061030c91906138e4565b610a6d565b60405161031e919061467c565b60405180910390f35b61032f610b25565b60405161033c919061443a565b60405180910390f35b61035f600480360381019061035a9190613a13565b610bb7565b005b61037b60048036038101906103769190613998565b610d38565b005b61039760048036038101906103929190613b1e565b610d9a565b6040516103a4919061443a565b60405180910390f35b6103c760048036038101906103c2919061390d565b610eec565b6040516103d4919061438c565b60405180910390f35b6103f760048036038101906103f29190613b1e565b610f80565b60405161040b9897969594939291906143a7565b60405180910390f35b60007f80ac58cd000000000000000000000000000000000000000000000000000000007bffffffffffffffffffffffffffffffffffffffffffffffffffffffff1916827bffffffffffffffffffffffffffffffffffffffffffffffffffffffff191614806104df57507f5b5e139f000000000000000000000000000000000000000000000000000000007bffffffffffffffffffffffffffffffffffffffffffffffffffffffff1916827bffffffffffffffffffffffffffffffffffffffffffffffffffffffff1916145b806104ef57506104ee8261120f565b5b9050919050565b60606000805461050590614a68565b80601f016020809104026020016040519081016040528092919081815260200182805461053190614a68565b801561057e5780601f106105535761010080835404028352916020019161057e565b820191906000526020600020905b81548152906001019060200180831161056157829003601f168201915b5050505050905090565b600061059382611279565b6105d2576040517f08c379a00000000000000000000000000000000000000000000000000000000081526004016105c9906145bc565b60405180910390fd5b6004600083815260200190815260200160002060009054906101000a900473ffffffffffffffffffffffffffffffffffffffff169050919050565b600061061882610872565b90508073ffffffffffffffffffffffffffffffffffffffff168373ffffffffffffffffffffffffffffffffffffffff161415610689576040517f08c379a00000000000000000000000000000000000000000000000000000000081526004016106809061461c565b60405180910390fd5b8073ffffffffffffffffffffffffffffffffffffffff166106a86112e5565b73ffffffffffffffffffffffffffffffffffffffff1614806106d757506106d6816106d16112e5565b610eec565b5b610716576040517f08c379a000000000000000000000000000000000000000000000000000000000815260040161070d906144fc565b60405180910390fd5b61072083836112ed565b505050565b6000610731600a6113a6565b905090565b6107476107416112e5565b826113b4565b610786576040517f08c379a000000000000000000000000000000000000000000000000000000000815260040161077d9061463c565b60405180910390fd5b610791838383611492565b505050565b6103e881565b6107b783838360405180602001604052806000815250610d38565b505050565b60006103e8905090565b600881815481106107d657600080fd5b9060005260206000200160009150905080546107f190614a68565b80601f016020809104026020016040519081016040528092919081815260200182805461081d90614a68565b801561086a5780601f1061083f5761010080835404028352916020019161086a565b820191906000526020600020905b81548152906001019060200180831161084d57829003601f168201915b505050505081565b6000806002600084815260200190815260200160002060009054906101000a900473ffffffffffffffffffffffffffffffffffffffff169050600073ffffffffffffffffffffffffffffffffffffffff168173ffffffffffffffffffffffffffffffffffffffff16141561091b576040517f08c379a00000000000000000000000000000000000000000000000000000000081526004016109129061453c565b60405180910390fd5b80915050919050565b6103e8610931600a6113a6565b10610971576040517f08c379a00000000000000000000000000000000000000000000000000000000081526004016109689061465c565b60405180910390fd5b600061097d600a6113a6565b9050610988816116ee565b6109923382611e55565b6109f2816109ce6109aa6109a585611e73565b611f06565b6040516020016109ba919061426e565b604051602081830303815290604052611f06565b6040516020016109de919061424c565b6040516020818303038152906040526120c4565b6109fc600a612138565b7f71b909df09f7ac491501b9c09903085e5b1f46547051602530452bb557cb1e353382604051610a2d929190614363565b60405180910390a150565b60004282604051602001610a4d92919061429b565b6040516020818303038152906040528051906020012060001c9050919050565b60008073ffffffffffffffffffffffffffffffffffffffff168273ffffffffffffffffffffffffffffffffffffffff161415610ade576040517f08c379a0000000000000000000000000000000000000000000000000000000008152600401610ad59061451c565b60405180910390fd5b600360008373ffffffffffffffffffffffffffffffffffffffff1673ffffffffffffffffffffffffffffffffffffffff168152602001908152602001600020549050919050565b606060018054610b3490614a68565b80601f0160208091040260200160405190810160405280929190818152602001828054610b6090614a68565b8015610bad5780601f10610b8257610100808354040283529160200191610bad565b820191906000526020600020905b815481529060010190602001808311610b9057829003601f168201915b5050505050905090565b610bbf6112e5565b73ffffffffffffffffffffffffffffffffffffffff168273ffffffffffffffffffffffffffffffffffffffff161415610c2d576040517f08c379a0000000000000000000000000000000000000000000000000000000008152600401610c24906144bc565b60405180910390fd5b8060056000610c3a6112e5565b73ffffffffffffffffffffffffffffffffffffffff1673ffffffffffffffffffffffffffffffffffffffff16815260200190815260200160002060008473ffffffffffffffffffffffffffffffffffffffff1673ffffffffffffffffffffffffffffffffffffffff16815260200190815260200160002060006101000a81548160ff0219169083151502179055508173ffffffffffffffffffffffffffffffffffffffff16610ce76112e5565b73ffffffffffffffffffffffffffffffffffffffff167f17307eab39ab6107e8899845ad3d59bd9653f200f220920489ca2b5937696c3183604051610d2c919061438c565b60405180910390a35050565b610d49610d436112e5565b836113b4565b610d88576040517f08c379a0000000000000000000000000000000000000000000000000000000008152600401610d7f9061463c565b60405180910390fd5b610d948484848461214e565b50505050565b6060610da582611279565b610de4576040517f08c379a0000000000000000000000000000000000000000000000000000000008152600401610ddb9061459c565b60405180910390fd5b6000600660008481526020019081526020016000208054610e0490614a68565b80601f0160208091040260200160405190810160405280929190818152602001828054610e3090614a68565b8015610e7d5780601f10610e5257610100808354040283529160200191610e7d565b820191906000526020600020905b815481529060010190602001808311610e6057829003601f168201915b505050505090506000610e8e6121aa565b9050600081511415610ea4578192505050610ee7565b600082511115610ed9578082604051602001610ec19291906140c4565b60405160208183030381529060405292505050610ee7565b610ee2846121c1565b925050505b919050565b6000600560008473ffffffffffffffffffffffffffffffffffffffff1673ffffffffffffffffffffffffffffffffffffffff16815260200190815260200160002060008373ffffffffffffffffffffffffffffffffffffffff1673ffffffffffffffffffffffffffffffffffffffff16815260200190815260200160002060009054906101000a900460ff16905092915050565b60098181548110610f9057600080fd5b90600052602060002090600702016000915090508060000160009054906101000a900460ff16908060000160019054906101000a900460ff16908060000160029054906101000a900460ff16908060000160039054906101000a900460ff16908060010160405180604001604052908160008201805461100f90614a68565b80601f016020809104026020016040519081016040528092919081815260200182805461103b90614a68565b80156110885780601f1061105d57610100808354040283529160200191611088565b820191906000526020600020905b81548152906001019060200180831161106b57829003601f168201915b505050505081526020016001820160009054906101000a900460ff16151515158152505090806003016040518060400160405290816000820180546110cc90614a68565b80601f01602080910402602001604051908101604052809291908181526020018280546110f890614a68565b80156111455780601f1061111a57610100808354040283529160200191611145565b820191906000526020600020905b81548152906001019060200180831161112857829003601f168201915b505050505081526020016001820160009054906101000a900460ff161515151581525050908060050160009054906101000a900460ff169080600601805461118c90614a68565b80601f01602080910402602001604051908101604052809291908181526020018280546111b890614a68565b80156112055780601f106111da57610100808354040283529160200191611205565b820191906000526020600020905b8154815290600101906020018083116111e857829003601f168201915b5050505050905088565b60007f01ffc9a7000000000000000000000000000000000000000000000000000000007bffffffffffffffffffffffffffffffffffffffffffffffffffffffff1916827bffffffffffffffffffffffffffffffffffffffffffffffffffffffff1916149050919050565b60008073ffffffffffffffffffffffffffffffffffffffff166002600084815260200190815260200160002060009054906101000a900473ffffffffffffffffffffffffffffffffffffffff1673ffffffffffffffffffffffffffffffffffffffff1614159050919050565b600033905090565b816004600083815260200190815260200160002060006101000a81548173ffffffffffffffffffffffffffffffffffffffff021916908373ffffffffffffffffffffffffffffffffffffffff160217905550808273ffffffffffffffffffffffffffffffffffffffff1661136083610872565b73ffffffffffffffffffffffffffffffffffffffff167f8c5be1e5ebec7d5bd14f71427d1e84f3dd0314c0f7b2291e5b200ac8c7c3b92560405160405180910390a45050565b600081600001549050919050565b60006113bf82611279565b6113fe576040517f08c379a00000000000000000000000000000000000000000000000000000000081526004016113f5906144dc565b60405180910390fd5b600061140983610872565b90508073ffffffffffffffffffffffffffffffffffffffff168473ffffffffffffffffffffffffffffffffffffffff16148061147857508373ffffffffffffffffffffffffffffffffffffffff1661146084610588565b73ffffffffffffffffffffffffffffffffffffffff16145b8061148957506114888185610eec565b5b91505092915050565b8273ffffffffffffffffffffffffffffffffffffffff166114b282610872565b73ffffffffffffffffffffffffffffffffffffffff1614611508576040517f08c379a00000000000000000000000000000000000000000000000000000000081526004016114ff906145dc565b60405180910390fd5b600073ffffffffffffffffffffffffffffffffffffffff168273ffffffffffffffffffffffffffffffffffffffff161415611578576040517f08c379a000000000000000000000000000000000000000000000000000000000815260040161156f9061449c565b60405180910390fd5b611583838383612268565b61158e6000826112ed565b6001600360008573ffffffffffffffffffffffffffffffffffffffff1673ffffffffffffffffffffffffffffffffffffffff16815260200190815260200160002060008282546115de91906148dc565b925050819055506001600360008473ffffffffffffffffffffffffffffffffffffffff1673ffffffffffffffffffffffffffffffffffffffff168152602001908152602001600020600082825461163591906147ca565b92505081905550816002600083815260200190815260200160002060006101000a81548173ffffffffffffffffffffffffffffffffffffffff021916908373ffffffffffffffffffffffffffffffffffffffff160217905550808273ffffffffffffffffffffffffffffffffffffffff168473ffffffffffffffffffffffffffffffffffffffff167fddf252ad1be2c89b69c2b068fc378daa952ba7f163c4a11628f55a4df523b3ef60405160405180910390a4505050565b600960405180610100016040528061173e600060056040518060400160405280600481526020017f697269730000000000000000000000000000000000000000000000000000000081525061226d565b6005811115611776577f4e487b7100000000000000000000000000000000000000000000000000000000600052602160045260246000fd5b60058111156117ae577f4e487b7100000000000000000000000000000000000000000000000000000000600052602160045260246000fd5b815260200160096117f7600060096040518060400160405280600581526020017f707570696c00000000000000000000000000000000000000000000000000000081525061226d565b10611803576001611806565b60005b60ff166001811115611841577f4e487b7100000000000000000000000000000000000000000000000000000000600052602160045260246000fd5b6001811115611879577f4e487b7100000000000000000000000000000000000000000000000000000000600052602160045260246000fd5b81526020016118c0600060036040518060400160405280600681526020017f6d6f75746873000000000000000000000000000000000000000000000000000081525061226d565b60038111156118f8577f4e487b7100000000000000000000000000000000000000000000000000000000600052602160045260246000fd5b6003811115611930577f4e487b7100000000000000000000000000000000000000000000000000000000600052602160045260246000fd5b8152602001611977600060036040518060400160405280600781526020017f636c6f746865730000000000000000000000000000000000000000000000000081525061226d565b60038111156119af577f4e487b7100000000000000000000000000000000000000000000000000000000600052602160045260246000fd5b60038111156119e7577f4e487b7100000000000000000000000000000000000000000000000000000000600052602160045260246000fd5b8152602001611a2b846040518060400160405280600581526020017f73686972740000000000000000000000000000000000000000000000000000008152506122d1565b8152602001611a6f846040518060400160405280600781526020017f636c6f74686573000000000000000000000000000000000000000000000000008152506122d1565b8152602001604f611ab8600060636040518060400160405280600381526020017f313078000000000000000000000000000000000000000000000000000000000081525061226d565b11151581526020016008611b1460006001600880549050611ad991906148dc565b6040518060400160405280600481526020017f6c616e670000000000000000000000000000000000000000000000000000000081525061226d565b81548110611b4b577f4e487b7100000000000000000000000000000000000000000000000000000000600052603260045260246000fd5b906000526020600020018054611b6090614a68565b80601f0160208091040260200160405190810160405280929190818152602001828054611b8c90614a68565b8015611bd95780601f10611bae57610100808354040283529160200191611bd9565b820191906000526020600020905b815481529060010190602001808311611bbc57829003601f168201915b5050505050815250908060018154018082558091505060019003906000526020600020906007020160009091909190915060008201518160000160006101000a81548160ff02191690836005811115611c5b577f4e487b7100000000000000000000000000000000000000000000000000000000600052602160045260246000fd5b021790555060208201518160000160016101000a81548160ff02191690836001811115611cb1577f4e487b7100000000000000000000000000000000000000000000000000000000600052602160045260246000fd5b021790555060408201518160000160026101000a81548160ff02191690836003811115611d07577f4e487b7100000000000000000000000000000000000000000000000000000000600052602160045260246000fd5b021790555060608201518160000160036101000a81548160ff02191690836003811115611d5d577f4e487b7100000000000000000000000000000000000000000000000000000000600052602160045260246000fd5b02179055506080820151816001016000820151816000019080519060200190611d879291906136ec565b5060208201518160010160006101000a81548160ff021916908315150217905550505060a0820151816003016000820151816000019080519060200190611dcf9291906136ec565b5060208201518160010160006101000a81548160ff021916908315150217905550505060c08201518160050160006101000a81548160ff02191690831515021790555060e0820151816006019080519060200190611e2e9291906136ec565b505050611e526040518060600160405280602181526020016156fd602191396125f6565b50565b611e6f82826040518060200160405280600081525061268f565b5050565b60606040518061030001604052806102d8815260200161571e6102d89139611e9a836126ea565b611ea38461282a565b6040518061014001604052806101058152602001615ae46101059139611ec886612af9565b611ed187612cfd565b611eda88612f57565b604051602001611ef09796959493929190614119565b6040516020818303038152906040529050919050565b60606000825190506000811415611f2f57604051806020016040528060008152509150506120bf565b60006003600283611f4091906147ca565b611f4a9190614851565b6004611f569190614882565b90506000602082611f6791906147ca565b67ffffffffffffffff811115611fa6577f4e487b7100000000000000000000000000000000000000000000000000000000600052604160045260246000fd5b6040519080825280601f01601f191660200182016040528015611fd85781602001600182028036833780820191505090505b5090506000604051806060016040528060408152602001615aa4604091399050600181016020830160005b8681101561207c5760038101905062ffffff818a015116603f8160121c168401518060081b905060ff603f83600c1c1686015116810190508060081b905060ff603f8360061c1686015116810190508060081b905060ff603f831686015116810190508060e01b90508084526004840193505050612003565b50600386066001811461209657600281146120a6576120b1565b613d3d60f01b60028303526120b1565b603d60f81b60018303525b508484525050819450505050505b919050565b6120cd82611279565b61210c576040517f08c379a00000000000000000000000000000000000000000000000000000000081526004016121039061455c565b60405180910390fd5b806006600084815260200190815260200160002090805190602001906121339291906136ec565b505050565b6001816000016000828254019250508190555050565b612159848484611492565b6121658484848461319e565b6121a4576040517f08c379a000000000000000000000000000000000000000000000000000000000815260040161219b9061445c565b60405180910390fd5b50505050565b606060405180602001604052806000815250905090565b60606121cc82611279565b61220b576040517f08c379a0000000000000000000000000000000000000000000000000000000008152600401612202906145fc565b60405180910390fd5b60006122156121aa565b905060008151116122355760405180602001604052806000815250612260565b8061223f84613335565b6040516020016122509291906140c4565b6040516020818303038152906040525b915050919050565b505050565b6000838460018561227e91906147ca565b61228891906148dc565b428460405160200161229b92919061429b565b6040516020818303038152906040528051906020012060001c6122be9190614b1e565b6122c891906147ca565b90509392505050565b6122d9613772565b60004284846040516020016122f0939291906142c3565b6040516020818303038152906040528051906020012090506000600767ffffffffffffffff81111561234b577f4e487b7100000000000000000000000000000000000000000000000000000000600052604160045260246000fd5b6040519080825280601f01601f19166020018201604052801561237d5781602001600182028036833780820191505090505b50905060008080600090507f2300000000000000000000000000000000000000000000000000000000000000846000815181106123e3577f4e487b7100000000000000000000000000000000000000000000000000000000600052603260045260246000fd5b60200101907effffffffffffffffffffffffffffffffffffffffffffffffffffffffffffff1916908160001a90535060005b60068110156125b357600f868260208110612459577f4e487b7100000000000000000000000000000000000000000000000000000000600052603260045260246000fd5b1a60f81b60f81c16925060006002826124729190614b1e565b141561248a578260ff16826124879190614792565b91505b7f3031323334353637383961626364656600000000000000000000000000000000600f8783602081106124e6577f4e487b7100000000000000000000000000000000000000000000000000000000600052603260045260246000fd5b1a60f81b60f81c1660ff1660108110612528577f4e487b7100000000000000000000000000000000000000000000000000000000600052603260045260246000fd5b1a60f81b8560018361253a91906147ca565b81518110612571577f4e487b7100000000000000000000000000000000000000000000000000000000600052603260045260246000fd5b60200101907effffffffffffffffffffffffffffffffffffffffffffffffffffffffffffff1916908160001a90535080806125ab90614acb565b915050612415565b5060086003826125c39190614820565b61ffff1610156125d257600192505b60405180604001604052808581526020018415158152509550505050505092915050565b61268c8160405160240161260a919061443a565b6040516020818303038152906040527f41304fac000000000000000000000000000000000000000000000000000000007bffffffffffffffffffffffffffffffffffffffffffffffffffffffff19166020820180517bffffffffffffffffffffffffffffffffffffffffffffffffffffffff83818316178352505050506134e2565b50565b612699838361350b565b6126a6600084848461319e565b6126e5576040517f08c379a00000000000000000000000000000000000000000000000000000000081526004016126dc9061445c565b60405180910390fd5b505050565b6060600061272d836040518060400160405280600581526020017f73686972740000000000000000000000000000000000000000000000000000008152506122d1565b905060006040518060400160405280600481526020017f233030300000000000000000000000000000000000000000000000000000000081525090508160200151156127ac576040518060400160405280600481526020017f236666660000000000000000000000000000000000000000000000000000000081525090505b6040518060c00160405280608d81526020016153d2608d913982600001516040518060400160405280600481526020017f27202f3e00000000000000000000000000000000000000000000000000000000815250604051602001612812939291906140e8565b60405160208183030381529060405292505050919050565b6060600060098381548110612868577f4e487b7100000000000000000000000000000000000000000000000000000000600052603260045260246000fd5b906000526020600020906007020160000160039054906101000a900460ff1690506060600060038111156128c5577f4e487b7100000000000000000000000000000000000000000000000000000000600052602160045260246000fd5b8260038111156128fe577f4e487b7100000000000000000000000000000000000000000000000000000000600052602160045260246000fd5b148061297a57506001600381111561293f577f4e487b7100000000000000000000000000000000000000000000000000000000600052602160045260246000fd5b826003811115612978577f4e487b7100000000000000000000000000000000000000000000000000000000600052602160045260246000fd5b145b1561299f576040518060a0016040528060768152602001615e35607691399050612a55565b600260038111156129d9577f4e487b7100000000000000000000000000000000000000000000000000000000600052602160045260246000fd5b826003811115612a12577f4e487b7100000000000000000000000000000000000000000000000000000000600052602160045260246000fd5b1415612a38576040518060a0016040528060778152602001615f12607791399050612a54565b6040518060a0016040528060778152602001615c4d6077913990505b5b80612a95856040518060400160405280600781526020017f636c6f74686573000000000000000000000000000000000000000000000000008152506122d1565b600001516040518060400160405280600481526020017f27202f3e00000000000000000000000000000000000000000000000000000000815250604051602001612ae1939291906141ec565b60405160208183030381529060405292505050919050565b6060600760098381548110612b37577f4e487b7100000000000000000000000000000000000000000000000000000000600052603260045260246000fd5b906000526020600020906007020160000160009054906101000a900460ff166005811115612b8e577f4e487b7100000000000000000000000000000000000000000000000000000000600052602160045260246000fd5b81548110612bc5577f4e487b7100000000000000000000000000000000000000000000000000000000600052603260045260246000fd5b90600052602060002001600180811115612c08577f4e487b7100000000000000000000000000000000000000000000000000000000600052602160045260246000fd5b60098481548110612c42577f4e487b7100000000000000000000000000000000000000000000000000000000600052603260045260246000fd5b906000526020600020906007020160000160019054906101000a900460ff166001811115612c99577f4e487b7100000000000000000000000000000000000000000000000000000000600052602160045260246000fd5b14612cbc576040518060a0016040528060648152602001615be960649139612cd6565b6040518060a0016040528060668152602001615697606691395b604051602001612ce7929190614228565b6040516020818303038152906040529050919050565b6060600060098381548110612d3b577f4e487b7100000000000000000000000000000000000000000000000000000000600052603260045260246000fd5b906000526020600020906007020160000160029054906101000a900460ff169050606060006003811115612d98577f4e487b7100000000000000000000000000000000000000000000000000000000600052602160045260246000fd5b826003811115612dd1577f4e487b7100000000000000000000000000000000000000000000000000000000600052602160045260246000fd5b1415612dfa57604051806102600160405280610238815260200161545f61023891399050612f4d565b60016003811115612e34577f4e487b7100000000000000000000000000000000000000000000000000000000600052602160045260246000fd5b826003811115612e6d577f4e487b7100000000000000000000000000000000000000000000000000000000600052602160045260246000fd5b1415612e9657604051806101a001604052806101718152602001615cc461017191399050612f4c565b60026003811115612ed0577f4e487b7100000000000000000000000000000000000000000000000000000000600052602160045260246000fd5b826003811115612f09577f4e487b7100000000000000000000000000000000000000000000000000000000600052602160045260246000fd5b1415612f2f576040518060600160405280603981526020016159f6603991399050612f4b565b6040518060600160405280603b8152602001615f89603b913990505b5b5b8092505050919050565b606060098281548110612f93577f4e487b7100000000000000000000000000000000000000000000000000000000600052603260045260246000fd5b906000526020600020906007020160010160010160009054906101000a900460ff16612ff4576040518060400160405280601081526020017f3c6720636c6173733d276461726b273e0000000000000000000000000000000081525061302b565b6040518060400160405280601181526020017f3c6720636c6173733d276c69676874273e0000000000000000000000000000008152505b60098381548110613065577f4e487b7100000000000000000000000000000000000000000000000000000000600052603260045260246000fd5b906000526020600020906007020160050160009054906101000a900460ff166130a6576040518060a0016040528060678152602001615eab606791396130c0565b6040518060a00160405280606a8152602001615368606a91395b6040518060a00160405280606181526020016153076061913960098581548110613113577f4e487b7100000000000000000000000000000000000000000000000000000000600052603260045260246000fd5b90600052602060002090600702016006016040518060400160405280600781526020017f3c2f746578743e000000000000000000000000000000000000000000000000008152506040518060a0016040528060758152602001615a2f6075913960405160200161318896959493929190614194565b6040516020818303038152906040529050919050565b60006131bf8473ffffffffffffffffffffffffffffffffffffffff166136d9565b15613328578373ffffffffffffffffffffffffffffffffffffffff1663150b7a026131e86112e5565b8786866040518563ffffffff1660e01b815260040161320a9493929190614317565b602060405180830381600087803b15801561322457600080fd5b505af192505050801561325557506040513d601f19601f820116820180604052508101906132529190613ab4565b60015b6132d8573d8060008114613285576040519150601f19603f3d011682016040523d82523d6000602084013e61328a565b606091505b506000815114156132d0576040517f08c379a00000000000000000000000000000000000000000000000000000000081526004016132c79061445c565b60405180910390fd5b805181602001fd5b63150b7a0260e01b7bffffffffffffffffffffffffffffffffffffffffffffffffffffffff1916817bffffffffffffffffffffffffffffffffffffffffffffffffffffffff19161491505061332d565b600190505b949350505050565b6060600082141561337d576040518060400160405280600181526020017f300000000000000000000000000000000000000000000000000000000000000081525090506134dd565b600082905060005b600082146133af57808061339890614acb565b915050600a826133a89190614851565b9150613385565b60008167ffffffffffffffff8111156133f1577f4e487b7100000000000000000000000000000000000000000000000000000000600052604160045260246000fd5b6040519080825280601f01601f1916602001820160405280156134235781602001600182028036833780820191505090505b5090505b600085146134d65760018261343c91906148dc565b9150600a8561344b9190614b1e565b603061345791906147ca565b60f81b818381518110613493577f4e487b7100000000000000000000000000000000000000000000000000000000600052603260045260246000fd5b60200101907effffffffffffffffffffffffffffffffffffffffffffffffffffffffffffff1916908160001a905350600a856134cf9190614851565b9450613427565b8093505050505b919050565b60008151905060006a636f6e736f6c652e6c6f679050602083016000808483855afa5050505050565b600073ffffffffffffffffffffffffffffffffffffffff168273ffffffffffffffffffffffffffffffffffffffff16141561357b576040517f08c379a00000000000000000000000000000000000000000000000000000000081526004016135729061457c565b60405180910390fd5b61358481611279565b156135c4576040517f08c379a00000000000000000000000000000000000000000000000000000000081526004016135bb9061447c565b60405180910390fd5b6135d060008383612268565b6001600360008473ffffffffffffffffffffffffffffffffffffffff1673ffffffffffffffffffffffffffffffffffffffff168152602001908152602001600020600082825461362091906147ca565b92505081905550816002600083815260200190815260200160002060006101000a81548173ffffffffffffffffffffffffffffffffffffffff021916908373ffffffffffffffffffffffffffffffffffffffff160217905550808273ffffffffffffffffffffffffffffffffffffffff16600073ffffffffffffffffffffffffffffffffffffffff167fddf252ad1be2c89b69c2b068fc378daa952ba7f163c4a11628f55a4df523b3ef60405160405180910390a45050565b600080823b905060008111915050919050565b8280546136f890614a68565b90600052602060002090601f01602090048101928261371a5760008555613761565b82601f1061373357805160ff1916838001178555613761565b82800160010185558215613761579182015b82811115613760578251825591602001919060010190613745565b5b50905061376e919061378e565b5090565b6040518060400160405280606081526020016000151581525090565b5b808211156137a757600081600090555060010161378f565b5090565b60006137be6137b9846146bc565b614697565b9050828152602081018484840111156137d657600080fd5b6137e1848285614a26565b509392505050565b60006137fc6137f7846146ed565b614697565b90508281526020810184848401111561381457600080fd5b61381f848285614a26565b509392505050565b600081359050613836816152aa565b92915050565b60008135905061384b816152c1565b92915050565b600081359050613860816152d8565b92915050565b600081519050613875816152d8565b92915050565b600082601f83011261388c57600080fd5b813561389c8482602086016137ab565b91505092915050565b600082601f8301126138b657600080fd5b81356138c68482602086016137e9565b91505092915050565b6000813590506138de816152ef565b92915050565b6000602082840312156138f657600080fd5b600061390484828501613827565b91505092915050565b6000806040838503121561392057600080fd5b600061392e85828601613827565b925050602061393f85828601613827565b9150509250929050565b60008060006060848603121561395e57600080fd5b600061396c86828701613827565b935050602061397d86828701613827565b925050604061398e868287016138cf565b9150509250925092565b600080600080608085870312156139ae57600080fd5b60006139bc87828801613827565b94505060206139cd87828801613827565b93505060406139de878288016138cf565b925050606085013567ffffffffffffffff8111156139fb57600080fd5b613a078782880161387b565b91505092959194509250565b60008060408385031215613a2657600080fd5b6000613a3485828601613827565b9250506020613a458582860161383c565b9150509250929050565b60008060408385031215613a6257600080fd5b6000613a7085828601613827565b9250506020613a81858286016138cf565b9150509250929050565b600060208284031215613a9d57600080fd5b6000613aab84828501613851565b91505092915050565b600060208284031215613ac657600080fd5b6000613ad484828501613866565b91505092915050565b600060208284031215613aef57600080fd5b600082013567ffffffffffffffff811115613b0957600080fd5b613b15848285016138a5565b91505092915050565b600060208284031215613b3057600080fd5b6000613b3e848285016138cf565b91505092915050565b613b5081614910565b82525050565b613b5f81614922565b82525050565b613b6e81614922565b82525050565b6000613b7f82614733565b613b898185614749565b9350613b99818560208601614a35565b613ba281614c3a565b840191505092915050565b6000613bb882614733565b613bc2818561475a565b9350613bd2818560208601614a35565b80840191505092915050565b613be7816149de565b82525050565b613bf6816149f0565b82525050565b613c0581614a02565b82525050565b613c1481614a14565b82525050565b6000613c258261473e565b613c2f8185614765565b9350613c3f818560208601614a35565b613c4881614c3a565b840191505092915050565b6000613c5e8261473e565b613c688185614776565b9350613c78818560208601614a35565b613c8181614c3a565b840191505092915050565b6000613c978261473e565b613ca18185614787565b9350613cb1818560208601614a35565b80840191505092915050565b60008154613cca81614a68565b613cd48186614787565b94506001821660008114613cef5760018114613d0057613d33565b60ff19831686528186019350613d33565b613d098561471e565b60005b83811015613d2b57815481890152600182019150602081019050613d0c565b838801955050505b50505092915050565b6000613d49603283614776565b9150613d5482614c4b565b604082019050919050565b6000613d6c601c83614776565b9150613d7782614c9a565b602082019050919050565b6000613d8f600583614787565b9150613d9a82614cc3565b600582019050919050565b6000613db2602483614776565b9150613dbd82614cec565b604082019050919050565b6000613dd5601983614776565b9150613de082614d3b565b602082019050919050565b6000613df8602c83614776565b9150613e0382614d64565b604082019050919050565b6000613e1b603883614776565b9150613e2682614db3565b604082019050919050565b6000613e3e602a83614776565b9150613e4982614e02565b604082019050919050565b6000613e61602983614776565b9150613e6c82614e51565b604082019050919050565b6000613e84602e83614776565b9150613e8f82614ea0565b604082019050919050565b6000613ea7600283614787565b9150613eb282614eef565b600282019050919050565b6000613eca602083614776565b9150613ed582614f18565b602082019050919050565b6000613eed603183614776565b9150613ef882614f41565b604082019050919050565b6000613f10602c83614776565b9150613f1b82614f90565b604082019050919050565b6000613f33602983614776565b9150613f3e82614fdf565b604082019050919050565b6000613f56602f83614776565b9150613f618261502e565b604082019050919050565b6000613f79600483614787565b9150613f848261507d565b600482019050919050565b6000613f9c602183614776565b9150613fa7826150a6565b604082019050919050565b6000613fbf601d83614787565b9150613fca826150f5565b601d82019050919050565b6000613fe2603183614776565b9150613fed8261511e565b604082019050919050565b6000614005608083614787565b91506140108261516d565b608082019050919050565b6000614028600683614787565b915061403382615208565b600682019050919050565b600061404b601983614776565b915061405682615231565b602082019050919050565b6000604083016000830151848203600086015261407e8282613c1a565b91505060208301516140936020860182613b56565b508091505092915050565b6140a7816149d4565b82525050565b6140be6140b9826149d4565b614b14565b82525050565b60006140d08285613c8c565b91506140dc8284613c8c565b91508190509392505050565b60006140f48286613c8c565b91506141008285613c8c565b915061410c8284613c8c565b9150819050949350505050565b6000614125828a613c8c565b91506141318289613c8c565b915061413d8288613c8c565b91506141498287613c8c565b91506141558286613c8c565b915061416082613d82565b915061416c8285613c8c565b91506141788284613bad565b91506141838261401b565b915081905098975050505050505050565b60006141a08289613c8c565b91506141ac8288613c8c565b91506141b88287613c8c565b91506141c48286613cbd565b91506141d08285613c8c565b91506141dc8284613c8c565b9150819050979650505050505050565b60006141f88286613c8c565b91506142048285613c8c565b91506142108284613c8c565b915061421b82613f6c565b9150819050949350505050565b60006142348285613cbd565b91506142408284613c8c565b91508190509392505050565b600061425782613fb2565b91506142638284613c8c565b915081905092915050565b600061427982613ff8565b91506142858284613c8c565b915061429082613e9a565b915081905092915050565b60006142a782856140ad565b6020820191506142b78284613c8c565b91508190509392505050565b60006142cf82866140ad565b6020820191506142df82856140ad565b6020820191506142ef8284613c8c565b9150819050949350505050565b60006020820190506143116000830184613b47565b92915050565b600060808201905061432c6000830187613b47565b6143396020830186613b47565b614346604083018561409e565b81810360608301526143588184613b74565b905095945050505050565b60006040820190506143786000830185613b47565b614385602083018461409e565b9392505050565b60006020820190506143a16000830184613b65565b92915050565b6000610100820190506143bd600083018b613bed565b6143ca602083018a613c0b565b6143d76040830189613bfc565b6143e46060830188613bde565b81810360808301526143f68187614061565b905081810360a083015261440a8186614061565b905061441960c0830185613b65565b81810360e083015261442b8184613c53565b90509998505050505050505050565b600060208201905081810360008301526144548184613c53565b905092915050565b6000602082019050818103600083015261447581613d3c565b9050919050565b6000602082019050818103600083015261449581613d5f565b9050919050565b600060208201905081810360008301526144b581613da5565b9050919050565b600060208201905081810360008301526144d581613dc8565b9050919050565b600060208201905081810360008301526144f581613deb565b9050919050565b6000602082019050818103600083015261451581613e0e565b9050919050565b6000602082019050818103600083015261453581613e31565b9050919050565b6000602082019050818103600083015261455581613e54565b9050919050565b6000602082019050818103600083015261457581613e77565b9050919050565b6000602082019050818103600083015261459581613ebd565b9050919050565b600060208201905081810360008301526145b581613ee0565b9050919050565b600060208201905081810360008301526145d581613f03565b9050919050565b600060208201905081810360008301526145f581613f26565b9050919050565b6000602082019050818103600083015261461581613f49565b9050919050565b6000602082019050818103600083015261463581613f8f565b9050919050565b6000602082019050818103600083015261465581613fd5565b9050919050565b600060208201905081810360008301526146758161403e565b9050919050565b6000602082019050614691600083018461409e565b92915050565b60006146a16146b2565b90506146ad8282614a9a565b919050565b6000604051905090565b600067ffffffffffffffff8211156146d7576146d6614c0b565b5b6146e082614c3a565b9050602081019050919050565b600067ffffffffffffffff82111561470857614707614c0b565b5b61471182614c3a565b9050602081019050919050565b60008190508160005260206000209050919050565b600081519050919050565b600081519050919050565b600082825260208201905092915050565b600081905092915050565b600082825260208201905092915050565b600082825260208201905092915050565b600081905092915050565b600061479d826149a6565b91506147a8836149a6565b92508261ffff038211156147bf576147be614b4f565b5b828201905092915050565b60006147d5826149d4565b91506147e0836149d4565b9250827fffffffffffffffffffffffffffffffffffffffffffffffffffffffffffffffff0382111561481557614814614b4f565b5b828201905092915050565b600061482b826149a6565b9150614836836149a6565b92508261484657614845614b7e565b5b828204905092915050565b600061485c826149d4565b9150614867836149d4565b92508261487757614876614b7e565b5b828204905092915050565b600061488d826149d4565b9150614898836149d4565b9250817fffffffffffffffffffffffffffffffffffffffffffffffffffffffffffffffff04831182151516156148d1576148d0614b4f565b5b828202905092915050565b60006148e7826149d4565b91506148f2836149d4565b92508282101561490557614904614b4f565b5b828203905092915050565b600061491b826149b4565b9050919050565b60008115159050919050565b60007fffffffff0000000000000000000000000000000000000000000000000000000082169050919050565b60008190506149688261525a565b919050565b600081905061497b8261526e565b919050565b600081905061498e82615282565b919050565b60008190506149a182615296565b919050565b600061ffff82169050919050565b600073ffffffffffffffffffffffffffffffffffffffff82169050919050565b6000819050919050565b60006149e98261495a565b9050919050565b60006149fb8261496d565b9050919050565b6000614a0d82614980565b9050919050565b6000614a1f82614993565b9050919050565b82818337600083830152505050565b60005b83811015614a53578082015181840152602081019050614a38565b83811115614a62576000848401525b50505050565b60006002820490506001821680614a8057607f821691505b60208210811415614a9457614a93614bdc565b5b50919050565b614aa382614c3a565b810181811067ffffffffffffffff82111715614ac257614ac1614c0b565b5b80604052505050565b6000614ad6826149d4565b91507fffffffffffffffffffffffffffffffffffffffffffffffffffffffffffffffff821415614b0957614b08614b4f565b5b600182019050919050565b6000819050919050565b6000614b29826149d4565b9150614b34836149d4565b925082614b4457614b43614b7e565b5b828206905092915050565b7f4e487b7100000000000000000000000000000000000000000000000000000000600052601160045260246000fd5b7f4e487b7100000000000000000000000000000000000000000000000000000000600052601260045260246000fd5b7f4e487b7100000000000000000000000000000000000000000000000000000000600052602160045260246000fd5b7f4e487b7100000000000000000000000000000000000000000000000000000000600052602260045260246000fd5b7f4e487b7100000000000000000000000000000000000000000000000000000000600052604160045260246000fd5b6000601f19601f8301169050919050565b7f4552433732313a207472616e7366657220746f206e6f6e20455243373231526560008201527f63656976657220696d706c656d656e7465720000000000000000000000000000602082015250565b7f4552433732313a20746f6b656e20616c7265616479206d696e74656400000000600082015250565b7f3c2f673e20000000000000000000000000000000000000000000000000000000600082015250565b7f4552433732313a207472616e7366657220746f20746865207a65726f2061646460008201527f7265737300000000000000000000000000000000000000000000000000000000602082015250565b7f4552433732313a20617070726f766520746f2063616c6c657200000000000000600082015250565b7f4552433732313a206f70657261746f7220717565727920666f72206e6f6e657860008201527f697374656e7420746f6b656e0000000000000000000000000000000000000000602082015250565b7f4552433732313a20617070726f76652063616c6c6572206973206e6f74206f7760008201527f6e6572206e6f7220617070726f76656420666f7220616c6c0000000000000000602082015250565b7f4552433732313a2062616c616e636520717565727920666f7220746865207a6560008201527f726f206164647265737300000000000000000000000000000000000000000000602082015250565b7f4552433732313a206f776e657220717565727920666f72206e6f6e657869737460008201527f656e7420746f6b656e0000000000000000000000000000000000000000000000602082015250565b7f45524337323155524953746f726167653a2055524920736574206f66206e6f6e60008201527f6578697374656e7420746f6b656e000000000000000000000000000000000000602082015250565b7f227d000000000000000000000000000000000000000000000000000000000000600082015250565b7f4552433732313a206d696e7420746f20746865207a65726f2061646472657373600082015250565b7f45524337323155524953746f726167653a2055524920717565727920666f722060008201527f6e6f6e6578697374656e7420746f6b656e000000000000000000000000000000602082015250565b7f4552433732313a20617070726f76656420717565727920666f72206e6f6e657860008201527f697374656e7420746f6b656e0000000000000000000000000000000000000000602082015250565b7f4552433732313a207472616e73666572206f6620746f6b656e2074686174206960008201527f73206e6f74206f776e0000000000000000000000000000000000000000000000602082015250565b7f4552433732314d657461646174613a2055524920717565727920666f72206e6f60008201527f6e6578697374656e7420746f6b656e0000000000000000000000000000000000602082015250565b7f3c2f673e00000000000000000000000000000000000000000000000000000000600082015250565b7f4552433732313a20617070726f76616c20746f2063757272656e74206f776e6560008201527f7200000000000000000000000000000000000000000000000000000000000000602082015250565b7f646174613a6170706c69636174696f6e2f6a736f6e3b6261736536342c000000600082015250565b7f4552433732313a207472616e736665722063616c6c6572206973206e6f74206f60008201527f776e6572206e6f7220617070726f766564000000000000000000000000000000602082015250565b7f7b226e616d65223a20224120737469636b2066696775726520646576656c6f7060008201527f6572222c226465736372697074696f6e223a202241207768696d736963616c2060208201527f636f6c6c656374696f6e206f6620646576656c6f706572732e222c2022696d6160408201527f6765223a2022646174613a696d6167652f7376672b786d6c3b6261736536342c606082015250565b7f3c2f7376673e0000000000000000000000000000000000000000000000000000600082015250565b7f616c6c204e4654732068617665206265656e206d696e74656400000000000000600082015250565b6004811061526b5761526a614bad565b5b50565b6006811061527f5761527e614bad565b5b50565b6004811061529357615292614bad565b5b50565b600281106152a7576152a6614bad565b5b50565b6152b381614910565b81146152be57600080fd5b50565b6152ca81614922565b81146152d557600080fd5b50565b6152e18161492e565b81146152ec57600080fd5b50565b6152f8816149d4565b811461530357600080fd5b5056fe3c7465787420636c6173733d276c6574746572696e67206c616e67747970652720783d273439252720793d273532252720646f6d696e616e742d626173656c696e653d276d6964646c652720746578742d616e63686f723d276d6964646c65273e3c7465787420636c6173733d276c6574746572696e6720646576747970652720783d273439252720793d273437252720646f6d696e616e742d626173656c696e653d276d6964646c652720746578742d616e63686f723d276d6964646c65273e3130783c2f746578743e203c7061746820636c6173733d2773686972742720643d274d3530302c3430305635353048333030563430306c2d37352c3530563337356c37352d35306832357332352c32352c37352c32352c37352d32352c37352d32356832356c37352c35307637355a27207472616e73666f726d3d277472616e736c617465282d313735202d323529272066696c6c3d273c7061746820636c6173733d276d6f7574682720643d274d3430302c323734632d33392e35372c302d36332e35342d33322e322d37312e33312d34342e3633433333382c3233362e33382c3336312e39312c3235312c3430302c3235316332362c302c34352e322d362e38352c35362e372d31322e36316139322e32322c39322e32322c302c302c302c31342e35362d382e3934433436332e34332c3234322c3433392e34382c3237342c3430302c3237345a27207472616e73666f726d3d277472616e736c617465282d3137342e3638202d323529272f3e3c7061746820643d274d3436372e35362c3233332e33613131322e33392c3131322e33392c302c302c312d31322e38312c31352e3337433434332e36322c3235392e37372c3432352e312c3237332c3430302c323733732d34332e36322d31332e32332d35342e37352d32342e3333613131322e33392c3131322e33392c302c302c312d31322e38312d31352e33372c39392e33342c39392e33342c302c302c302c31302e34322c366332312c31302e352c34322e36372c31322e37312c35372e31342c31322e37312c32362e32322c302c34352e35352d362e39312c35372e31342d31322e37316139392e33342c39392e33342c302c302c302c31302e34322d364d3437352c323235732d32352c32352d37352c32352d37352d32352d37352d32352c32352c35302c37352c35302c37352d35302c37352d35305a27207472616e73666f726d3d277472616e736c617465282d313735202d323529272f3e3c636972636c6520636c6173733d27707570696c73272063783d27313630272063793d273130302720723d273132272f3e3c636972636c6520636c6173733d27707570696c73272063783d27323930272063793d273130302720723d273132272f3e3c2f673e656e64206f662067656e657261746552616e646f6d446576656c6f7065722e2e2e3c73766720786d6c6e733d27687474703a2f2f7777772e77332e6f72672f323030302f737667272076696577426f783d272d38202d382034363020373630273e203c646566733e203c7374796c653e202a207b207374726f6b653a20233030303b207374726f6b652d6d697465726c696d69743a2031303b207374726f6b652d77696474683a203270783b207d202e6c6574746572696e67207b207374726f6b652d77696474683a303b207d202e626f6479207b2066696c6c3a206e6f6e653b207d202e666163652c2e626f6479206c696e65207b207374726f6b652d77696474683a3370783b207d202e666163652c202e6e6f73652c202e776869746573207b2066696c6c3a20236666663b207d202e6d6f757468207b2066696c6c3a20236666663b207374726f6b652d77696474683a3370783b207d202e64657674797065207b20666f6e743a20626f6c642033347078206d6f6e6f73706163653b207d202e6c616e6774797065207b20666f6e743a20626f6c6420333470782073616e732d73657269663b207d202e707570696c737b66696c6c3a233030303b7d2e6c696768747b66696c6c3a236666663b7d2e6461726b7b66696c6c3a233030303b7d3c2f7374796c653e203c2f646566733e203c6720636c6173733d27626f6479273e203c6c696e652078313d27323235272079313d27333235272078323d27343530272079323d2734303027202f3e203c6c696e652078313d27323235272079313d27333235272078323d2730272079323d2734303027202f3e203c6c696e652078313d27323235272079313d27333030272078323d27323235272079323d2735353027202f3e203c6c696e652078313d27323235272079313d27353530272078323d27313530272079323d2737353027202f3e203c6c696e652078313d27323235272079313d27353530272078323d27333030272079323d2737353027202f3e3c2f673e3c6720636c6173733d27636c6f74686573273e3c6c696e6520636c6173733d276d6f757468272078313d27313530272079313d27323235272078323d27333030272079323d27323235272f3e3c7465787420636c6173733d276c6574746572696e67206c616e67747970652720783d273439252720793d273537252720646f6d696e616e742d626173656c696e653d276d6964646c652720746578742d616e63686f723d276d6964646c65273e446576656c6f7065723c2f746578743e3c2f673e4142434445464748494a4b4c4d4e4f505152535455565758595a6162636465666768696a6b6c6d6e6f707172737475767778797a303132333435363738392b2f3c6720636c6173733d2768656164273e203c636972636c6520636c6173733d2766616365272063783d27323235272063793d273135302720723d2731353027202f3e3c706f6c796c696e6520636c6173733d276e6f73652720706f696e74733d273232352031323520323530203135302032323520313530272f3e3c6720636c6173733d2765796573273e203c656c6c6970736520636c6173733d27776869746573272063783d27313630272063793d27313030272072783d273330272072793d27323027202f3e203c656c6c6970736520636c6173733d27776869746573272063783d27323930272063793d27313030272072783d273330272072793d27323027202f3e3c636972636c6520636c6173733d27707570696c73272063783d27313630272063793d273130302720723d2736272f3e3c636972636c6520636c6173733d27707570696c73272063783d27323930272063793d273130302720723d2736272f3e3c2f673e3c706f6c796c696e6520636c6173733d27626f74746f6d2073686f7274732720706f696e74733d273332352036373520333235203532352031323520353235203132352035323520313235203637352032303020363735203232352036303020323530203637352033323520363735272066696c6c3d273c7061746820636c6173733d276d6f7574682720643d274d3430302c3232376332352e312c302c34332e36322c31332e32332c35342e37352c32342e3333613131322e33392c3131322e33392c302c302c312c31322e38312c31352e33372c39392e33342c39392e33342c302c302c302d31302e34322d36433433362e31332c3235302e32312c3431342e34372c3234382c3430302c323438632d32362e32322c302d34352e35352c362e39312d35372e31342c31322e37316139392e33342c39392e33342c302c302c302d31302e34322c362c3131322e33392c3131322e33392c302c302c312c31322e38312d31352e3337433335362e33382c3234302e32332c3337342e392c3232372c3430302c3232376d302d32632d35302c302d37352c35302d37352c35307332352d32352c37352d32352c37352c32352c37352c32352d32352d35302d37352d35305a27207472616e73666f726d3d277472616e736c617465282d313735202d323529272f3e3c706f6c796c696e6520636c6173733d27626f74746f6d2070616e74732720706f696e74733d273332352037323520333235203532352031323520353235203132352035323520313235203732352032303020373235203232352036303020323530203732352033323520373235272066696c6c3d273c7465787420636c6173733d276c6574746572696e6720646576747970652720783d273439252720793d273437252720646f6d696e616e742d626173656c696e653d276d6964646c652720746578742d616e63686f723d276d6964646c65273e3c2f746578743e3c706f6c796c696e6520636c6173733d27626f74746f6d20736b6972742720706f696e74733d27333235203637352033323520353235203132352035323520313235203532352031323520363735203230302036373520323235203637352032353020363735203332352036373527202066696c6c3d273c656c6c6970736520636c6173733d276d6f757468272063783d27323235272063793d27323235272072783d273530272072793d27353027202f3ea2646970667358221220977baf0a572d6cdf479a950b1b3d1cc86fd074027ee12bf92e28aadcef27be5464736f6c634300080400333c672066696c6c3d2723373536643065273e3c636972636c6520636c6173733d2769726973272063783d27313630272063793d273130302720723d27313627202f3e3c636972636c6520636c6173733d2769726973272063783d27323930272063793d273130302720723d27313627202f3e3c2f673e3c672066696c6c3d2723353233613238273e3c636972636c6520636c6173733d2769726973272063783d27313630272063793d273130302720723d27313627202f3e3c636972636c6520636c6173733d2769726973272063783d27323930272063793d273130302720723d27313627202f3e3c2f673e3c672066696c6c3d2723303837326533273e3c636972636c6520636c6173733d2769726973272063783d27313630272063793d273130302720723d27313627202f3e3c636972636c6520636c6173733d2769726973272063783d27323930272063793d273130302720723d27313627202f3e3c2f673e3c672066696c6c3d2723393639363936273e3c636972636c6520636c6173733d2769726973272063783d27313630272063793d273130302720723d27313627202f3e3c636972636c6520636c6173733d2769726973272063783d27323930272063793d273130302720723d27313627202f3e3c2f673e3c672066696c6c3d2723306237353161273e3c636972636c6520636c6173733d2769726973272063783d27313630272063793d273130302720723d27313627202f3e3c636972636c6520636c6173733d2769726973272063783d27323930272063793d273130302720723d27313627202f3e3c2f673e3c672066696c6c3d2723386234353133273e3c636972636c6520636c6173733d2769726973272063783d27313630272063793d273130302720723d27313627202f3e3c636972636c6520636c6173733d2769726973272063783d27323930272063793d273130302720723d27313627202f3e3c2f673e",
  "linkReferences": {},
  "deployedLinkReferences": {}
}