{
  "_format": "hh-sol-artifact-1",
  "contractName": "StickFigureDevelopersNFT",
  "sourceName": "contracts/StickFigureDevelopersNFT.sol",
  "abi": [
    {
      "anonymous": false,
      "inputs": [
        {
          "indexed": true,
          "internalType": "address",
          "name": "owner",
          "type": "address"
        },
        {
          "indexed": true,
          "internalType": "address",
          "name": "approved",
          "type": "address"
        },
        {
          "indexed": true,
          "internalType": "uint256",
          "name": "tokenId",
          "type": "uint256"
        }
      ],
      "name": "Approval",
      "type": "event"
    },
    {
      "anonymous": false,
      "inputs": [
        {
          "indexed": true,
          "internalType": "address",
          "name": "owner",
          "type": "address"
        },
        {
          "indexed": true,
          "internalType": "address",
          "name": "operator",
          "type": "address"
        },
        {
          "indexed": false,
          "internalType": "bool",
          "name": "approved",
          "type": "bool"
        }
      ],
      "name": "ApprovalForAll",
      "type": "event"
    },
    {
      "anonymous": false,
      "inputs": [
        {
          "indexed": false,
          "internalType": "address",
          "name": "sender",
          "type": "address"
        },
        {
          "indexed": false,
          "internalType": "uint256",
          "name": "tokenId",
          "type": "uint256"
        }
      ],
      "name": "NewDeveloper",
      "type": "event"
    },
    {
      "anonymous": false,
      "inputs": [
        {
          "indexed": true,
          "internalType": "address",
          "name": "from",
          "type": "address"
        },
        {
          "indexed": true,
          "internalType": "address",
          "name": "to",
          "type": "address"
        },
        {
          "indexed": true,
          "internalType": "uint256",
          "name": "tokenId",
          "type": "uint256"
        }
      ],
      "name": "Transfer",
      "type": "event"
    },
    {
      "inputs": [],
      "name": "MAX_SUPPLY",
      "outputs": [
        {
          "internalType": "uint256",
          "name": "",
          "type": "uint256"
        }
      ],
      "stateMutability": "view",
      "type": "function"
    },
    {
      "inputs": [
        {
          "internalType": "address",
          "name": "to",
          "type": "address"
        },
        {
          "internalType": "uint256",
          "name": "tokenId",
          "type": "uint256"
        }
      ],
      "name": "approve",
      "outputs": [],
      "stateMutability": "nonpayable",
      "type": "function"
    },
    {
      "inputs": [
        {
          "internalType": "address",
          "name": "owner",
          "type": "address"
        }
      ],
      "name": "balanceOf",
      "outputs": [
        {
          "internalType": "uint256",
          "name": "",
          "type": "uint256"
        }
      ],
      "stateMutability": "view",
      "type": "function"
    },
    {
      "inputs": [],
      "name": "createDeveloper",
      "outputs": [],
      "stateMutability": "nonpayable",
      "type": "function"
    },
    {
      "inputs": [
        {
          "internalType": "uint256",
          "name": "",
          "type": "uint256"
        }
      ],
      "name": "developers",
      "outputs": [
        {
          "internalType": "enum StickFigureDeveloper.Iris",
          "name": "eyeColor",
          "type": "uint8"
        },
        {
          "internalType": "enum StickFigureDeveloper.Pupils",
          "name": "pupilSize",
          "type": "uint8"
        },
        {
          "internalType": "enum StickFigureDeveloper.Mouths",
          "name": "expression",
          "type": "uint8"
        },
        {
          "internalType": "enum StickFigureDeveloper.Clothes",
          "name": "clothesType",
          "type": "uint8"
        },
        {
          "components": [
            {
              "internalType": "string",
              "name": "rgbColor",
              "type": "string"
            },
            {
              "internalType": "bool",
              "name": "isDark",
              "type": "bool"
            }
          ],
          "internalType": "struct HexColorHelper.HexColor",
          "name": "shirtColor",
          "type": "tuple"
        },
        {
          "components": [
            {
              "internalType": "string",
              "name": "rgbColor",
              "type": "string"
            },
            {
              "internalType": "bool",
              "name": "isDark",
              "type": "bool"
            }
          ],
          "internalType": "struct HexColorHelper.HexColor",
          "name": "bottomColor",
          "type": "tuple"
        },
        {
          "internalType": "bool",
          "name": "is10x",
          "type": "bool"
        },
        {
          "internalType": "string",
          "name": "language",
          "type": "string"
        }
      ],
      "stateMutability": "view",
      "type": "function"
    },
    {
      "inputs": [
        {
          "internalType": "uint256",
          "name": "tokenId",
          "type": "uint256"
        }
      ],
      "name": "getApproved",
      "outputs": [
        {
          "internalType": "address",
          "name": "",
          "type": "address"
        }
      ],
      "stateMutability": "view",
      "type": "function"
    },
    {
      "inputs": [],
      "name": "getDeveloperCount",
      "outputs": [
        {
          "internalType": "uint256",
          "name": "",
          "type": "uint256"
        }
      ],
      "stateMutability": "view",
      "type": "function"
    },
    {
      "inputs": [],
      "name": "getMaxSupply",
      "outputs": [
        {
          "internalType": "uint256",
          "name": "",
          "type": "uint256"
        }
      ],
      "stateMutability": "pure",
      "type": "function"
    },
    {
      "inputs": [
        {
          "internalType": "string",
          "name": "seed",
          "type": "string"
        }
      ],
      "name": "getRandomInt",
      "outputs": [
        {
          "internalType": "uint256",
          "name": "",
          "type": "uint256"
        }
      ],
      "stateMutability": "view",
      "type": "function"
    },
    {
      "inputs": [
        {
          "internalType": "address",
          "name": "owner",
          "type": "address"
        },
        {
          "internalType": "address",
          "name": "operator",
          "type": "address"
        }
      ],
      "name": "isApprovedForAll",
      "outputs": [
        {
          "internalType": "bool",
          "name": "",
          "type": "bool"
        }
      ],
      "stateMutability": "view",
      "type": "function"
    },
    {
      "inputs": [
        {
          "internalType": "uint256",
          "name": "",
          "type": "uint256"
        }
      ],
      "name": "languages",
      "outputs": [
        {
          "internalType": "string",
          "name": "",
          "type": "string"
        }
      ],
      "stateMutability": "view",
      "type": "function"
    },
    {
      "inputs": [],
      "name": "name",
      "outputs": [
        {
          "internalType": "string",
          "name": "",
          "type": "string"
        }
      ],
      "stateMutability": "view",
      "type": "function"
    },
    {
      "inputs": [
        {
          "internalType": "uint256",
          "name": "tokenId",
          "type": "uint256"
        }
      ],
      "name": "ownerOf",
      "outputs": [
        {
          "internalType": "address",
          "name": "",
          "type": "address"
        }
      ],
      "stateMutability": "view",
      "type": "function"
    },
    {
      "inputs": [
        {
          "internalType": "address",
          "name": "from",
          "type": "address"
        },
        {
          "internalType": "address",
          "name": "to",
          "type": "address"
        },
        {
          "internalType": "uint256",
          "name": "tokenId",
          "type": "uint256"
        }
      ],
      "name": "safeTransferFrom",
      "outputs": [],
      "stateMutability": "nonpayable",
      "type": "function"
    },
    {
      "inputs": [
        {
          "internalType": "address",
          "name": "from",
          "type": "address"
        },
        {
          "internalType": "address",
          "name": "to",
          "type": "address"
        },
        {
          "internalType": "uint256",
          "name": "tokenId",
          "type": "uint256"
        },
        {
          "internalType": "bytes",
          "name": "_data",
          "type": "bytes"
        }
      ],
      "name": "safeTransferFrom",
      "outputs": [],
      "stateMutability": "nonpayable",
      "type": "function"
    },
    {
      "inputs": [
        {
          "internalType": "address",
          "name": "operator",
          "type": "address"
        },
        {
          "internalType": "bool",
          "name": "approved",
          "type": "bool"
        }
      ],
      "name": "setApprovalForAll",
      "outputs": [],
      "stateMutability": "nonpayable",
      "type": "function"
    },
    {
      "inputs": [
        {
          "internalType": "bytes4",
          "name": "interfaceId",
          "type": "bytes4"
        }
      ],
      "name": "supportsInterface",
      "outputs": [
        {
          "internalType": "bool",
          "name": "",
          "type": "bool"
        }
      ],
      "stateMutability": "view",
      "type": "function"
    },
    {
      "inputs": [],
      "name": "symbol",
      "outputs": [
        {
          "internalType": "string",
          "name": "",
          "type": "string"
        }
      ],
      "stateMutability": "view",
      "type": "function"
    },
    {
      "inputs": [
        {
          "internalType": "uint256",
          "name": "tokenId",
          "type": "uint256"
        }
      ],
      "name": "tokenURI",
      "outputs": [
        {
          "internalType": "string",
          "name": "",
          "type": "string"
        }
      ],
      "stateMutability": "view",
      "type": "function"
    },
    {
      "inputs": [
        {
          "internalType": "address",
          "name": "from",
          "type": "address"
        },
        {
          "internalType": "address",
          "name": "to",
          "type": "address"
        },
        {
          "internalType": "uint256",
          "name": "tokenId",
          "type": "uint256"
        }
      ],
      "name": "transferFrom",
      "outputs": [],
      "stateMutability": "nonpayable",
      "type": "function"
    }
  ],
  "bytecode": "0x60806040526040518060c001604052806040518060a001604052806076815260200162006b286076913981526020016040518060a001604052806076815260200162006d006076913981526020016040518060a001604052806076815260200162006ab26076913981526020016040518060a001604052806076815260200162006c8a6076913981526020016040518060a001604052806076815260200162006c146076913981526020016040518060a001604052806076815260200162006b9e607691398152506007906006620000d99291906200085a565b50604051806103a001604052806040518060400160405280600381526020017f416461000000000000000000000000000000000000000000000000000000000081525081526020016040518060400160405280600581526020017f424153494300000000000000000000000000000000000000000000000000000081525081526020016040518060400160405280600181526020017f430000000000000000000000000000000000000000000000000000000000000081525081526020016040518060400160405280600281526020017f432300000000000000000000000000000000000000000000000000000000000081525081526020016040518060400160405280600381526020017f432b2b000000000000000000000000000000000000000000000000000000000081525081526020016040518060400160405280600781526020017f436c6f6a7572650000000000000000000000000000000000000000000000000081525081526020016040518060400160405280600581526020017f436f626f6c00000000000000000000000000000000000000000000000000000081525081526020016040518060400160405280600481526020017f446172740000000000000000000000000000000000000000000000000000000081525081526020016040518060400160405280600681526020017f45726c616e67000000000000000000000000000000000000000000000000000081525081526020016040518060400160405280600281526020017f476f00000000000000000000000000000000000000000000000000000000000081525081526020016040518060400160405280600781526020017f4861736b656c6c0000000000000000000000000000000000000000000000000081525081526020016040518060400160405280600481526020017f4a6176610000000000000000000000000000000000000000000000000000000081525081526020016040518060400160405280600a81526020017f4a6176615363726970740000000000000000000000000000000000000000000081525081526020016040518060400160405280600581526020017f4a756c696100000000000000000000000000000000000000000000000000000081525081526020016040518060400160405280600681526020017f4b6f746c696e000000000000000000000000000000000000000000000000000081525081526020016040518060400160405280600381526020017f4c7561000000000000000000000000000000000000000000000000000000000081525081526020016040518060400160405280600581526020017f4f43616d6c00000000000000000000000000000000000000000000000000000081525081526020016040518060400160405280600b81526020017f4f626a6563746976652d4300000000000000000000000000000000000000000081525081526020016040518060400160405280600381526020017f504850000000000000000000000000000000000000000000000000000000000081525081526020016040518060400160405280600681526020017f50617363616c000000000000000000000000000000000000000000000000000081525081526020016040518060400160405280600481526020017f5065726c0000000000000000000000000000000000000000000000000000000081525081526020016040518060400160405280600681526020017f507974686f6e000000000000000000000000000000000000000000000000000081525081526020016040518060400160405280600181526020017f520000000000000000000000000000000000000000000000000000000000000081525081526020016040518060400160405280600481526020017f527562790000000000000000000000000000000000000000000000000000000081525081526020016040518060400160405280600481526020017f527573740000000000000000000000000000000000000000000000000000000081525081526020016040518060400160405280600581526020017f5363616c6100000000000000000000000000000000000000000000000000000081525081526020016040518060400160405280600881526020017f536f6c696469747900000000000000000000000000000000000000000000000081525081526020016040518060400160405280600581526020017f537769667400000000000000000000000000000000000000000000000000000081525081526020016040518060400160405280600a81526020017f5479706553637269707400000000000000000000000000000000000000000000815250815250600890601d620007a5929190620008c1565b50348015620007b357600080fd5b506040518060400160405280601c81526020017f537469636b2046696775726520446576656c6f706572732074657374000000008152506040518060400160405280600881526020017f535449434b46494700000000000000000000000000000000000000000000000081525081600090805190602001906200083892919062000928565b5080600190805190602001906200085192919062000928565b50505062000aab565b828054828255906000526020600020908101928215620008ae579160200282015b82811115620008ad5782518290805190602001906200089c92919062000928565b50916020019190600101906200087b565b5b509050620008bd9190620009b9565b5090565b82805482825590600052602060002090810192821562000915579160200282015b82811115620009145782518290805190602001906200090392919062000928565b5091602001919060010190620008e2565b5b509050620009249190620009b9565b5090565b828054620009369062000a46565b90600052602060002090601f0160209004810192826200095a5760008555620009a6565b82601f106200097557805160ff1916838001178555620009a6565b82800160010185558215620009a6579182015b82811115620009a557825182559160200191906001019062000988565b5b509050620009b59190620009e1565b5090565b5b80821115620009dd5760008181620009d3919062000a00565b50600101620009ba565b5090565b5b80821115620009fc576000816000905550600101620009e2565b5090565b50805462000a0e9062000a46565b6000825580601f1062000a22575062000a43565b601f01602090049060005260206000209081019062000a429190620009e1565b5b50565b6000600282049050600182168062000a5f57607f821691505b6020821081141562000a765762000a7562000a7c565b5b50919050565b7f4e487b7100000000000000000000000000000000000000000000000000000000600052602260045260246000fd5b615ff78062000abb6000396000f3fe608060405234801561001057600080fd5b506004361061012c5760003560e01c80636352211e116100ad578063a22cb46511610071578063a22cb46514610345578063b88d4fde14610361578063c87b56dd1461037d578063e985e9c5146103ad578063eff25cd6146103dd5761012c565b80636352211e1461028d578063644d3984146102bd5780636d3883f7146102c757806370a08231146102f757806395d89b41146103275761012c565b806323b872dd116100f457806323b872dd146101e957806332cb6b0c1461020557806342842e0e146102235780634c0f38c21461023f5780635ffb03c91461025d5761012c565b806301ffc9a71461013157806306fdde0314610161578063081812fc1461017f578063095ea7b3146101af57806312c443f3146101cb575b600080fd5b61014b60048036038101906101469190613a89565b610414565b604051610158919061438a565b60405180910390f35b6101696104f6565b6040516101769190614438565b60405180910390f35b61019960048036038101906101949190613b1c565b610588565b6040516101a691906142fa565b60405180910390f35b6101c960048036038101906101c49190613a4d565b61060d565b005b6101d3610725565b6040516101e0919061467a565b60405180910390f35b61020360048036038101906101fe9190613947565b610736565b005b61020d610796565b60405161021a919061467a565b60405180910390f35b61023d60048036038101906102389190613947565b61079c565b005b6102476107bc565b604051610254919061467a565b60405180910390f35b61027760048036038101906102729190613b1c565b6107c6565b6040516102849190614438565b60405180910390f35b6102a760048036038101906102a29190613b1c565b610872565b6040516102b491906142fa565b60405180910390f35b6102c5610924565b005b6102e160048036038101906102dc9190613adb565b610a36565b6040516102ee919061467a565b60405180910390f35b610311600480360381019061030c91906138e2565b610a6b565b60405161031e919061467a565b60405180910390f35b61032f610b23565b60405161033c9190614438565b60405180910390f35b61035f600480360381019061035a9190613a11565b610bb5565b005b61037b60048036038101906103769190613996565b610d36565b005b61039760048036038101906103929190613b1c565b610d98565b6040516103a49190614438565b60405180910390f35b6103c760048036038101906103c2919061390b565b610eea565b6040516103d4919061438a565b60405180910390f35b6103f760048036038101906103f29190613b1c565b610f7e565b60405161040b9897969594939291906143a5565b60405180910390f35b60007f80ac58cd000000000000000000000000000000000000000000000000000000007bffffffffffffffffffffffffffffffffffffffffffffffffffffffff1916827bffffffffffffffffffffffffffffffffffffffffffffffffffffffff191614806104df57507f5b5e139f000000000000000000000000000000000000000000000000000000007bffffffffffffffffffffffffffffffffffffffffffffffffffffffff1916827bffffffffffffffffffffffffffffffffffffffffffffffffffffffff1916145b806104ef57506104ee8261120d565b5b9050919050565b60606000805461050590614a66565b80601f016020809104026020016040519081016040528092919081815260200182805461053190614a66565b801561057e5780601f106105535761010080835404028352916020019161057e565b820191906000526020600020905b81548152906001019060200180831161056157829003601f168201915b5050505050905090565b600061059382611277565b6105d2576040517f08c379a00000000000000000000000000000000000000000000000000000000081526004016105c9906145ba565b60405180910390fd5b6004600083815260200190815260200160002060009054906101000a900473ffffffffffffffffffffffffffffffffffffffff169050919050565b600061061882610872565b90508073ffffffffffffffffffffffffffffffffffffffff168373ffffffffffffffffffffffffffffffffffffffff161415610689576040517f08c379a00000000000000000000000000000000000000000000000000000000081526004016106809061461a565b60405180910390fd5b8073ffffffffffffffffffffffffffffffffffffffff166106a86112e3565b73ffffffffffffffffffffffffffffffffffffffff1614806106d757506106d6816106d16112e3565b610eea565b5b610716576040517f08c379a000000000000000000000000000000000000000000000000000000000815260040161070d906144fa565b60405180910390fd5b61072083836112eb565b505050565b6000610731600a6113a4565b905090565b6107476107416112e3565b826113b2565b610786576040517f08c379a000000000000000000000000000000000000000000000000000000000815260040161077d9061463a565b60405180910390fd5b610791838383611490565b505050565b6103e881565b6107b783838360405180602001604052806000815250610d36565b505050565b60006103e8905090565b600881815481106107d657600080fd5b9060005260206000200160009150905080546107f190614a66565b80601f016020809104026020016040519081016040528092919081815260200182805461081d90614a66565b801561086a5780601f1061083f5761010080835404028352916020019161086a565b820191906000526020600020905b81548152906001019060200180831161084d57829003601f168201915b505050505081565b6000806002600084815260200190815260200160002060009054906101000a900473ffffffffffffffffffffffffffffffffffffffff169050600073ffffffffffffffffffffffffffffffffffffffff168173ffffffffffffffffffffffffffffffffffffffff16141561091b576040517f08c379a00000000000000000000000000000000000000000000000000000000081526004016109129061453a565b60405180910390fd5b80915050919050565b6103e861092f6107bc565b1061096f576040517f08c379a00000000000000000000000000000000000000000000000000000000081526004016109669061465a565b60405180910390fd5b600061097b600a6113a4565b9050610986816116ec565b6109903382611e53565b6109f0816109cc6109a86109a385611e71565b611f04565b6040516020016109b8919061426c565b604051602081830303815290604052611f04565b6040516020016109dc919061424a565b6040516020818303038152906040526120c2565b6109fa600a612136565b7f71b909df09f7ac491501b9c09903085e5b1f46547051602530452bb557cb1e353382604051610a2b929190614361565b60405180910390a150565b60004282604051602001610a4b929190614299565b6040516020818303038152906040528051906020012060001c9050919050565b60008073ffffffffffffffffffffffffffffffffffffffff168273ffffffffffffffffffffffffffffffffffffffff161415610adc576040517f08c379a0000000000000000000000000000000000000000000000000000000008152600401610ad39061451a565b60405180910390fd5b600360008373ffffffffffffffffffffffffffffffffffffffff1673ffffffffffffffffffffffffffffffffffffffff168152602001908152602001600020549050919050565b606060018054610b3290614a66565b80601f0160208091040260200160405190810160405280929190818152602001828054610b5e90614a66565b8015610bab5780601f10610b8057610100808354040283529160200191610bab565b820191906000526020600020905b815481529060010190602001808311610b8e57829003601f168201915b5050505050905090565b610bbd6112e3565b73ffffffffffffffffffffffffffffffffffffffff168273ffffffffffffffffffffffffffffffffffffffff161415610c2b576040517f08c379a0000000000000000000000000000000000000000000000000000000008152600401610c22906144ba565b60405180910390fd5b8060056000610c386112e3565b73ffffffffffffffffffffffffffffffffffffffff1673ffffffffffffffffffffffffffffffffffffffff16815260200190815260200160002060008473ffffffffffffffffffffffffffffffffffffffff1673ffffffffffffffffffffffffffffffffffffffff16815260200190815260200160002060006101000a81548160ff0219169083151502179055508173ffffffffffffffffffffffffffffffffffffffff16610ce56112e3565b73ffffffffffffffffffffffffffffffffffffffff167f17307eab39ab6107e8899845ad3d59bd9653f200f220920489ca2b5937696c3183604051610d2a919061438a565b60405180910390a35050565b610d47610d416112e3565b836113b2565b610d86576040517f08c379a0000000000000000000000000000000000000000000000000000000008152600401610d7d9061463a565b60405180910390fd5b610d928484848461214c565b50505050565b6060610da382611277565b610de2576040517f08c379a0000000000000000000000000000000000000000000000000000000008152600401610dd99061459a565b60405180910390fd5b6000600660008481526020019081526020016000208054610e0290614a66565b80601f0160208091040260200160405190810160405280929190818152602001828054610e2e90614a66565b8015610e7b5780601f10610e5057610100808354040283529160200191610e7b565b820191906000526020600020905b815481529060010190602001808311610e5e57829003601f168201915b505050505090506000610e8c6121a8565b9050600081511415610ea2578192505050610ee5565b600082511115610ed7578082604051602001610ebf9291906140c2565b60405160208183030381529060405292505050610ee5565b610ee0846121bf565b925050505b919050565b6000600560008473ffffffffffffffffffffffffffffffffffffffff1673ffffffffffffffffffffffffffffffffffffffff16815260200190815260200160002060008373ffffffffffffffffffffffffffffffffffffffff1673ffffffffffffffffffffffffffffffffffffffff16815260200190815260200160002060009054906101000a900460ff16905092915050565b60098181548110610f8e57600080fd5b90600052602060002090600702016000915090508060000160009054906101000a900460ff16908060000160019054906101000a900460ff16908060000160029054906101000a900460ff16908060000160039054906101000a900460ff16908060010160405180604001604052908160008201805461100d90614a66565b80601f016020809104026020016040519081016040528092919081815260200182805461103990614a66565b80156110865780601f1061105b57610100808354040283529160200191611086565b820191906000526020600020905b81548152906001019060200180831161106957829003601f168201915b505050505081526020016001820160009054906101000a900460ff16151515158152505090806003016040518060400160405290816000820180546110ca90614a66565b80601f01602080910402602001604051908101604052809291908181526020018280546110f690614a66565b80156111435780601f1061111857610100808354040283529160200191611143565b820191906000526020600020905b81548152906001019060200180831161112657829003601f168201915b505050505081526020016001820160009054906101000a900460ff161515151581525050908060050160009054906101000a900460ff169080600601805461118a90614a66565b80601f01602080910402602001604051908101604052809291908181526020018280546111b690614a66565b80156112035780601f106111d857610100808354040283529160200191611203565b820191906000526020600020905b8154815290600101906020018083116111e657829003601f168201915b5050505050905088565b60007f01ffc9a7000000000000000000000000000000000000000000000000000000007bffffffffffffffffffffffffffffffffffffffffffffffffffffffff1916827bffffffffffffffffffffffffffffffffffffffffffffffffffffffff1916149050919050565b60008073ffffffffffffffffffffffffffffffffffffffff166002600084815260200190815260200160002060009054906101000a900473ffffffffffffffffffffffffffffffffffffffff1673ffffffffffffffffffffffffffffffffffffffff1614159050919050565b600033905090565b816004600083815260200190815260200160002060006101000a81548173ffffffffffffffffffffffffffffffffffffffff021916908373ffffffffffffffffffffffffffffffffffffffff160217905550808273ffffffffffffffffffffffffffffffffffffffff1661135e83610872565b73ffffffffffffffffffffffffffffffffffffffff167f8c5be1e5ebec7d5bd14f71427d1e84f3dd0314c0f7b2291e5b200ac8c7c3b92560405160405180910390a45050565b600081600001549050919050565b60006113bd82611277565b6113fc576040517f08c379a00000000000000000000000000000000000000000000000000000000081526004016113f3906144da565b60405180910390fd5b600061140783610872565b90508073ffffffffffffffffffffffffffffffffffffffff168473ffffffffffffffffffffffffffffffffffffffff16148061147657508373ffffffffffffffffffffffffffffffffffffffff1661145e84610588565b73ffffffffffffffffffffffffffffffffffffffff16145b8061148757506114868185610eea565b5b91505092915050565b8273ffffffffffffffffffffffffffffffffffffffff166114b082610872565b73ffffffffffffffffffffffffffffffffffffffff1614611506576040517f08c379a00000000000000000000000000000000000000000000000000000000081526004016114fd906145da565b60405180910390fd5b600073ffffffffffffffffffffffffffffffffffffffff168273ffffffffffffffffffffffffffffffffffffffff161415611576576040517f08c379a000000000000000000000000000000000000000000000000000000000815260040161156d9061449a565b60405180910390fd5b611581838383612266565b61158c6000826112eb565b6001600360008573ffffffffffffffffffffffffffffffffffffffff1673ffffffffffffffffffffffffffffffffffffffff16815260200190815260200160002060008282546115dc91906148da565b925050819055506001600360008473ffffffffffffffffffffffffffffffffffffffff1673ffffffffffffffffffffffffffffffffffffffff168152602001908152602001600020600082825461163391906147c8565b92505081905550816002600083815260200190815260200160002060006101000a81548173ffffffffffffffffffffffffffffffffffffffff021916908373ffffffffffffffffffffffffffffffffffffffff160217905550808273ffffffffffffffffffffffffffffffffffffffff168473ffffffffffffffffffffffffffffffffffffffff167fddf252ad1be2c89b69c2b068fc378daa952ba7f163c4a11628f55a4df523b3ef60405160405180910390a4505050565b600960405180610100016040528061173c600060056040518060400160405280600481526020017f697269730000000000000000000000000000000000000000000000000000000081525061226b565b6005811115611774577f4e487b7100000000000000000000000000000000000000000000000000000000600052602160045260246000fd5b60058111156117ac577f4e487b7100000000000000000000000000000000000000000000000000000000600052602160045260246000fd5b815260200160096117f5600060096040518060400160405280600581526020017f707570696c00000000000000000000000000000000000000000000000000000081525061226b565b10611801576001611804565b60005b60ff16600181111561183f577f4e487b7100000000000000000000000000000000000000000000000000000000600052602160045260246000fd5b6001811115611877577f4e487b7100000000000000000000000000000000000000000000000000000000600052602160045260246000fd5b81526020016118be600060036040518060400160405280600681526020017f6d6f75746873000000000000000000000000000000000000000000000000000081525061226b565b60038111156118f6577f4e487b7100000000000000000000000000000000000000000000000000000000600052602160045260246000fd5b600381111561192e577f4e487b7100000000000000000000000000000000000000000000000000000000600052602160045260246000fd5b8152602001611975600060036040518060400160405280600781526020017f636c6f746865730000000000000000000000000000000000000000000000000081525061226b565b60038111156119ad577f4e487b7100000000000000000000000000000000000000000000000000000000600052602160045260246000fd5b60038111156119e5577f4e487b7100000000000000000000000000000000000000000000000000000000600052602160045260246000fd5b8152602001611a29846040518060400160405280600581526020017f73686972740000000000000000000000000000000000000000000000000000008152506122cf565b8152602001611a6d846040518060400160405280600781526020017f636c6f74686573000000000000000000000000000000000000000000000000008152506122cf565b8152602001604f611ab6600060636040518060400160405280600381526020017f313078000000000000000000000000000000000000000000000000000000000081525061226b565b11151581526020016008611b1260006001600880549050611ad791906148da565b6040518060400160405280600481526020017f6c616e670000000000000000000000000000000000000000000000000000000081525061226b565b81548110611b49577f4e487b7100000000000000000000000000000000000000000000000000000000600052603260045260246000fd5b906000526020600020018054611b5e90614a66565b80601f0160208091040260200160405190810160405280929190818152602001828054611b8a90614a66565b8015611bd75780601f10611bac57610100808354040283529160200191611bd7565b820191906000526020600020905b815481529060010190602001808311611bba57829003601f168201915b5050505050815250908060018154018082558091505060019003906000526020600020906007020160009091909190915060008201518160000160006101000a81548160ff02191690836005811115611c59577f4e487b7100000000000000000000000000000000000000000000000000000000600052602160045260246000fd5b021790555060208201518160000160016101000a81548160ff02191690836001811115611caf577f4e487b7100000000000000000000000000000000000000000000000000000000600052602160045260246000fd5b021790555060408201518160000160026101000a81548160ff02191690836003811115611d05577f4e487b7100000000000000000000000000000000000000000000000000000000600052602160045260246000fd5b021790555060608201518160000160036101000a81548160ff02191690836003811115611d5b577f4e487b7100000000000000000000000000000000000000000000000000000000600052602160045260246000fd5b02179055506080820151816001016000820151816000019080519060200190611d859291906136ea565b5060208201518160010160006101000a81548160ff021916908315150217905550505060a0820151816003016000820151816000019080519060200190611dcd9291906136ea565b5060208201518160010160006101000a81548160ff021916908315150217905550505060c08201518160050160006101000a81548160ff02191690831515021790555060e0820151816006019080519060200190611e2c9291906136ea565b505050611e506040518060600160405280602181526020016156fb602191396125f4565b50565b611e6d82826040518060200160405280600081525061268d565b5050565b60606040518061030001604052806102d8815260200161571c6102d89139611e98836126e8565b611ea184612828565b6040518061014001604052806101058152602001615ae26101059139611ec686612af7565b611ecf87612cfb565b611ed888612f55565b604051602001611eee9796959493929190614117565b6040516020818303038152906040529050919050565b60606000825190506000811415611f2d57604051806020016040528060008152509150506120bd565b60006003600283611f3e91906147c8565b611f48919061484f565b6004611f549190614880565b90506000602082611f6591906147c8565b67ffffffffffffffff811115611fa4577f4e487b7100000000000000000000000000000000000000000000000000000000600052604160045260246000fd5b6040519080825280601f01601f191660200182016040528015611fd65781602001600182028036833780820191505090505b5090506000604051806060016040528060408152602001615aa2604091399050600181016020830160005b8681101561207a5760038101905062ffffff818a015116603f8160121c168401518060081b905060ff603f83600c1c1686015116810190508060081b905060ff603f8360061c1686015116810190508060081b905060ff603f831686015116810190508060e01b90508084526004840193505050612001565b50600386066001811461209457600281146120a4576120af565b613d3d60f01b60028303526120af565b603d60f81b60018303525b508484525050819450505050505b919050565b6120cb82611277565b61210a576040517f08c379a00000000000000000000000000000000000000000000000000000000081526004016121019061455a565b60405180910390fd5b806006600084815260200190815260200160002090805190602001906121319291906136ea565b505050565b6001816000016000828254019250508190555050565b612157848484611490565b6121638484848461319c565b6121a2576040517f08c379a00000000000000000000000000000000000000000000000000000000081526004016121999061445a565b60405180910390fd5b50505050565b606060405180602001604052806000815250905090565b60606121ca82611277565b612209576040517f08c379a0000000000000000000000000000000000000000000000000000000008152600401612200906145fa565b60405180910390fd5b60006122136121a8565b90506000815111612233576040518060200160405280600081525061225e565b8061223d84613333565b60405160200161224e9291906140c2565b6040516020818303038152906040525b915050919050565b505050565b6000838460018561227c91906147c8565b61228691906148da565b4284604051602001612299929190614299565b6040516020818303038152906040528051906020012060001c6122bc9190614b1c565b6122c691906147c8565b90509392505050565b6122d7613770565b60004284846040516020016122ee939291906142c1565b6040516020818303038152906040528051906020012090506000600767ffffffffffffffff811115612349577f4e487b7100000000000000000000000000000000000000000000000000000000600052604160045260246000fd5b6040519080825280601f01601f19166020018201604052801561237b5781602001600182028036833780820191505090505b50905060008080600090507f2300000000000000000000000000000000000000000000000000000000000000846000815181106123e1577f4e487b7100000000000000000000000000000000000000000000000000000000600052603260045260246000fd5b60200101907effffffffffffffffffffffffffffffffffffffffffffffffffffffffffffff1916908160001a90535060005b60068110156125b157600f868260208110612457577f4e487b7100000000000000000000000000000000000000000000000000000000600052603260045260246000fd5b1a60f81b60f81c16925060006002826124709190614b1c565b1415612488578260ff16826124859190614790565b91505b7f3031323334353637383961626364656600000000000000000000000000000000600f8783602081106124e4577f4e487b7100000000000000000000000000000000000000000000000000000000600052603260045260246000fd5b1a60f81b60f81c1660ff1660108110612526577f4e487b7100000000000000000000000000000000000000000000000000000000600052603260045260246000fd5b1a60f81b8560018361253891906147c8565b8151811061256f577f4e487b7100000000000000000000000000000000000000000000000000000000600052603260045260246000fd5b60200101907effffffffffffffffffffffffffffffffffffffffffffffffffffffffffffff1916908160001a90535080806125a990614ac9565b915050612413565b5060086003826125c1919061481e565b61ffff1610156125d057600192505b60405180604001604052808581526020018415158152509550505050505092915050565b61268a816040516024016126089190614438565b6040516020818303038152906040527f41304fac000000000000000000000000000000000000000000000000000000007bffffffffffffffffffffffffffffffffffffffffffffffffffffffff19166020820180517bffffffffffffffffffffffffffffffffffffffffffffffffffffffff83818316178352505050506134e0565b50565b6126978383613509565b6126a4600084848461319c565b6126e3576040517f08c379a00000000000000000000000000000000000000000000000000000000081526004016126da9061445a565b60405180910390fd5b505050565b6060600061272b836040518060400160405280600581526020017f73686972740000000000000000000000000000000000000000000000000000008152506122cf565b905060006040518060400160405280600481526020017f233030300000000000000000000000000000000000000000000000000000000081525090508160200151156127aa576040518060400160405280600481526020017f236666660000000000000000000000000000000000000000000000000000000081525090505b6040518060c00160405280608d81526020016153d0608d913982600001516040518060400160405280600481526020017f27202f3e00000000000000000000000000000000000000000000000000000000815250604051602001612810939291906140e6565b60405160208183030381529060405292505050919050565b6060600060098381548110612866577f4e487b7100000000000000000000000000000000000000000000000000000000600052603260045260246000fd5b906000526020600020906007020160000160039054906101000a900460ff1690506060600060038111156128c3577f4e487b7100000000000000000000000000000000000000000000000000000000600052602160045260246000fd5b8260038111156128fc577f4e487b7100000000000000000000000000000000000000000000000000000000600052602160045260246000fd5b148061297857506001600381111561293d577f4e487b7100000000000000000000000000000000000000000000000000000000600052602160045260246000fd5b826003811115612976577f4e487b7100000000000000000000000000000000000000000000000000000000600052602160045260246000fd5b145b1561299d576040518060a0016040528060768152602001615e33607691399050612a53565b600260038111156129d7577f4e487b7100000000000000000000000000000000000000000000000000000000600052602160045260246000fd5b826003811115612a10577f4e487b7100000000000000000000000000000000000000000000000000000000600052602160045260246000fd5b1415612a36576040518060a0016040528060778152602001615f10607791399050612a52565b6040518060a0016040528060778152602001615c4b6077913990505b5b80612a93856040518060400160405280600781526020017f636c6f74686573000000000000000000000000000000000000000000000000008152506122cf565b600001516040518060400160405280600481526020017f27202f3e00000000000000000000000000000000000000000000000000000000815250604051602001612adf939291906141ea565b60405160208183030381529060405292505050919050565b6060600760098381548110612b35577f4e487b7100000000000000000000000000000000000000000000000000000000600052603260045260246000fd5b906000526020600020906007020160000160009054906101000a900460ff166005811115612b8c577f4e487b7100000000000000000000000000000000000000000000000000000000600052602160045260246000fd5b81548110612bc3577f4e487b7100000000000000000000000000000000000000000000000000000000600052603260045260246000fd5b90600052602060002001600180811115612c06577f4e487b7100000000000000000000000000000000000000000000000000000000600052602160045260246000fd5b60098481548110612c40577f4e487b7100000000000000000000000000000000000000000000000000000000600052603260045260246000fd5b906000526020600020906007020160000160019054906101000a900460ff166001811115612c97577f4e487b7100000000000000000000000000000000000000000000000000000000600052602160045260246000fd5b14612cba576040518060a0016040528060648152602001615be760649139612cd4565b6040518060a0016040528060668152602001615695606691395b604051602001612ce5929190614226565b6040516020818303038152906040529050919050565b6060600060098381548110612d39577f4e487b7100000000000000000000000000000000000000000000000000000000600052603260045260246000fd5b906000526020600020906007020160000160029054906101000a900460ff169050606060006003811115612d96577f4e487b7100000000000000000000000000000000000000000000000000000000600052602160045260246000fd5b826003811115612dcf577f4e487b7100000000000000000000000000000000000000000000000000000000600052602160045260246000fd5b1415612df857604051806102600160405280610238815260200161545d61023891399050612f4b565b60016003811115612e32577f4e487b7100000000000000000000000000000000000000000000000000000000600052602160045260246000fd5b826003811115612e6b577f4e487b7100000000000000000000000000000000000000000000000000000000600052602160045260246000fd5b1415612e9457604051806101a001604052806101718152602001615cc261017191399050612f4a565b60026003811115612ece577f4e487b7100000000000000000000000000000000000000000000000000000000600052602160045260246000fd5b826003811115612f07577f4e487b7100000000000000000000000000000000000000000000000000000000600052602160045260246000fd5b1415612f2d576040518060600160405280603981526020016159f4603991399050612f49565b6040518060600160405280603b8152602001615f87603b913990505b5b5b8092505050919050565b606060098281548110612f91577f4e487b7100000000000000000000000000000000000000000000000000000000600052603260045260246000fd5b906000526020600020906007020160010160010160009054906101000a900460ff16612ff2576040518060400160405280601081526020017f3c6720636c6173733d276461726b273e00000000000000000000000000000000815250613029565b6040518060400160405280601181526020017f3c6720636c6173733d276c69676874273e0000000000000000000000000000008152505b60098381548110613063577f4e487b7100000000000000000000000000000000000000000000000000000000600052603260045260246000fd5b906000526020600020906007020160050160009054906101000a900460ff166130a4576040518060a0016040528060678152602001615ea9606791396130be565b6040518060a00160405280606a8152602001615366606a91395b6040518060a00160405280606181526020016153056061913960098581548110613111577f4e487b7100000000000000000000000000000000000000000000000000000000600052603260045260246000fd5b90600052602060002090600702016006016040518060400160405280600781526020017f3c2f746578743e000000000000000000000000000000000000000000000000008152506040518060a0016040528060758152602001615a2d6075913960405160200161318696959493929190614192565b6040516020818303038152906040529050919050565b60006131bd8473ffffffffffffffffffffffffffffffffffffffff166136d7565b15613326578373ffffffffffffffffffffffffffffffffffffffff1663150b7a026131e66112e3565b8786866040518563ffffffff1660e01b81526004016132089493929190614315565b602060405180830381600087803b15801561322257600080fd5b505af192505050801561325357506040513d601f19601f820116820180604052508101906132509190613ab2565b60015b6132d6573d8060008114613283576040519150601f19603f3d011682016040523d82523d6000602084013e613288565b606091505b506000815114156132ce576040517f08c379a00000000000000000000000000000000000000000000000000000000081526004016132c59061445a565b60405180910390fd5b805181602001fd5b63150b7a0260e01b7bffffffffffffffffffffffffffffffffffffffffffffffffffffffff1916817bffffffffffffffffffffffffffffffffffffffffffffffffffffffff19161491505061332b565b600190505b949350505050565b6060600082141561337b576040518060400160405280600181526020017f300000000000000000000000000000000000000000000000000000000000000081525090506134db565b600082905060005b600082146133ad57808061339690614ac9565b915050600a826133a6919061484f565b9150613383565b60008167ffffffffffffffff8111156133ef577f4e487b7100000000000000000000000000000000000000000000000000000000600052604160045260246000fd5b6040519080825280601f01601f1916602001820160405280156134215781602001600182028036833780820191505090505b5090505b600085146134d45760018261343a91906148da565b9150600a856134499190614b1c565b603061345591906147c8565b60f81b818381518110613491577f4e487b7100000000000000000000000000000000000000000000000000000000600052603260045260246000fd5b60200101907effffffffffffffffffffffffffffffffffffffffffffffffffffffffffffff1916908160001a905350600a856134cd919061484f565b9450613425565b8093505050505b919050565b60008151905060006a636f6e736f6c652e6c6f679050602083016000808483855afa5050505050565b600073ffffffffffffffffffffffffffffffffffffffff168273ffffffffffffffffffffffffffffffffffffffff161415613579576040517f08c379a00000000000000000000000000000000000000000000000000000000081526004016135709061457a565b60405180910390fd5b61358281611277565b156135c2576040517f08c379a00000000000000000000000000000000000000000000000000000000081526004016135b99061447a565b60405180910390fd5b6135ce60008383612266565b6001600360008473ffffffffffffffffffffffffffffffffffffffff1673ffffffffffffffffffffffffffffffffffffffff168152602001908152602001600020600082825461361e91906147c8565b92505081905550816002600083815260200190815260200160002060006101000a81548173ffffffffffffffffffffffffffffffffffffffff021916908373ffffffffffffffffffffffffffffffffffffffff160217905550808273ffffffffffffffffffffffffffffffffffffffff16600073ffffffffffffffffffffffffffffffffffffffff167fddf252ad1be2c89b69c2b068fc378daa952ba7f163c4a11628f55a4df523b3ef60405160405180910390a45050565b600080823b905060008111915050919050565b8280546136f690614a66565b90600052602060002090601f016020900481019282613718576000855561375f565b82601f1061373157805160ff191683800117855561375f565b8280016001018555821561375f579182015b8281111561375e578251825591602001919060010190613743565b5b50905061376c919061378c565b5090565b6040518060400160405280606081526020016000151581525090565b5b808211156137a557600081600090555060010161378d565b5090565b60006137bc6137b7846146ba565b614695565b9050828152602081018484840111156137d457600080fd5b6137df848285614a24565b509392505050565b60006137fa6137f5846146eb565b614695565b90508281526020810184848401111561381257600080fd5b61381d848285614a24565b509392505050565b600081359050613834816152a8565b92915050565b600081359050613849816152bf565b92915050565b60008135905061385e816152d6565b92915050565b600081519050613873816152d6565b92915050565b600082601f83011261388a57600080fd5b813561389a8482602086016137a9565b91505092915050565b600082601f8301126138b457600080fd5b81356138c48482602086016137e7565b91505092915050565b6000813590506138dc816152ed565b92915050565b6000602082840312156138f457600080fd5b600061390284828501613825565b91505092915050565b6000806040838503121561391e57600080fd5b600061392c85828601613825565b925050602061393d85828601613825565b9150509250929050565b60008060006060848603121561395c57600080fd5b600061396a86828701613825565b935050602061397b86828701613825565b925050604061398c868287016138cd565b9150509250925092565b600080600080608085870312156139ac57600080fd5b60006139ba87828801613825565b94505060206139cb87828801613825565b93505060406139dc878288016138cd565b925050606085013567ffffffffffffffff8111156139f957600080fd5b613a0587828801613879565b91505092959194509250565b60008060408385031215613a2457600080fd5b6000613a3285828601613825565b9250506020613a438582860161383a565b9150509250929050565b60008060408385031215613a6057600080fd5b6000613a6e85828601613825565b9250506020613a7f858286016138cd565b9150509250929050565b600060208284031215613a9b57600080fd5b6000613aa98482850161384f565b91505092915050565b600060208284031215613ac457600080fd5b6000613ad284828501613864565b91505092915050565b600060208284031215613aed57600080fd5b600082013567ffffffffffffffff811115613b0757600080fd5b613b13848285016138a3565b91505092915050565b600060208284031215613b2e57600080fd5b6000613b3c848285016138cd565b91505092915050565b613b4e8161490e565b82525050565b613b5d81614920565b82525050565b613b6c81614920565b82525050565b6000613b7d82614731565b613b878185614747565b9350613b97818560208601614a33565b613ba081614c38565b840191505092915050565b6000613bb682614731565b613bc08185614758565b9350613bd0818560208601614a33565b80840191505092915050565b613be5816149dc565b82525050565b613bf4816149ee565b82525050565b613c0381614a00565b82525050565b613c1281614a12565b82525050565b6000613c238261473c565b613c2d8185614763565b9350613c3d818560208601614a33565b613c4681614c38565b840191505092915050565b6000613c5c8261473c565b613c668185614774565b9350613c76818560208601614a33565b613c7f81614c38565b840191505092915050565b6000613c958261473c565b613c9f8185614785565b9350613caf818560208601614a33565b80840191505092915050565b60008154613cc881614a66565b613cd28186614785565b94506001821660008114613ced5760018114613cfe57613d31565b60ff19831686528186019350613d31565b613d078561471c565b60005b83811015613d2957815481890152600182019150602081019050613d0a565b838801955050505b50505092915050565b6000613d47603283614774565b9150613d5282614c49565b604082019050919050565b6000613d6a601c83614774565b9150613d7582614c98565b602082019050919050565b6000613d8d600583614785565b9150613d9882614cc1565b600582019050919050565b6000613db0602483614774565b9150613dbb82614cea565b604082019050919050565b6000613dd3601983614774565b9150613dde82614d39565b602082019050919050565b6000613df6602c83614774565b9150613e0182614d62565b604082019050919050565b6000613e19603883614774565b9150613e2482614db1565b604082019050919050565b6000613e3c602a83614774565b9150613e4782614e00565b604082019050919050565b6000613e5f602983614774565b9150613e6a82614e4f565b604082019050919050565b6000613e82602e83614774565b9150613e8d82614e9e565b604082019050919050565b6000613ea5600283614785565b9150613eb082614eed565b600282019050919050565b6000613ec8602083614774565b9150613ed382614f16565b602082019050919050565b6000613eeb603183614774565b9150613ef682614f3f565b604082019050919050565b6000613f0e602c83614774565b9150613f1982614f8e565b604082019050919050565b6000613f31602983614774565b9150613f3c82614fdd565b604082019050919050565b6000613f54602f83614774565b9150613f5f8261502c565b604082019050919050565b6000613f77600483614785565b9150613f828261507b565b600482019050919050565b6000613f9a602183614774565b9150613fa5826150a4565b604082019050919050565b6000613fbd601d83614785565b9150613fc8826150f3565b601d82019050919050565b6000613fe0603183614774565b9150613feb8261511c565b604082019050919050565b6000614003608083614785565b915061400e8261516b565b608082019050919050565b6000614026600683614785565b915061403182615206565b600682019050919050565b6000614049601983614774565b91506140548261522f565b602082019050919050565b6000604083016000830151848203600086015261407c8282613c18565b91505060208301516140916020860182613b54565b508091505092915050565b6140a5816149d2565b82525050565b6140bc6140b7826149d2565b614b12565b82525050565b60006140ce8285613c8a565b91506140da8284613c8a565b91508190509392505050565b60006140f28286613c8a565b91506140fe8285613c8a565b915061410a8284613c8a565b9150819050949350505050565b6000614123828a613c8a565b915061412f8289613c8a565b915061413b8288613c8a565b91506141478287613c8a565b91506141538286613c8a565b915061415e82613d80565b915061416a8285613c8a565b91506141768284613bab565b915061418182614019565b915081905098975050505050505050565b600061419e8289613c8a565b91506141aa8288613c8a565b91506141b68287613c8a565b91506141c28286613cbb565b91506141ce8285613c8a565b91506141da8284613c8a565b9150819050979650505050505050565b60006141f68286613c8a565b91506142028285613c8a565b915061420e8284613c8a565b915061421982613f6a565b9150819050949350505050565b60006142328285613cbb565b915061423e8284613c8a565b91508190509392505050565b600061425582613fb0565b91506142618284613c8a565b915081905092915050565b600061427782613ff6565b91506142838284613c8a565b915061428e82613e98565b915081905092915050565b60006142a582856140ab565b6020820191506142b58284613c8a565b91508190509392505050565b60006142cd82866140ab565b6020820191506142dd82856140ab565b6020820191506142ed8284613c8a565b9150819050949350505050565b600060208201905061430f6000830184613b45565b92915050565b600060808201905061432a6000830187613b45565b6143376020830186613b45565b614344604083018561409c565b81810360608301526143568184613b72565b905095945050505050565b60006040820190506143766000830185613b45565b614383602083018461409c565b9392505050565b600060208201905061439f6000830184613b63565b92915050565b6000610100820190506143bb600083018b613beb565b6143c8602083018a613c09565b6143d56040830189613bfa565b6143e26060830188613bdc565b81810360808301526143f4818761405f565b905081810360a0830152614408818661405f565b905061441760c0830185613b63565b81810360e08301526144298184613c51565b90509998505050505050505050565b600060208201905081810360008301526144528184613c51565b905092915050565b6000602082019050818103600083015261447381613d3a565b9050919050565b6000602082019050818103600083015261449381613d5d565b9050919050565b600060208201905081810360008301526144b381613da3565b9050919050565b600060208201905081810360008301526144d381613dc6565b9050919050565b600060208201905081810360008301526144f381613de9565b9050919050565b6000602082019050818103600083015261451381613e0c565b9050919050565b6000602082019050818103600083015261453381613e2f565b9050919050565b6000602082019050818103600083015261455381613e52565b9050919050565b6000602082019050818103600083015261457381613e75565b9050919050565b6000602082019050818103600083015261459381613ebb565b9050919050565b600060208201905081810360008301526145b381613ede565b9050919050565b600060208201905081810360008301526145d381613f01565b9050919050565b600060208201905081810360008301526145f381613f24565b9050919050565b6000602082019050818103600083015261461381613f47565b9050919050565b6000602082019050818103600083015261463381613f8d565b9050919050565b6000602082019050818103600083015261465381613fd3565b9050919050565b600060208201905081810360008301526146738161403c565b9050919050565b600060208201905061468f600083018461409c565b92915050565b600061469f6146b0565b90506146ab8282614a98565b919050565b6000604051905090565b600067ffffffffffffffff8211156146d5576146d4614c09565b5b6146de82614c38565b9050602081019050919050565b600067ffffffffffffffff82111561470657614705614c09565b5b61470f82614c38565b9050602081019050919050565b60008190508160005260206000209050919050565b600081519050919050565b600081519050919050565b600082825260208201905092915050565b600081905092915050565b600082825260208201905092915050565b600082825260208201905092915050565b600081905092915050565b600061479b826149a4565b91506147a6836149a4565b92508261ffff038211156147bd576147bc614b4d565b5b828201905092915050565b60006147d3826149d2565b91506147de836149d2565b9250827fffffffffffffffffffffffffffffffffffffffffffffffffffffffffffffffff0382111561481357614812614b4d565b5b828201905092915050565b6000614829826149a4565b9150614834836149a4565b92508261484457614843614b7c565b5b828204905092915050565b600061485a826149d2565b9150614865836149d2565b92508261487557614874614b7c565b5b828204905092915050565b600061488b826149d2565b9150614896836149d2565b9250817fffffffffffffffffffffffffffffffffffffffffffffffffffffffffffffffff04831182151516156148cf576148ce614b4d565b5b828202905092915050565b60006148e5826149d2565b91506148f0836149d2565b92508282101561490357614902614b4d565b5b828203905092915050565b6000614919826149b2565b9050919050565b60008115159050919050565b60007fffffffff0000000000000000000000000000000000000000000000000000000082169050919050565b600081905061496682615258565b919050565b60008190506149798261526c565b919050565b600081905061498c82615280565b919050565b600081905061499f82615294565b919050565b600061ffff82169050919050565b600073ffffffffffffffffffffffffffffffffffffffff82169050919050565b6000819050919050565b60006149e782614958565b9050919050565b60006149f98261496b565b9050919050565b6000614a0b8261497e565b9050919050565b6000614a1d82614991565b9050919050565b82818337600083830152505050565b60005b83811015614a51578082015181840152602081019050614a36565b83811115614a60576000848401525b50505050565b60006002820490506001821680614a7e57607f821691505b60208210811415614a9257614a91614bda565b5b50919050565b614aa182614c38565b810181811067ffffffffffffffff82111715614ac057614abf614c09565b5b80604052505050565b6000614ad4826149d2565b91507fffffffffffffffffffffffffffffffffffffffffffffffffffffffffffffffff821415614b0757614b06614b4d565b5b600182019050919050565b6000819050919050565b6000614b27826149d2565b9150614b32836149d2565b925082614b4257614b41614b7c565b5b828206905092915050565b7f4e487b7100000000000000000000000000000000000000000000000000000000600052601160045260246000fd5b7f4e487b7100000000000000000000000000000000000000000000000000000000600052601260045260246000fd5b7f4e487b7100000000000000000000000000000000000000000000000000000000600052602160045260246000fd5b7f4e487b7100000000000000000000000000000000000000000000000000000000600052602260045260246000fd5b7f4e487b7100000000000000000000000000000000000000000000000000000000600052604160045260246000fd5b6000601f19601f8301169050919050565b7f4552433732313a207472616e7366657220746f206e6f6e20455243373231526560008201527f63656976657220696d706c656d656e7465720000000000000000000000000000602082015250565b7f4552433732313a20746f6b656e20616c7265616479206d696e74656400000000600082015250565b7f3c2f673e20000000000000000000000000000000000000000000000000000000600082015250565b7f4552433732313a207472616e7366657220746f20746865207a65726f2061646460008201527f7265737300000000000000000000000000000000000000000000000000000000602082015250565b7f4552433732313a20617070726f766520746f2063616c6c657200000000000000600082015250565b7f4552433732313a206f70657261746f7220717565727920666f72206e6f6e657860008201527f697374656e7420746f6b656e0000000000000000000000000000000000000000602082015250565b7f4552433732313a20617070726f76652063616c6c6572206973206e6f74206f7760008201527f6e6572206e6f7220617070726f76656420666f7220616c6c0000000000000000602082015250565b7f4552433732313a2062616c616e636520717565727920666f7220746865207a6560008201527f726f206164647265737300000000000000000000000000000000000000000000602082015250565b7f4552433732313a206f776e657220717565727920666f72206e6f6e657869737460008201527f656e7420746f6b656e0000000000000000000000000000000000000000000000602082015250565b7f45524337323155524953746f726167653a2055524920736574206f66206e6f6e60008201527f6578697374656e7420746f6b656e000000000000000000000000000000000000602082015250565b7f227d000000000000000000000000000000000000000000000000000000000000600082015250565b7f4552433732313a206d696e7420746f20746865207a65726f2061646472657373600082015250565b7f45524337323155524953746f726167653a2055524920717565727920666f722060008201527f6e6f6e6578697374656e7420746f6b656e000000000000000000000000000000602082015250565b7f4552433732313a20617070726f76656420717565727920666f72206e6f6e657860008201527f697374656e7420746f6b656e0000000000000000000000000000000000000000602082015250565b7f4552433732313a207472616e73666572206f6620746f6b656e2074686174206960008201527f73206e6f74206f776e0000000000000000000000000000000000000000000000602082015250565b7f4552433732314d657461646174613a2055524920717565727920666f72206e6f60008201527f6e6578697374656e7420746f6b656e0000000000000000000000000000000000602082015250565b7f3c2f673e00000000000000000000000000000000000000000000000000000000600082015250565b7f4552433732313a20617070726f76616c20746f2063757272656e74206f776e6560008201527f7200000000000000000000000000000000000000000000000000000000000000602082015250565b7f646174613a6170706c69636174696f6e2f6a736f6e3b6261736536342c000000600082015250565b7f4552433732313a207472616e736665722063616c6c6572206973206e6f74206f60008201527f776e6572206e6f7220617070726f766564000000000000000000000000000000602082015250565b7f7b226e616d65223a20224120737469636b2066696775726520646576656c6f7060008201527f6572222c226465736372697074696f6e223a202241207768696d736963616c2060208201527f636f6c6c656374696f6e206f6620646576656c6f706572732e222c2022696d6160408201527f6765223a2022646174613a696d6167652f7376672b786d6c3b6261736536342c606082015250565b7f3c2f7376673e0000000000000000000000000000000000000000000000000000600082015250565b7f616c6c204e4654732068617665206265656e206d696e74656400000000000000600082015250565b6004811061526957615268614bab565b5b50565b6006811061527d5761527c614bab565b5b50565b6004811061529157615290614bab565b5b50565b600281106152a5576152a4614bab565b5b50565b6152b18161490e565b81146152bc57600080fd5b50565b6152c881614920565b81146152d357600080fd5b50565b6152df8161492c565b81146152ea57600080fd5b50565b6152f6816149d2565b811461530157600080fd5b5056fe3c7465787420636c6173733d276c6574746572696e67206c616e67747970652720783d273439252720793d273532252720646f6d696e616e742d626173656c696e653d276d6964646c652720746578742d616e63686f723d276d6964646c65273e3c7465787420636c6173733d276c6574746572696e6720646576747970652720783d273439252720793d273437252720646f6d696e616e742d626173656c696e653d276d6964646c652720746578742d616e63686f723d276d6964646c65273e3130783c2f746578743e203c7061746820636c6173733d2773686972742720643d274d3530302c3430305635353048333030563430306c2d37352c3530563337356c37352d35306832357332352c32352c37352c32352c37352d32352c37352d32356832356c37352c35307637355a27207472616e73666f726d3d277472616e736c617465282d313735202d323529272066696c6c3d273c7061746820636c6173733d276d6f7574682720643d274d3430302c323734632d33392e35372c302d36332e35342d33322e322d37312e33312d34342e3633433333382c3233362e33382c3336312e39312c3235312c3430302c3235316332362c302c34352e322d362e38352c35362e372d31322e36316139322e32322c39322e32322c302c302c302c31342e35362d382e3934433436332e34332c3234322c3433392e34382c3237342c3430302c3237345a27207472616e73666f726d3d277472616e736c617465282d3137342e3638202d323529272f3e3c7061746820643d274d3436372e35362c3233332e33613131322e33392c3131322e33392c302c302c312d31322e38312c31352e3337433434332e36322c3235392e37372c3432352e312c3237332c3430302c323733732d34332e36322d31332e32332d35342e37352d32342e3333613131322e33392c3131322e33392c302c302c312d31322e38312d31352e33372c39392e33342c39392e33342c302c302c302c31302e34322c366332312c31302e352c34322e36372c31322e37312c35372e31342c31322e37312c32362e32322c302c34352e35352d362e39312c35372e31342d31322e37316139392e33342c39392e33342c302c302c302c31302e34322d364d3437352c323235732d32352c32352d37352c32352d37352d32352d37352d32352c32352c35302c37352c35302c37352d35302c37352d35305a27207472616e73666f726d3d277472616e736c617465282d313735202d323529272f3e3c636972636c6520636c6173733d27707570696c73272063783d27313630272063793d273130302720723d273132272f3e3c636972636c6520636c6173733d27707570696c73272063783d27323930272063793d273130302720723d273132272f3e3c2f673e656e64206f662067656e657261746552616e646f6d446576656c6f7065722e2e2e3c73766720786d6c6e733d27687474703a2f2f7777772e77332e6f72672f323030302f737667272076696577426f783d272d38202d382034363020373630273e203c646566733e203c7374796c653e202a207b207374726f6b653a20233030303b207374726f6b652d6d697465726c696d69743a2031303b207374726f6b652d77696474683a203270783b207d202e6c6574746572696e67207b207374726f6b652d77696474683a303b207d202e626f6479207b2066696c6c3a206e6f6e653b207d202e666163652c2e626f6479206c696e65207b207374726f6b652d77696474683a3370783b207d202e666163652c202e6e6f73652c202e776869746573207b2066696c6c3a20236666663b207d202e6d6f757468207b2066696c6c3a20236666663b207374726f6b652d77696474683a3370783b207d202e64657674797065207b20666f6e743a20626f6c642033347078206d6f6e6f73706163653b207d202e6c616e6774797065207b20666f6e743a20626f6c6420333470782073616e732d73657269663b207d202e707570696c737b66696c6c3a233030303b7d2e6c696768747b66696c6c3a236666663b7d2e6461726b7b66696c6c3a233030303b7d3c2f7374796c653e203c2f646566733e203c6720636c6173733d27626f6479273e203c6c696e652078313d27323235272079313d27333235272078323d27343530272079323d2734303027202f3e203c6c696e652078313d27323235272079313d27333235272078323d2730272079323d2734303027202f3e203c6c696e652078313d27323235272079313d27333030272078323d27323235272079323d2735353027202f3e203c6c696e652078313d27323235272079313d27353530272078323d27313530272079323d2737353027202f3e203c6c696e652078313d27323235272079313d27353530272078323d27333030272079323d2737353027202f3e3c2f673e3c6720636c6173733d27636c6f74686573273e3c6c696e6520636c6173733d276d6f757468272078313d27313530272079313d27323235272078323d27333030272079323d27323235272f3e3c7465787420636c6173733d276c6574746572696e67206c616e67747970652720783d273439252720793d273537252720646f6d696e616e742d626173656c696e653d276d6964646c652720746578742d616e63686f723d276d6964646c65273e446576656c6f7065723c2f746578743e3c2f673e4142434445464748494a4b4c4d4e4f505152535455565758595a6162636465666768696a6b6c6d6e6f707172737475767778797a303132333435363738392b2f3c6720636c6173733d2768656164273e203c636972636c6520636c6173733d2766616365272063783d27323235272063793d273135302720723d2731353027202f3e3c706f6c796c696e6520636c6173733d276e6f73652720706f696e74733d273232352031323520323530203135302032323520313530272f3e3c6720636c6173733d2765796573273e203c656c6c6970736520636c6173733d27776869746573272063783d27313630272063793d27313030272072783d273330272072793d27323027202f3e203c656c6c6970736520636c6173733d27776869746573272063783d27323930272063793d27313030272072783d273330272072793d27323027202f3e3c636972636c6520636c6173733d27707570696c73272063783d27313630272063793d273130302720723d2736272f3e3c636972636c6520636c6173733d27707570696c73272063783d27323930272063793d273130302720723d2736272f3e3c2f673e3c706f6c796c696e6520636c6173733d27626f74746f6d2073686f7274732720706f696e74733d273332352036373520333235203532352031323520353235203132352035323520313235203637352032303020363735203232352036303020323530203637352033323520363735272066696c6c3d273c7061746820636c6173733d276d6f7574682720643d274d3430302c3232376332352e312c302c34332e36322c31332e32332c35342e37352c32342e3333613131322e33392c3131322e33392c302c302c312c31322e38312c31352e33372c39392e33342c39392e33342c302c302c302d31302e34322d36433433362e31332c3235302e32312c3431342e34372c3234382c3430302c323438632d32362e32322c302d34352e35352c362e39312d35372e31342c31322e37316139392e33342c39392e33342c302c302c302d31302e34322c362c3131322e33392c3131322e33392c302c302c312c31322e38312d31352e3337433335362e33382c3234302e32332c3337342e392c3232372c3430302c3232376d302d32632d35302c302d37352c35302d37352c35307332352d32352c37352d32352c37352c32352c37352c32352d32352d35302d37352d35305a27207472616e73666f726d3d277472616e736c617465282d313735202d323529272f3e3c706f6c796c696e6520636c6173733d27626f74746f6d2070616e74732720706f696e74733d273332352037323520333235203532352031323520353235203132352035323520313235203732352032303020373235203232352036303020323530203732352033323520373235272066696c6c3d273c7465787420636c6173733d276c6574746572696e6720646576747970652720783d273439252720793d273437252720646f6d696e616e742d626173656c696e653d276d6964646c652720746578742d616e63686f723d276d6964646c65273e3c2f746578743e3c706f6c796c696e6520636c6173733d27626f74746f6d20736b6972742720706f696e74733d27333235203637352033323520353235203132352035323520313235203532352031323520363735203230302036373520323235203637352032353020363735203332352036373527202066696c6c3d273c656c6c6970736520636c6173733d276d6f757468272063783d27323235272063793d27323235272072783d273530272072793d27353027202f3ea264697066735822122033807235c720b4790d3835a3bfd4cf4662d887d3d6353f7fee61a1e85af9517064736f6c634300080400333c672066696c6c3d2723373536643065273e3c636972636c6520636c6173733d2769726973272063783d27313630272063793d273130302720723d27313627202f3e3c636972636c6520636c6173733d2769726973272063783d27323930272063793d273130302720723d27313627202f3e3c2f673e3c672066696c6c3d2723353233613238273e3c636972636c6520636c6173733d2769726973272063783d27313630272063793d273130302720723d27313627202f3e3c636972636c6520636c6173733d2769726973272063783d27323930272063793d273130302720723d27313627202f3e3c2f673e3c672066696c6c3d2723303837326533273e3c636972636c6520636c6173733d2769726973272063783d27313630272063793d273130302720723d27313627202f3e3c636972636c6520636c6173733d2769726973272063783d27323930272063793d273130302720723d27313627202f3e3c2f673e3c672066696c6c3d2723393639363936273e3c636972636c6520636c6173733d2769726973272063783d27313630272063793d273130302720723d27313627202f3e3c636972636c6520636c6173733d2769726973272063783d27323930272063793d273130302720723d27313627202f3e3c2f673e3c672066696c6c3d2723306237353161273e3c636972636c6520636c6173733d2769726973272063783d27313630272063793d273130302720723d27313627202f3e3c636972636c6520636c6173733d2769726973272063783d27323930272063793d273130302720723d27313627202f3e3c2f673e3c672066696c6c3d2723386234353133273e3c636972636c6520636c6173733d2769726973272063783d27313630272063793d273130302720723d27313627202f3e3c636972636c6520636c6173733d2769726973272063783d27323930272063793d273130302720723d27313627202f3e3c2f673e",
  "linkReferences": {},
  "deployedLinkReferences": {}
}