{
  "_format": "hh-sol-artifact-1",
  "contractName": "StickFigureDevelopersNFT",
  "sourceName": "contracts/StickFigureDevelopersNFT.sol",
  "abi": [
    {
      "anonymous": false,
      "inputs": [
        {
          "indexed": true,
          "internalType": "address",
          "name": "owner",
          "type": "address"
        },
        {
          "indexed": true,
          "internalType": "address",
          "name": "approved",
          "type": "address"
        },
        {
          "indexed": true,
          "internalType": "uint256",
          "name": "tokenId",
          "type": "uint256"
        }
      ],
      "name": "Approval",
      "type": "event"
    },
    {
      "anonymous": false,
      "inputs": [
        {
          "indexed": true,
          "internalType": "address",
          "name": "owner",
          "type": "address"
        },
        {
          "indexed": true,
          "internalType": "address",
          "name": "operator",
          "type": "address"
        },
        {
          "indexed": false,
          "internalType": "bool",
          "name": "approved",
          "type": "bool"
        }
      ],
      "name": "ApprovalForAll",
      "type": "event"
    },
    {
      "anonymous": false,
      "inputs": [
        {
          "indexed": false,
          "internalType": "address",
          "name": "sender",
          "type": "address"
        },
        {
          "indexed": false,
          "internalType": "uint256",
          "name": "tokenId",
          "type": "uint256"
        }
      ],
      "name": "NewDeveloper",
      "type": "event"
    },
    {
      "anonymous": false,
      "inputs": [
        {
          "indexed": true,
          "internalType": "address",
          "name": "from",
          "type": "address"
        },
        {
          "indexed": true,
          "internalType": "address",
          "name": "to",
          "type": "address"
        },
        {
          "indexed": true,
          "internalType": "uint256",
          "name": "tokenId",
          "type": "uint256"
        }
      ],
      "name": "Transfer",
      "type": "event"
    },
    {
      "inputs": [
        {
          "internalType": "address",
          "name": "to",
          "type": "address"
        },
        {
          "internalType": "uint256",
          "name": "tokenId",
          "type": "uint256"
        }
      ],
      "name": "approve",
      "outputs": [],
      "stateMutability": "nonpayable",
      "type": "function"
    },
    {
      "inputs": [
        {
          "internalType": "address",
          "name": "owner",
          "type": "address"
        }
      ],
      "name": "balanceOf",
      "outputs": [
        {
          "internalType": "uint256",
          "name": "",
          "type": "uint256"
        }
      ],
      "stateMutability": "view",
      "type": "function"
    },
    {
      "inputs": [],
      "name": "createDeveloper",
      "outputs": [],
      "stateMutability": "nonpayable",
      "type": "function"
    },
    {
      "inputs": [
        {
          "internalType": "uint256",
          "name": "",
          "type": "uint256"
        }
      ],
      "name": "devToOwner",
      "outputs": [
        {
          "internalType": "address",
          "name": "",
          "type": "address"
        }
      ],
      "stateMutability": "view",
      "type": "function"
    },
    {
      "inputs": [
        {
          "internalType": "uint256",
          "name": "",
          "type": "uint256"
        }
      ],
      "name": "developers",
      "outputs": [
        {
          "internalType": "enum StickFigureDeveloper.Iris",
          "name": "eyeColor",
          "type": "uint8"
        },
        {
          "internalType": "enum StickFigureDeveloper.Pupils",
          "name": "pupilSize",
          "type": "uint8"
        },
        {
          "internalType": "enum StickFigureDeveloper.Mouths",
          "name": "expression",
          "type": "uint8"
        },
        {
          "internalType": "enum StickFigureDeveloper.Clothes",
          "name": "clothesType",
          "type": "uint8"
        },
        {
          "components": [
            {
              "internalType": "string",
              "name": "rgbColor",
              "type": "string"
            },
            {
              "internalType": "bool",
              "name": "isDark",
              "type": "bool"
            }
          ],
          "internalType": "struct HexColorHelper.HexColor",
          "name": "shirtColor",
          "type": "tuple"
        },
        {
          "components": [
            {
              "internalType": "string",
              "name": "rgbColor",
              "type": "string"
            },
            {
              "internalType": "bool",
              "name": "isDark",
              "type": "bool"
            }
          ],
          "internalType": "struct HexColorHelper.HexColor",
          "name": "bottomColor",
          "type": "tuple"
        },
        {
          "internalType": "bool",
          "name": "is10x",
          "type": "bool"
        },
        {
          "internalType": "string",
          "name": "language",
          "type": "string"
        }
      ],
      "stateMutability": "view",
      "type": "function"
    },
    {
      "inputs": [
        {
          "internalType": "uint256",
          "name": "tokenId",
          "type": "uint256"
        }
      ],
      "name": "getApproved",
      "outputs": [
        {
          "internalType": "address",
          "name": "",
          "type": "address"
        }
      ],
      "stateMutability": "view",
      "type": "function"
    },
    {
      "inputs": [
        {
          "internalType": "string",
          "name": "seed",
          "type": "string"
        }
      ],
      "name": "getRandomInt",
      "outputs": [
        {
          "internalType": "uint256",
          "name": "",
          "type": "uint256"
        }
      ],
      "stateMutability": "view",
      "type": "function"
    },
    {
      "inputs": [
        {
          "internalType": "address",
          "name": "owner",
          "type": "address"
        },
        {
          "internalType": "address",
          "name": "operator",
          "type": "address"
        }
      ],
      "name": "isApprovedForAll",
      "outputs": [
        {
          "internalType": "bool",
          "name": "",
          "type": "bool"
        }
      ],
      "stateMutability": "view",
      "type": "function"
    },
    {
      "inputs": [
        {
          "internalType": "uint256",
          "name": "",
          "type": "uint256"
        }
      ],
      "name": "languages",
      "outputs": [
        {
          "internalType": "string",
          "name": "",
          "type": "string"
        }
      ],
      "stateMutability": "view",
      "type": "function"
    },
    {
      "inputs": [],
      "name": "name",
      "outputs": [
        {
          "internalType": "string",
          "name": "",
          "type": "string"
        }
      ],
      "stateMutability": "view",
      "type": "function"
    },
    {
      "inputs": [
        {
          "internalType": "uint256",
          "name": "tokenId",
          "type": "uint256"
        }
      ],
      "name": "ownerOf",
      "outputs": [
        {
          "internalType": "address",
          "name": "",
          "type": "address"
        }
      ],
      "stateMutability": "view",
      "type": "function"
    },
    {
      "inputs": [
        {
          "internalType": "address",
          "name": "from",
          "type": "address"
        },
        {
          "internalType": "address",
          "name": "to",
          "type": "address"
        },
        {
          "internalType": "uint256",
          "name": "tokenId",
          "type": "uint256"
        }
      ],
      "name": "safeTransferFrom",
      "outputs": [],
      "stateMutability": "nonpayable",
      "type": "function"
    },
    {
      "inputs": [
        {
          "internalType": "address",
          "name": "from",
          "type": "address"
        },
        {
          "internalType": "address",
          "name": "to",
          "type": "address"
        },
        {
          "internalType": "uint256",
          "name": "tokenId",
          "type": "uint256"
        },
        {
          "internalType": "bytes",
          "name": "_data",
          "type": "bytes"
        }
      ],
      "name": "safeTransferFrom",
      "outputs": [],
      "stateMutability": "nonpayable",
      "type": "function"
    },
    {
      "inputs": [
        {
          "internalType": "address",
          "name": "operator",
          "type": "address"
        },
        {
          "internalType": "bool",
          "name": "approved",
          "type": "bool"
        }
      ],
      "name": "setApprovalForAll",
      "outputs": [],
      "stateMutability": "nonpayable",
      "type": "function"
    },
    {
      "inputs": [
        {
          "internalType": "bytes4",
          "name": "interfaceId",
          "type": "bytes4"
        }
      ],
      "name": "supportsInterface",
      "outputs": [
        {
          "internalType": "bool",
          "name": "",
          "type": "bool"
        }
      ],
      "stateMutability": "view",
      "type": "function"
    },
    {
      "inputs": [],
      "name": "symbol",
      "outputs": [
        {
          "internalType": "string",
          "name": "",
          "type": "string"
        }
      ],
      "stateMutability": "view",
      "type": "function"
    },
    {
      "inputs": [
        {
          "internalType": "uint256",
          "name": "tokenId",
          "type": "uint256"
        }
      ],
      "name": "tokenURI",
      "outputs": [
        {
          "internalType": "string",
          "name": "",
          "type": "string"
        }
      ],
      "stateMutability": "view",
      "type": "function"
    },
    {
      "inputs": [
        {
          "internalType": "address",
          "name": "from",
          "type": "address"
        },
        {
          "internalType": "address",
          "name": "to",
          "type": "address"
        },
        {
          "internalType": "uint256",
          "name": "tokenId",
          "type": "uint256"
        }
      ],
      "name": "transferFrom",
      "outputs": [],
      "stateMutability": "nonpayable",
      "type": "function"
    }
  ],
  "bytecode": "0x60806040526040518060c001604052806040518060a001604052806076815260200162006cf36076913981526020016040518060a001604052806076815260200162006f026076913981526020016040518060a001604052806076815260200162006c7d6076913981526020016040518060a001604052806076815260200162006e8c6076913981526020016040518060a001604052806076815260200162006e166076913981526020016040518060a001604052806076815260200162006da0607691398152506007906006620000d992919062000955565b50604051806103a001604052806040518060400160405280600381526020017f416461000000000000000000000000000000000000000000000000000000000081525081526020016040518060400160405280600581526020017f424153494300000000000000000000000000000000000000000000000000000081525081526020016040518060400160405280600181526020017f430000000000000000000000000000000000000000000000000000000000000081525081526020016040518060400160405280600281526020017f432300000000000000000000000000000000000000000000000000000000000081525081526020016040518060400160405280600381526020017f432b2b000000000000000000000000000000000000000000000000000000000081525081526020016040518060400160405280600781526020017f436c6f6a7572650000000000000000000000000000000000000000000000000081525081526020016040518060400160405280600581526020017f436f626f6c00000000000000000000000000000000000000000000000000000081525081526020016040518060400160405280600481526020017f446172740000000000000000000000000000000000000000000000000000000081525081526020016040518060400160405280600681526020017f45726c616e67000000000000000000000000000000000000000000000000000081525081526020016040518060400160405280600281526020017f476f00000000000000000000000000000000000000000000000000000000000081525081526020016040518060400160405280600781526020017f4861736b656c6c0000000000000000000000000000000000000000000000000081525081526020016040518060400160405280600481526020017f4a6176610000000000000000000000000000000000000000000000000000000081525081526020016040518060400160405280600a81526020017f4a6176615363726970740000000000000000000000000000000000000000000081525081526020016040518060400160405280600581526020017f4a756c696100000000000000000000000000000000000000000000000000000081525081526020016040518060400160405280600681526020017f4b6f746c696e000000000000000000000000000000000000000000000000000081525081526020016040518060400160405280600381526020017f4c7561000000000000000000000000000000000000000000000000000000000081525081526020016040518060400160405280600581526020017f4f43616d6c00000000000000000000000000000000000000000000000000000081525081526020016040518060400160405280600b81526020017f4f626a6563746976652d4300000000000000000000000000000000000000000081525081526020016040518060400160405280600381526020017f504850000000000000000000000000000000000000000000000000000000000081525081526020016040518060400160405280600681526020017f50617363616c000000000000000000000000000000000000000000000000000081525081526020016040518060400160405280600481526020017f5065726c0000000000000000000000000000000000000000000000000000000081525081526020016040518060400160405280600681526020017f507974686f6e000000000000000000000000000000000000000000000000000081525081526020016040518060400160405280600181526020017f520000000000000000000000000000000000000000000000000000000000000081525081526020016040518060400160405280600481526020017f527562790000000000000000000000000000000000000000000000000000000081525081526020016040518060400160405280600481526020017f527573740000000000000000000000000000000000000000000000000000000081525081526020016040518060400160405280600581526020017f5363616c6100000000000000000000000000000000000000000000000000000081525081526020016040518060400160405280600881526020017f536f6c696469747900000000000000000000000000000000000000000000000081525081526020016040518060400160405280600581526020017f537769667400000000000000000000000000000000000000000000000000000081525081526020016040518060400160405280600a81526020017f5479706553637269707400000000000000000000000000000000000000000000815250815250600890601d620007a5929190620009bc565b50348015620007b357600080fd5b506040518060400160405280601c81526020017f537469636b2046696775726520446576656c6f706572732074657374000000008152506040518060400160405280600881526020017f535449434b46494700000000000000000000000000000000000000000000000081525081600090805190602001906200083892919062000a23565b5080600190805190602001906200085192919062000a23565b5050506200088360405180606001604052806037815260200162006d69603791396200088960201b620011c11760201c565b62000c6e565b6200092981604051602401620008a0919062000b82565b6040516020818303038152906040527f41304fac000000000000000000000000000000000000000000000000000000007bffffffffffffffffffffffffffffffffffffffffffffffffffffffff19166020820180517bffffffffffffffffffffffffffffffffffffffffffffffffffffffff83818316178352505050506200092c60201b60201c565b50565b60008151905060006a636f6e736f6c652e6c6f679050602083016000808483855afa5050505050565b828054828255906000526020600020908101928215620009a9579160200282015b82811115620009a85782518290805190602001906200099792919062000a23565b509160200191906001019062000976565b5b509050620009b8919062000ab4565b5090565b82805482825590600052602060002090810192821562000a10579160200282015b8281111562000a0f578251829080519060200190620009fe92919062000a23565b5091602001919060010190620009dd565b5b50905062000a1f919062000ab4565b5090565b82805462000a319062000bf8565b90600052602060002090601f01602090048101928262000a55576000855562000aa1565b82601f1062000a7057805160ff191683800117855562000aa1565b8280016001018555821562000aa1579182015b8281111562000aa057825182559160200191906001019062000a83565b5b50905062000ab0919062000adc565b5090565b5b8082111562000ad8576000818162000ace919062000afb565b5060010162000ab5565b5090565b5b8082111562000af757600081600090555060010162000add565b5090565b50805462000b099062000bf8565b6000825580601f1062000b1d575062000b3e565b601f01602090049060005260206000209081019062000b3d919062000adc565b5b50565b600062000b4e8262000ba6565b62000b5a818562000bb1565b935062000b6c81856020860162000bc2565b62000b778162000c5d565b840191505092915050565b6000602082019050818103600083015262000b9e818462000b41565b905092915050565b600081519050919050565b600082825260208201905092915050565b60005b8381101562000be257808201518184015260208101905062000bc5565b8381111562000bf2576000848401525b50505050565b6000600282049050600182168062000c1157607f821691505b6020821081141562000c285762000c2762000c2e565b5b50919050565b7f4e487b7100000000000000000000000000000000000000000000000000000000600052602260045260246000fd5b6000601f19601f8301169050919050565b615fff8062000c7e6000396000f3fe608060405234801561001057600080fd5b50600436106101165760003560e01c80636d3883f7116100a2578063b88d4fde11610071578063b88d4fde146102f1578063c87b56dd1461030d578063dc05990f1461033d578063e985e9c51461036d578063eff25cd61461039d57610116565b80636d3883f71461025757806370a082311461028757806395d89b41146102b7578063a22cb465146102d557610116565b806323b872dd116100e957806323b872dd146101b557806342842e0e146101d15780635ffb03c9146101ed5780636352211e1461021d578063644d39841461024d57610116565b806301ffc9a71461011b57806306fdde031461014b578063081812fc14610169578063095ea7b314610199575b600080fd5b61013560048036038101906101309190613abb565b6103d4565b6040516101429190614399565b60405180910390f35b6101536104b6565b6040516101609190614447565b60405180910390f35b610183600480360381019061017e9190613b4e565b610548565b6040516101909190614309565b60405180910390f35b6101b360048036038101906101ae9190613a7f565b6105cd565b005b6101cf60048036038101906101ca9190613979565b6106e5565b005b6101eb60048036038101906101e69190613979565b610745565b005b61020760048036038101906102029190613b4e565b610765565b6040516102149190614447565b60405180910390f35b61023760048036038101906102329190613b4e565b610811565b6040516102449190614309565b60405180910390f35b6102556108c3565b005b610271600480360381019061026c9190613b0d565b6109b7565b60405161027e91906146a7565b60405180910390f35b6102a1600480360381019061029c9190613914565b6109ec565b6040516102ae91906146a7565b60405180910390f35b6102bf610aa4565b6040516102cc9190614447565b60405180910390f35b6102ef60048036038101906102ea9190613a43565b610b36565b005b61030b600480360381019061030691906139c8565b610cb7565b005b61032760048036038101906103229190613b4e565b610d19565b6040516103349190614447565b60405180910390f35b61035760048036038101906103529190613b4e565b610e6b565b6040516103649190614309565b60405180910390f35b6103876004803603810190610382919061393d565b610e9e565b6040516103949190614399565b60405180910390f35b6103b760048036038101906103b29190613b4e565b610f32565b6040516103cb9897969594939291906143b4565b60405180910390f35b60007f80ac58cd000000000000000000000000000000000000000000000000000000007bffffffffffffffffffffffffffffffffffffffffffffffffffffffff1916827bffffffffffffffffffffffffffffffffffffffffffffffffffffffff1916148061049f57507f5b5e139f000000000000000000000000000000000000000000000000000000007bffffffffffffffffffffffffffffffffffffffffffffffffffffffff1916827bffffffffffffffffffffffffffffffffffffffffffffffffffffffff1916145b806104af57506104ae8261125a565b5b9050919050565b6060600080546104c590614a93565b80601f01602080910402602001604051908101604052809291908181526020018280546104f190614a93565b801561053e5780601f106105135761010080835404028352916020019161053e565b820191906000526020600020905b81548152906001019060200180831161052157829003601f168201915b5050505050905090565b6000610553826112c4565b610592576040517f08c379a000000000000000000000000000000000000000000000000000000000815260040161058990614607565b60405180910390fd5b6004600083815260200190815260200160002060009054906101000a900473ffffffffffffffffffffffffffffffffffffffff169050919050565b60006105d882610811565b90508073ffffffffffffffffffffffffffffffffffffffff168373ffffffffffffffffffffffffffffffffffffffff161415610649576040517f08c379a000000000000000000000000000000000000000000000000000000000815260040161064090614667565b60405180910390fd5b8073ffffffffffffffffffffffffffffffffffffffff16610668611330565b73ffffffffffffffffffffffffffffffffffffffff161480610697575061069681610691611330565b610e9e565b5b6106d6576040517f08c379a00000000000000000000000000000000000000000000000000000000081526004016106cd90614547565b60405180910390fd5b6106e08383611338565b505050565b6106f66106f0611330565b826113f1565b610735576040517f08c379a000000000000000000000000000000000000000000000000000000000815260040161072c90614687565b60405180910390fd5b6107408383836114cf565b505050565b61076083838360405180602001604052806000815250610cb7565b505050565b6008818154811061077557600080fd5b90600052602060002001600091509050805461079090614a93565b80601f01602080910402602001604051908101604052809291908181526020018280546107bc90614a93565b80156108095780601f106107de57610100808354040283529160200191610809565b820191906000526020600020905b8154815290600101906020018083116107ec57829003601f168201915b505050505081565b6000806002600084815260200190815260200160002060009054906101000a900473ffffffffffffffffffffffffffffffffffffffff169050600073ffffffffffffffffffffffffffffffffffffffff168173ffffffffffffffffffffffffffffffffffffffff1614156108ba576040517f08c379a00000000000000000000000000000000000000000000000000000000081526004016108b190614587565b60405180910390fd5b80915050919050565b60006108cf600c61172b565b90506108da81611739565b6108e933600980549050611e7f565b61094e60098054905061092a61090661090185611e9d565b611f30565b604051602001610916919061427b565b604051602081830303815290604052611f30565b60405160200161093a9190614259565b6040516020818303038152906040526120ee565b610958600c612162565b61097b6040518060600160405280602581526020016156ff602591398233612178565b7f71b909df09f7ac491501b9c09903085e5b1f46547051602530452bb557cb1e3533826040516109ac929190614370565b60405180910390a150565b600042826040516020016109cc9291906142a8565b6040516020818303038152906040528051906020012060001c9050919050565b60008073ffffffffffffffffffffffffffffffffffffffff168273ffffffffffffffffffffffffffffffffffffffff161415610a5d576040517f08c379a0000000000000000000000000000000000000000000000000000000008152600401610a5490614567565b60405180910390fd5b600360008373ffffffffffffffffffffffffffffffffffffffff1673ffffffffffffffffffffffffffffffffffffffff168152602001908152602001600020549050919050565b606060018054610ab390614a93565b80601f0160208091040260200160405190810160405280929190818152602001828054610adf90614a93565b8015610b2c5780601f10610b0157610100808354040283529160200191610b2c565b820191906000526020600020905b815481529060010190602001808311610b0f57829003601f168201915b5050505050905090565b610b3e611330565b73ffffffffffffffffffffffffffffffffffffffff168273ffffffffffffffffffffffffffffffffffffffff161415610bac576040517f08c379a0000000000000000000000000000000000000000000000000000000008152600401610ba390614507565b60405180910390fd5b8060056000610bb9611330565b73ffffffffffffffffffffffffffffffffffffffff1673ffffffffffffffffffffffffffffffffffffffff16815260200190815260200160002060008473ffffffffffffffffffffffffffffffffffffffff1673ffffffffffffffffffffffffffffffffffffffff16815260200190815260200160002060006101000a81548160ff0219169083151502179055508173ffffffffffffffffffffffffffffffffffffffff16610c66611330565b73ffffffffffffffffffffffffffffffffffffffff167f17307eab39ab6107e8899845ad3d59bd9653f200f220920489ca2b5937696c3183604051610cab9190614399565b60405180910390a35050565b610cc8610cc2611330565b836113f1565b610d07576040517f08c379a0000000000000000000000000000000000000000000000000000000008152600401610cfe90614687565b60405180910390fd5b610d1384848484612217565b50505050565b6060610d24826112c4565b610d63576040517f08c379a0000000000000000000000000000000000000000000000000000000008152600401610d5a906145e7565b60405180910390fd5b6000600660008481526020019081526020016000208054610d8390614a93565b80601f0160208091040260200160405190810160405280929190818152602001828054610daf90614a93565b8015610dfc5780601f10610dd157610100808354040283529160200191610dfc565b820191906000526020600020905b815481529060010190602001808311610ddf57829003601f168201915b505050505090506000610e0d612273565b9050600081511415610e23578192505050610e66565b600082511115610e58578082604051602001610e409291906140d1565b60405160208183030381529060405292505050610e66565b610e618461228a565b925050505b919050565b600a6020528060005260406000206000915054906101000a900473ffffffffffffffffffffffffffffffffffffffff1681565b6000600560008473ffffffffffffffffffffffffffffffffffffffff1673ffffffffffffffffffffffffffffffffffffffff16815260200190815260200160002060008373ffffffffffffffffffffffffffffffffffffffff1673ffffffffffffffffffffffffffffffffffffffff16815260200190815260200160002060009054906101000a900460ff16905092915050565b60098181548110610f4257600080fd5b90600052602060002090600702016000915090508060000160009054906101000a900460ff16908060000160019054906101000a900460ff16908060000160029054906101000a900460ff16908060000160039054906101000a900460ff169080600101604051806040016040529081600082018054610fc190614a93565b80601f0160208091040260200160405190810160405280929190818152602001828054610fed90614a93565b801561103a5780601f1061100f5761010080835404028352916020019161103a565b820191906000526020600020905b81548152906001019060200180831161101d57829003601f168201915b505050505081526020016001820160009054906101000a900460ff161515151581525050908060030160405180604001604052908160008201805461107e90614a93565b80601f01602080910402602001604051908101604052809291908181526020018280546110aa90614a93565b80156110f75780601f106110cc576101008083540402835291602001916110f7565b820191906000526020600020905b8154815290600101906020018083116110da57829003601f168201915b505050505081526020016001820160009054906101000a900460ff161515151581525050908060050160009054906101000a900460ff169080600601805461113e90614a93565b80601f016020809104026020016040519081016040528092919081815260200182805461116a90614a93565b80156111b75780601f1061118c576101008083540402835291602001916111b7565b820191906000526020600020905b81548152906001019060200180831161119a57829003601f168201915b5050505050905088565b611257816040516024016111d59190614447565b6040516020818303038152906040527f41304fac000000000000000000000000000000000000000000000000000000007bffffffffffffffffffffffffffffffffffffffffffffffffffffffff19166020820180517bffffffffffffffffffffffffffffffffffffffffffffffffffffffff8381831617835250505050612331565b50565b60007f01ffc9a7000000000000000000000000000000000000000000000000000000007bffffffffffffffffffffffffffffffffffffffffffffffffffffffff1916827bffffffffffffffffffffffffffffffffffffffffffffffffffffffff1916149050919050565b60008073ffffffffffffffffffffffffffffffffffffffff166002600084815260200190815260200160002060009054906101000a900473ffffffffffffffffffffffffffffffffffffffff1673ffffffffffffffffffffffffffffffffffffffff1614159050919050565b600033905090565b816004600083815260200190815260200160002060006101000a81548173ffffffffffffffffffffffffffffffffffffffff021916908373ffffffffffffffffffffffffffffffffffffffff160217905550808273ffffffffffffffffffffffffffffffffffffffff166113ab83610811565b73ffffffffffffffffffffffffffffffffffffffff167f8c5be1e5ebec7d5bd14f71427d1e84f3dd0314c0f7b2291e5b200ac8c7c3b92560405160405180910390a45050565b60006113fc826112c4565b61143b576040517f08c379a000000000000000000000000000000000000000000000000000000000815260040161143290614527565b60405180910390fd5b600061144683610811565b90508073ffffffffffffffffffffffffffffffffffffffff168473ffffffffffffffffffffffffffffffffffffffff1614806114b557508373ffffffffffffffffffffffffffffffffffffffff1661149d84610548565b73ffffffffffffffffffffffffffffffffffffffff16145b806114c657506114c58185610e9e565b5b91505092915050565b8273ffffffffffffffffffffffffffffffffffffffff166114ef82610811565b73ffffffffffffffffffffffffffffffffffffffff1614611545576040517f08c379a000000000000000000000000000000000000000000000000000000000815260040161153c90614627565b60405180910390fd5b600073ffffffffffffffffffffffffffffffffffffffff168273ffffffffffffffffffffffffffffffffffffffff1614156115b5576040517f08c379a00000000000000000000000000000000000000000000000000000000081526004016115ac906144e7565b60405180910390fd5b6115c083838361235a565b6115cb600082611338565b6001600360008573ffffffffffffffffffffffffffffffffffffffff1673ffffffffffffffffffffffffffffffffffffffff168152602001908152602001600020600082825461161b9190614907565b925050819055506001600360008473ffffffffffffffffffffffffffffffffffffffff1673ffffffffffffffffffffffffffffffffffffffff168152602001908152602001600020600082825461167291906147f5565b92505081905550816002600083815260200190815260200160002060006101000a81548173ffffffffffffffffffffffffffffffffffffffff021916908373ffffffffffffffffffffffffffffffffffffffff160217905550808273ffffffffffffffffffffffffffffffffffffffff168473ffffffffffffffffffffffffffffffffffffffff167fddf252ad1be2c89b69c2b068fc378daa952ba7f163c4a11628f55a4df523b3ef60405160405180910390a4505050565b600081600001549050919050565b6009604051806101000160405280611789600060056040518060400160405280600481526020017f697269730000000000000000000000000000000000000000000000000000000081525061235f565b60058111156117c1577f4e487b7100000000000000000000000000000000000000000000000000000000600052602160045260246000fd5b60058111156117f9577f4e487b7100000000000000000000000000000000000000000000000000000000600052602160045260246000fd5b81526020016009611842600060096040518060400160405280600581526020017f707570696c00000000000000000000000000000000000000000000000000000081525061235f565b1061184e576001611851565b60005b60ff16600181111561188c577f4e487b7100000000000000000000000000000000000000000000000000000000600052602160045260246000fd5b60018111156118c4577f4e487b7100000000000000000000000000000000000000000000000000000000600052602160045260246000fd5b815260200161190b600060036040518060400160405280600681526020017f6d6f75746873000000000000000000000000000000000000000000000000000081525061235f565b6003811115611943577f4e487b7100000000000000000000000000000000000000000000000000000000600052602160045260246000fd5b600381111561197b577f4e487b7100000000000000000000000000000000000000000000000000000000600052602160045260246000fd5b81526020016119c2600060026040518060400160405280600781526020017f636c6f746865730000000000000000000000000000000000000000000000000081525061235f565b60038111156119fa577f4e487b7100000000000000000000000000000000000000000000000000000000600052602160045260246000fd5b6003811115611a32577f4e487b7100000000000000000000000000000000000000000000000000000000600052602160045260246000fd5b8152602001611a76846040518060400160405280600581526020017f73686972740000000000000000000000000000000000000000000000000000008152506123c3565b8152602001611aba846040518060400160405280600781526020017f636c6f74686573000000000000000000000000000000000000000000000000008152506123c3565b8152602001604f611b03600060636040518060400160405280600381526020017f313078000000000000000000000000000000000000000000000000000000000081525061235f565b11151581526020016008611b5f60006001600880549050611b249190614907565b6040518060400160405280600481526020017f6c616e670000000000000000000000000000000000000000000000000000000081525061235f565b81548110611b96577f4e487b7100000000000000000000000000000000000000000000000000000000600052603260045260246000fd5b906000526020600020018054611bab90614a93565b80601f0160208091040260200160405190810160405280929190818152602001828054611bd790614a93565b8015611c245780601f10611bf957610100808354040283529160200191611c24565b820191906000526020600020905b815481529060010190602001808311611c0757829003601f168201915b5050505050815250908060018154018082558091505060019003906000526020600020906007020160009091909190915060008201518160000160006101000a81548160ff02191690836005811115611ca6577f4e487b7100000000000000000000000000000000000000000000000000000000600052602160045260246000fd5b021790555060208201518160000160016101000a81548160ff02191690836001811115611cfc577f4e487b7100000000000000000000000000000000000000000000000000000000600052602160045260246000fd5b021790555060408201518160000160026101000a81548160ff02191690836003811115611d52577f4e487b7100000000000000000000000000000000000000000000000000000000600052602160045260246000fd5b021790555060608201518160000160036101000a81548160ff02191690836003811115611da8577f4e487b7100000000000000000000000000000000000000000000000000000000600052602160045260246000fd5b02179055506080820151816001016000820151816000019080519060200190611dd292919061371c565b5060208201518160010160006101000a81548160ff021916908315150217905550505060a0820151816003016000820151816000019080519060200190611e1a92919061371c565b5060208201518160010160006101000a81548160ff021916908315150217905550505060c08201518160050160006101000a81548160ff02191690831515021790555060e0820151816006019080519060200190611e7992919061371c565b50505050565b611e998282604051806020016040528060008152506126e8565b5050565b60606040518061030001604052806102d881526020016157246102d89139611ec483612743565b611ecd84612883565b6040518061014001604052806101058152602001615aea6101059139611ef286612b52565b611efb87612d56565b611f0488612fb0565b604051602001611f1a9796959493929190614126565b6040516020818303038152906040529050919050565b60606000825190506000811415611f5957604051806020016040528060008152509150506120e9565b60006003600283611f6a91906147f5565b611f74919061487c565b6004611f8091906148ad565b90506000602082611f9191906147f5565b67ffffffffffffffff811115611fd0577f4e487b7100000000000000000000000000000000000000000000000000000000600052604160045260246000fd5b6040519080825280601f01601f1916602001820160405280156120025781602001600182028036833780820191505090505b5090506000604051806060016040528060408152602001615aaa604091399050600181016020830160005b868110156120a65760038101905062ffffff818a015116603f8160121c168401518060081b905060ff603f83600c1c1686015116810190508060081b905060ff603f8360061c1686015116810190508060081b905060ff603f831686015116810190508060e01b9050808452600484019350505061202d565b5060038606600181146120c057600281146120d0576120db565b613d3d60f01b60028303526120db565b603d60f81b60018303525b508484525050819450505050505b919050565b6120f7826112c4565b612136576040517f08c379a000000000000000000000000000000000000000000000000000000000815260040161212d906145a7565b60405180910390fd5b8060066000848152602001908152602001600020908051906020019061215d92919061371c565b505050565b6001816000016000828254019250508190555050565b61221283838360405160240161219093929190614469565b6040516020818303038152906040527fe3849f79000000000000000000000000000000000000000000000000000000007bffffffffffffffffffffffffffffffffffffffffffffffffffffffff19166020820180517bffffffffffffffffffffffffffffffffffffffffffffffffffffffff8381831617835250505050612331565b505050565b6122228484846114cf565b61222e848484846131f7565b61226d576040517f08c379a0000000000000000000000000000000000000000000000000000000008152600401612264906144a7565b60405180910390fd5b50505050565b606060405180602001604052806000815250905090565b6060612295826112c4565b6122d4576040517f08c379a00000000000000000000000000000000000000000000000000000000081526004016122cb90614647565b60405180910390fd5b60006122de612273565b905060008151116122fe5760405180602001604052806000815250612329565b806123088461338e565b6040516020016123199291906140d1565b6040516020818303038152906040525b915050919050565b60008151905060006a636f6e736f6c652e6c6f679050602083016000808483855afa5050505050565b505050565b6000838460018561237091906147f5565b61237a9190614907565b428460405160200161238d9291906142a8565b6040516020818303038152906040528051906020012060001c6123b09190614b49565b6123ba91906147f5565b90509392505050565b6123cb6137a2565b60004284846040516020016123e2939291906142d0565b6040516020818303038152906040528051906020012090506000600767ffffffffffffffff81111561243d577f4e487b7100000000000000000000000000000000000000000000000000000000600052604160045260246000fd5b6040519080825280601f01601f19166020018201604052801561246f5781602001600182028036833780820191505090505b50905060008080600090507f2300000000000000000000000000000000000000000000000000000000000000846000815181106124d5577f4e487b7100000000000000000000000000000000000000000000000000000000600052603260045260246000fd5b60200101907effffffffffffffffffffffffffffffffffffffffffffffffffffffffffffff1916908160001a90535060005b60068110156126a557600f86826020811061254b577f4e487b7100000000000000000000000000000000000000000000000000000000600052603260045260246000fd5b1a60f81b60f81c16925060006002826125649190614b49565b141561257c578260ff168261257991906147bd565b91505b7f3031323334353637383961626364656600000000000000000000000000000000600f8783602081106125d8577f4e487b7100000000000000000000000000000000000000000000000000000000600052603260045260246000fd5b1a60f81b60f81c1660ff166010811061261a577f4e487b7100000000000000000000000000000000000000000000000000000000600052603260045260246000fd5b1a60f81b8560018361262c91906147f5565b81518110612663577f4e487b7100000000000000000000000000000000000000000000000000000000600052603260045260246000fd5b60200101907effffffffffffffffffffffffffffffffffffffffffffffffffffffffffffff1916908160001a905350808061269d90614af6565b915050612507565b5060086003826126b5919061484b565b61ffff1610156126c457600192505b60405180604001604052808581526020018415158152509550505050505092915050565b6126f2838361353b565b6126ff60008484846131f7565b61273e576040517f08c379a0000000000000000000000000000000000000000000000000000000008152600401612735906144a7565b60405180910390fd5b505050565b60606000612786836040518060400160405280600581526020017f73686972740000000000000000000000000000000000000000000000000000008152506123c3565b905060006040518060400160405280600481526020017f23303030000000000000000000000000000000000000000000000000000000008152509050816020015115612805576040518060400160405280600481526020017f236666660000000000000000000000000000000000000000000000000000000081525090505b6040518060c00160405280608d81526020016153d4608d913982600001516040518060400160405280600481526020017f27202f3e0000000000000000000000000000000000000000000000000000000081525060405160200161286b939291906140f5565b60405160208183030381529060405292505050919050565b60606000600983815481106128c1577f4e487b7100000000000000000000000000000000000000000000000000000000600052603260045260246000fd5b906000526020600020906007020160000160039054906101000a900460ff16905060606000600381111561291e577f4e487b7100000000000000000000000000000000000000000000000000000000600052602160045260246000fd5b826003811115612957577f4e487b7100000000000000000000000000000000000000000000000000000000600052602160045260246000fd5b14806129d3575060016003811115612998577f4e487b7100000000000000000000000000000000000000000000000000000000600052602160045260246000fd5b8260038111156129d1577f4e487b7100000000000000000000000000000000000000000000000000000000600052602160045260246000fd5b145b156129f8576040518060a0016040528060768152602001615e3b607691399050612aae565b60026003811115612a32577f4e487b7100000000000000000000000000000000000000000000000000000000600052602160045260246000fd5b826003811115612a6b577f4e487b7100000000000000000000000000000000000000000000000000000000600052602160045260246000fd5b1415612a91576040518060a0016040528060778152602001615f18607791399050612aad565b6040518060a0016040528060778152602001615c536077913990505b5b80612aee856040518060400160405280600781526020017f636c6f74686573000000000000000000000000000000000000000000000000008152506123c3565b600001516040518060400160405280600481526020017f27202f3e00000000000000000000000000000000000000000000000000000000815250604051602001612b3a939291906141f9565b60405160208183030381529060405292505050919050565b6060600760098381548110612b90577f4e487b7100000000000000000000000000000000000000000000000000000000600052603260045260246000fd5b906000526020600020906007020160000160009054906101000a900460ff166005811115612be7577f4e487b7100000000000000000000000000000000000000000000000000000000600052602160045260246000fd5b81548110612c1e577f4e487b7100000000000000000000000000000000000000000000000000000000600052603260045260246000fd5b90600052602060002001600180811115612c61577f4e487b7100000000000000000000000000000000000000000000000000000000600052602160045260246000fd5b60098481548110612c9b577f4e487b7100000000000000000000000000000000000000000000000000000000600052603260045260246000fd5b906000526020600020906007020160000160019054906101000a900460ff166001811115612cf2577f4e487b7100000000000000000000000000000000000000000000000000000000600052602160045260246000fd5b14612d15576040518060a0016040528060648152602001615bef60649139612d2f565b6040518060a0016040528060668152602001615699606691395b604051602001612d40929190614235565b6040516020818303038152906040529050919050565b6060600060098381548110612d94577f4e487b7100000000000000000000000000000000000000000000000000000000600052603260045260246000fd5b906000526020600020906007020160000160029054906101000a900460ff169050606060006003811115612df1577f4e487b7100000000000000000000000000000000000000000000000000000000600052602160045260246000fd5b826003811115612e2a577f4e487b7100000000000000000000000000000000000000000000000000000000600052602160045260246000fd5b1415612e5357604051806102600160405280610238815260200161546161023891399050612fa6565b60016003811115612e8d577f4e487b7100000000000000000000000000000000000000000000000000000000600052602160045260246000fd5b826003811115612ec6577f4e487b7100000000000000000000000000000000000000000000000000000000600052602160045260246000fd5b1415612eef57604051806101a001604052806101718152602001615cca61017191399050612fa5565b60026003811115612f29577f4e487b7100000000000000000000000000000000000000000000000000000000600052602160045260246000fd5b826003811115612f62577f4e487b7100000000000000000000000000000000000000000000000000000000600052602160045260246000fd5b1415612f88576040518060600160405280603981526020016159fc603991399050612fa4565b6040518060600160405280603b8152602001615f8f603b913990505b5b5b8092505050919050565b606060098281548110612fec577f4e487b7100000000000000000000000000000000000000000000000000000000600052603260045260246000fd5b906000526020600020906007020160010160010160009054906101000a900460ff1661304d576040518060400160405280601081526020017f3c6720636c6173733d276461726b273e00000000000000000000000000000000815250613084565b6040518060400160405280601181526020017f3c6720636c6173733d276c69676874273e0000000000000000000000000000008152505b600983815481106130be577f4e487b7100000000000000000000000000000000000000000000000000000000600052603260045260246000fd5b906000526020600020906007020160050160009054906101000a900460ff166130ff576040518060a0016040528060678152602001615eb160679139613119565b6040518060a00160405280606a815260200161536a606a91395b6040518060a0016040528060618152602001615309606191396009858154811061316c577f4e487b7100000000000000000000000000000000000000000000000000000000600052603260045260246000fd5b90600052602060002090600702016006016040518060400160405280600781526020017f3c2f746578743e000000000000000000000000000000000000000000000000008152506040518060a0016040528060758152602001615a35607591396040516020016131e1969594939291906141a1565b6040516020818303038152906040529050919050565b60006132188473ffffffffffffffffffffffffffffffffffffffff16613709565b15613381578373ffffffffffffffffffffffffffffffffffffffff1663150b7a02613241611330565b8786866040518563ffffffff1660e01b81526004016132639493929190614324565b602060405180830381600087803b15801561327d57600080fd5b505af19250505080156132ae57506040513d601f19601f820116820180604052508101906132ab9190613ae4565b60015b613331573d80600081146132de576040519150601f19603f3d011682016040523d82523d6000602084013e6132e3565b606091505b50600081511415613329576040517f08c379a0000000000000000000000000000000000000000000000000000000008152600401613320906144a7565b60405180910390fd5b805181602001fd5b63150b7a0260e01b7bffffffffffffffffffffffffffffffffffffffffffffffffffffffff1916817bffffffffffffffffffffffffffffffffffffffffffffffffffffffff191614915050613386565b600190505b949350505050565b606060008214156133d6576040518060400160405280600181526020017f30000000000000000000000000000000000000000000000000000000000000008152509050613536565b600082905060005b600082146134085780806133f190614af6565b915050600a82613401919061487c565b91506133de565b60008167ffffffffffffffff81111561344a577f4e487b7100000000000000000000000000000000000000000000000000000000600052604160045260246000fd5b6040519080825280601f01601f19166020018201604052801561347c5781602001600182028036833780820191505090505b5090505b6000851461352f576001826134959190614907565b9150600a856134a49190614b49565b60306134b091906147f5565b60f81b8183815181106134ec577f4e487b7100000000000000000000000000000000000000000000000000000000600052603260045260246000fd5b60200101907effffffffffffffffffffffffffffffffffffffffffffffffffffffffffffff1916908160001a905350600a85613528919061487c565b9450613480565b8093505050505b919050565b600073ffffffffffffffffffffffffffffffffffffffff168273ffffffffffffffffffffffffffffffffffffffff1614156135ab576040517f08c379a00000000000000000000000000000000000000000000000000000000081526004016135a2906145c7565b60405180910390fd5b6135b4816112c4565b156135f4576040517f08c379a00000000000000000000000000000000000000000000000000000000081526004016135eb906144c7565b60405180910390fd5b6136006000838361235a565b6001600360008473ffffffffffffffffffffffffffffffffffffffff1673ffffffffffffffffffffffffffffffffffffffff168152602001908152602001600020600082825461365091906147f5565b92505081905550816002600083815260200190815260200160002060006101000a81548173ffffffffffffffffffffffffffffffffffffffff021916908373ffffffffffffffffffffffffffffffffffffffff160217905550808273ffffffffffffffffffffffffffffffffffffffff16600073ffffffffffffffffffffffffffffffffffffffff167fddf252ad1be2c89b69c2b068fc378daa952ba7f163c4a11628f55a4df523b3ef60405160405180910390a45050565b600080823b905060008111915050919050565b82805461372890614a93565b90600052602060002090601f01602090048101928261374a5760008555613791565b82601f1061376357805160ff1916838001178555613791565b82800160010185558215613791579182015b82811115613790578251825591602001919060010190613775565b5b50905061379e91906137be565b5090565b6040518060400160405280606081526020016000151581525090565b5b808211156137d75760008160009055506001016137bf565b5090565b60006137ee6137e9846146e7565b6146c2565b90508281526020810184848401111561380657600080fd5b613811848285614a51565b509392505050565b600061382c61382784614718565b6146c2565b90508281526020810184848401111561384457600080fd5b61384f848285614a51565b509392505050565b600081359050613866816152ac565b92915050565b60008135905061387b816152c3565b92915050565b600081359050613890816152da565b92915050565b6000815190506138a5816152da565b92915050565b600082601f8301126138bc57600080fd5b81356138cc8482602086016137db565b91505092915050565b600082601f8301126138e657600080fd5b81356138f6848260208601613819565b91505092915050565b60008135905061390e816152f1565b92915050565b60006020828403121561392657600080fd5b600061393484828501613857565b91505092915050565b6000806040838503121561395057600080fd5b600061395e85828601613857565b925050602061396f85828601613857565b9150509250929050565b60008060006060848603121561398e57600080fd5b600061399c86828701613857565b93505060206139ad86828701613857565b92505060406139be868287016138ff565b9150509250925092565b600080600080608085870312156139de57600080fd5b60006139ec87828801613857565b94505060206139fd87828801613857565b9350506040613a0e878288016138ff565b925050606085013567ffffffffffffffff811115613a2b57600080fd5b613a37878288016138ab565b91505092959194509250565b60008060408385031215613a5657600080fd5b6000613a6485828601613857565b9250506020613a758582860161386c565b9150509250929050565b60008060408385031215613a9257600080fd5b6000613aa085828601613857565b9250506020613ab1858286016138ff565b9150509250929050565b600060208284031215613acd57600080fd5b6000613adb84828501613881565b91505092915050565b600060208284031215613af657600080fd5b6000613b0484828501613896565b91505092915050565b600060208284031215613b1f57600080fd5b600082013567ffffffffffffffff811115613b3957600080fd5b613b45848285016138d5565b91505092915050565b600060208284031215613b6057600080fd5b6000613b6e848285016138ff565b91505092915050565b613b808161493b565b82525050565b613b8f8161494d565b82525050565b613b9e8161494d565b82525050565b6000613baf8261475e565b613bb98185614774565b9350613bc9818560208601614a60565b613bd281614c65565b840191505092915050565b6000613be88261475e565b613bf28185614785565b9350613c02818560208601614a60565b80840191505092915050565b613c1781614a09565b82525050565b613c2681614a1b565b82525050565b613c3581614a2d565b82525050565b613c4481614a3f565b82525050565b6000613c5582614769565b613c5f8185614790565b9350613c6f818560208601614a60565b613c7881614c65565b840191505092915050565b6000613c8e82614769565b613c9881856147a1565b9350613ca8818560208601614a60565b613cb181614c65565b840191505092915050565b6000613cc782614769565b613cd181856147b2565b9350613ce1818560208601614a60565b80840191505092915050565b60008154613cfa81614a93565b613d0481866147b2565b94506001821660008114613d1f5760018114613d3057613d63565b60ff19831686528186019350613d63565b613d3985614749565b60005b83811015613d5b57815481890152600182019150602081019050613d3c565b838801955050505b50505092915050565b6000613d796032836147a1565b9150613d8482614c76565b604082019050919050565b6000613d9c601c836147a1565b9150613da782614cc5565b602082019050919050565b6000613dbf6005836147b2565b9150613dca82614cee565b600582019050919050565b6000613de26024836147a1565b9150613ded82614d17565b604082019050919050565b6000613e056019836147a1565b9150613e1082614d66565b602082019050919050565b6000613e28602c836147a1565b9150613e3382614d8f565b604082019050919050565b6000613e4b6038836147a1565b9150613e5682614dde565b604082019050919050565b6000613e6e602a836147a1565b9150613e7982614e2d565b604082019050919050565b6000613e916029836147a1565b9150613e9c82614e7c565b604082019050919050565b6000613eb4602e836147a1565b9150613ebf82614ecb565b604082019050919050565b6000613ed76002836147b2565b9150613ee282614f1a565b600282019050919050565b6000613efa6020836147a1565b9150613f0582614f43565b602082019050919050565b6000613f1d6031836147a1565b9150613f2882614f6c565b604082019050919050565b6000613f40602c836147a1565b9150613f4b82614fbb565b604082019050919050565b6000613f636029836147a1565b9150613f6e8261500a565b604082019050919050565b6000613f86602f836147a1565b9150613f9182615059565b604082019050919050565b6000613fa96004836147b2565b9150613fb4826150a8565b600482019050919050565b6000613fcc6021836147a1565b9150613fd7826150d1565b604082019050919050565b6000613fef601d836147b2565b9150613ffa82615120565b601d82019050919050565b60006140126031836147a1565b915061401d82615149565b604082019050919050565b60006140356080836147b2565b915061404082615198565b608082019050919050565b60006140586006836147b2565b915061406382615233565b600682019050919050565b6000604083016000830151848203600086015261408b8282613c4a565b91505060208301516140a06020860182613b86565b508091505092915050565b6140b4816149ff565b82525050565b6140cb6140c6826149ff565b614b3f565b82525050565b60006140dd8285613cbc565b91506140e98284613cbc565b91508190509392505050565b60006141018286613cbc565b915061410d8285613cbc565b91506141198284613cbc565b9150819050949350505050565b6000614132828a613cbc565b915061413e8289613cbc565b915061414a8288613cbc565b91506141568287613cbc565b91506141628286613cbc565b915061416d82613db2565b91506141798285613cbc565b91506141858284613bdd565b91506141908261404b565b915081905098975050505050505050565b60006141ad8289613cbc565b91506141b98288613cbc565b91506141c58287613cbc565b91506141d18286613ced565b91506141dd8285613cbc565b91506141e98284613cbc565b9150819050979650505050505050565b60006142058286613cbc565b91506142118285613cbc565b915061421d8284613cbc565b915061422882613f9c565b9150819050949350505050565b60006142418285613ced565b915061424d8284613cbc565b91508190509392505050565b600061426482613fe2565b91506142708284613cbc565b915081905092915050565b600061428682614028565b91506142928284613cbc565b915061429d82613eca565b915081905092915050565b60006142b482856140ba565b6020820191506142c48284613cbc565b91508190509392505050565b60006142dc82866140ba565b6020820191506142ec82856140ba565b6020820191506142fc8284613cbc565b9150819050949350505050565b600060208201905061431e6000830184613b77565b92915050565b60006080820190506143396000830187613b77565b6143466020830186613b77565b61435360408301856140ab565b81810360608301526143658184613ba4565b905095945050505050565b60006040820190506143856000830185613b77565b61439260208301846140ab565b9392505050565b60006020820190506143ae6000830184613b95565b92915050565b6000610100820190506143ca600083018b613c1d565b6143d7602083018a613c3b565b6143e46040830189613c2c565b6143f16060830188613c0e565b8181036080830152614403818761406e565b905081810360a0830152614417818661406e565b905061442660c0830185613b95565b81810360e08301526144388184613c83565b90509998505050505050505050565b600060208201905081810360008301526144618184613c83565b905092915050565b600060608201905081810360008301526144838186613c83565b905061449260208301856140ab565b61449f6040830184613b77565b949350505050565b600060208201905081810360008301526144c081613d6c565b9050919050565b600060208201905081810360008301526144e081613d8f565b9050919050565b6000602082019050818103600083015261450081613dd5565b9050919050565b6000602082019050818103600083015261452081613df8565b9050919050565b6000602082019050818103600083015261454081613e1b565b9050919050565b6000602082019050818103600083015261456081613e3e565b9050919050565b6000602082019050818103600083015261458081613e61565b9050919050565b600060208201905081810360008301526145a081613e84565b9050919050565b600060208201905081810360008301526145c081613ea7565b9050919050565b600060208201905081810360008301526145e081613eed565b9050919050565b6000602082019050818103600083015261460081613f10565b9050919050565b6000602082019050818103600083015261462081613f33565b9050919050565b6000602082019050818103600083015261464081613f56565b9050919050565b6000602082019050818103600083015261466081613f79565b9050919050565b6000602082019050818103600083015261468081613fbf565b9050919050565b600060208201905081810360008301526146a081614005565b9050919050565b60006020820190506146bc60008301846140ab565b92915050565b60006146cc6146dd565b90506146d88282614ac5565b919050565b6000604051905090565b600067ffffffffffffffff82111561470257614701614c36565b5b61470b82614c65565b9050602081019050919050565b600067ffffffffffffffff82111561473357614732614c36565b5b61473c82614c65565b9050602081019050919050565b60008190508160005260206000209050919050565b600081519050919050565b600081519050919050565b600082825260208201905092915050565b600081905092915050565b600082825260208201905092915050565b600082825260208201905092915050565b600081905092915050565b60006147c8826149d1565b91506147d3836149d1565b92508261ffff038211156147ea576147e9614b7a565b5b828201905092915050565b6000614800826149ff565b915061480b836149ff565b9250827fffffffffffffffffffffffffffffffffffffffffffffffffffffffffffffffff038211156148405761483f614b7a565b5b828201905092915050565b6000614856826149d1565b9150614861836149d1565b92508261487157614870614ba9565b5b828204905092915050565b6000614887826149ff565b9150614892836149ff565b9250826148a2576148a1614ba9565b5b828204905092915050565b60006148b8826149ff565b91506148c3836149ff565b9250817fffffffffffffffffffffffffffffffffffffffffffffffffffffffffffffffff04831182151516156148fc576148fb614b7a565b5b828202905092915050565b6000614912826149ff565b915061491d836149ff565b9250828210156149305761492f614b7a565b5b828203905092915050565b6000614946826149df565b9050919050565b60008115159050919050565b60007fffffffff0000000000000000000000000000000000000000000000000000000082169050919050565b60008190506149938261525c565b919050565b60008190506149a682615270565b919050565b60008190506149b982615284565b919050565b60008190506149cc82615298565b919050565b600061ffff82169050919050565b600073ffffffffffffffffffffffffffffffffffffffff82169050919050565b6000819050919050565b6000614a1482614985565b9050919050565b6000614a2682614998565b9050919050565b6000614a38826149ab565b9050919050565b6000614a4a826149be565b9050919050565b82818337600083830152505050565b60005b83811015614a7e578082015181840152602081019050614a63565b83811115614a8d576000848401525b50505050565b60006002820490506001821680614aab57607f821691505b60208210811415614abf57614abe614c07565b5b50919050565b614ace82614c65565b810181811067ffffffffffffffff82111715614aed57614aec614c36565b5b80604052505050565b6000614b01826149ff565b91507fffffffffffffffffffffffffffffffffffffffffffffffffffffffffffffffff821415614b3457614b33614b7a565b5b600182019050919050565b6000819050919050565b6000614b54826149ff565b9150614b5f836149ff565b925082614b6f57614b6e614ba9565b5b828206905092915050565b7f4e487b7100000000000000000000000000000000000000000000000000000000600052601160045260246000fd5b7f4e487b7100000000000000000000000000000000000000000000000000000000600052601260045260246000fd5b7f4e487b7100000000000000000000000000000000000000000000000000000000600052602160045260246000fd5b7f4e487b7100000000000000000000000000000000000000000000000000000000600052602260045260246000fd5b7f4e487b7100000000000000000000000000000000000000000000000000000000600052604160045260246000fd5b6000601f19601f8301169050919050565b7f4552433732313a207472616e7366657220746f206e6f6e20455243373231526560008201527f63656976657220696d706c656d656e7465720000000000000000000000000000602082015250565b7f4552433732313a20746f6b656e20616c7265616479206d696e74656400000000600082015250565b7f3c2f673e20000000000000000000000000000000000000000000000000000000600082015250565b7f4552433732313a207472616e7366657220746f20746865207a65726f2061646460008201527f7265737300000000000000000000000000000000000000000000000000000000602082015250565b7f4552433732313a20617070726f766520746f2063616c6c657200000000000000600082015250565b7f4552433732313a206f70657261746f7220717565727920666f72206e6f6e657860008201527f697374656e7420746f6b656e0000000000000000000000000000000000000000602082015250565b7f4552433732313a20617070726f76652063616c6c6572206973206e6f74206f7760008201527f6e6572206e6f7220617070726f76656420666f7220616c6c0000000000000000602082015250565b7f4552433732313a2062616c616e636520717565727920666f7220746865207a6560008201527f726f206164647265737300000000000000000000000000000000000000000000602082015250565b7f4552433732313a206f776e657220717565727920666f72206e6f6e657869737460008201527f656e7420746f6b656e0000000000000000000000000000000000000000000000602082015250565b7f45524337323155524953746f726167653a2055524920736574206f66206e6f6e60008201527f6578697374656e7420746f6b656e000000000000000000000000000000000000602082015250565b7f227d000000000000000000000000000000000000000000000000000000000000600082015250565b7f4552433732313a206d696e7420746f20746865207a65726f2061646472657373600082015250565b7f45524337323155524953746f726167653a2055524920717565727920666f722060008201527f6e6f6e6578697374656e7420746f6b656e000000000000000000000000000000602082015250565b7f4552433732313a20617070726f76656420717565727920666f72206e6f6e657860008201527f697374656e7420746f6b656e0000000000000000000000000000000000000000602082015250565b7f4552433732313a207472616e73666572206f6620746f6b656e2074686174206960008201527f73206e6f74206f776e0000000000000000000000000000000000000000000000602082015250565b7f4552433732314d657461646174613a2055524920717565727920666f72206e6f60008201527f6e6578697374656e7420746f6b656e0000000000000000000000000000000000602082015250565b7f3c2f673e00000000000000000000000000000000000000000000000000000000600082015250565b7f4552433732313a20617070726f76616c20746f2063757272656e74206f776e6560008201527f7200000000000000000000000000000000000000000000000000000000000000602082015250565b7f646174613a6170706c69636174696f6e2f6a736f6e3b6261736536342c000000600082015250565b7f4552433732313a207472616e736665722063616c6c6572206973206e6f74206f60008201527f776e6572206e6f7220617070726f766564000000000000000000000000000000602082015250565b7f7b226e616d65223a20224120737469636b2066696775726520646576656c6f7060008201527f6572222c226465736372697074696f6e223a202241207768696d736963616c2060208201527f636f6c6c656374696f6e206f6620646576656c6f706572732e222c2022696d6160408201527f6765223a2022646174613a696d6167652f7376672b786d6c3b6261736536342c606082015250565b7f3c2f7376673e0000000000000000000000000000000000000000000000000000600082015250565b6004811061526d5761526c614bd8565b5b50565b6006811061528157615280614bd8565b5b50565b6004811061529557615294614bd8565b5b50565b600281106152a9576152a8614bd8565b5b50565b6152b58161493b565b81146152c057600080fd5b50565b6152cc8161494d565b81146152d757600080fd5b50565b6152e381614959565b81146152ee57600080fd5b50565b6152fa816149ff565b811461530557600080fd5b5056fe3c7465787420636c6173733d276c6574746572696e67206c616e67747970652720783d273439252720793d273532252720646f6d696e616e742d626173656c696e653d276d6964646c652720746578742d616e63686f723d276d6964646c65273e3c7465787420636c6173733d276c6574746572696e6720646576747970652720783d273439252720793d273437252720646f6d696e616e742d626173656c696e653d276d6964646c652720746578742d616e63686f723d276d6964646c65273e3130783c2f746578743e203c7061746820636c6173733d2773686972742720643d274d3530302c3430305635353048333030563430306c2d37352c3530563337356c37352d35306832357332352c32352c37352c32352c37352d32352c37352d32356832356c37352c35307637355a27207472616e73666f726d3d277472616e736c617465282d313735202d323529272066696c6c3d273c7061746820636c6173733d276d6f7574682720643d274d3430302c323734632d33392e35372c302d36332e35342d33322e322d37312e33312d34342e3633433333382c3233362e33382c3336312e39312c3235312c3430302c3235316332362c302c34352e322d362e38352c35362e372d31322e36316139322e32322c39322e32322c302c302c302c31342e35362d382e3934433436332e34332c3234322c3433392e34382c3237342c3430302c3237345a27207472616e73666f726d3d277472616e736c617465282d3137342e3638202d323529272f3e3c7061746820643d274d3436372e35362c3233332e33613131322e33392c3131322e33392c302c302c312d31322e38312c31352e3337433434332e36322c3235392e37372c3432352e312c3237332c3430302c323733732d34332e36322d31332e32332d35342e37352d32342e3333613131322e33392c3131322e33392c302c302c312d31322e38312d31352e33372c39392e33342c39392e33342c302c302c302c31302e34322c366332312c31302e352c34322e36372c31322e37312c35372e31342c31322e37312c32362e32322c302c34352e35352d362e39312c35372e31342d31322e37316139392e33342c39392e33342c302c302c302c31302e34322d364d3437352c323235732d32352c32352d37352c32352d37352d32352d37352d32352c32352c35302c37352c35302c37352d35302c37352d35305a27207472616e73666f726d3d277472616e736c617465282d313735202d323529272f3e3c636972636c6520636c6173733d27707570696c73272063783d27313630272063793d273130302720723d273132272f3e3c636972636c6520636c6173733d27707570696c73272063783d27323930272063793d273130302720723d273132272f3e3c2f673e416e204e465420772f20494420257320686173206265656e206d696e74656420746f2025733c73766720786d6c6e733d27687474703a2f2f7777772e77332e6f72672f323030302f737667272076696577426f783d272d38202d382034363020373630273e203c646566733e203c7374796c653e202a207b207374726f6b653a20233030303b207374726f6b652d6d697465726c696d69743a2031303b207374726f6b652d77696474683a203270783b207d202e6c6574746572696e67207b207374726f6b652d77696474683a303b207d202e626f6479207b2066696c6c3a206e6f6e653b207d202e666163652c2e626f6479206c696e65207b207374726f6b652d77696474683a3370783b207d202e666163652c202e6e6f73652c202e776869746573207b2066696c6c3a20236666663b207d202e6d6f757468207b2066696c6c3a20236666663b207374726f6b652d77696474683a3370783b207d202e64657674797065207b20666f6e743a20626f6c642033347078206d6f6e6f73706163653b207d202e6c616e6774797065207b20666f6e743a20626f6c6420333470782073616e732d73657269663b207d202e707570696c737b66696c6c3a233030303b7d2e6c696768747b66696c6c3a236666663b7d2e6461726b7b66696c6c3a233030303b7d3c2f7374796c653e203c2f646566733e203c6720636c6173733d27626f6479273e203c6c696e652078313d27323235272079313d27333235272078323d27343530272079323d2734303027202f3e203c6c696e652078313d27323235272079313d27333235272078323d2730272079323d2734303027202f3e203c6c696e652078313d27323235272079313d27333030272078323d27323235272079323d2735353027202f3e203c6c696e652078313d27323235272079313d27353530272078323d27313530272079323d2737353027202f3e203c6c696e652078313d27323235272079313d27353530272078323d27333030272079323d2737353027202f3e3c2f673e3c6720636c6173733d27636c6f74686573273e3c6c696e6520636c6173733d276d6f757468272078313d27313530272079313d27323235272078323d27333030272079323d27323235272f3e3c7465787420636c6173733d276c6574746572696e67206c616e67747970652720783d273439252720793d273537252720646f6d696e616e742d626173656c696e653d276d6964646c652720746578742d616e63686f723d276d6964646c65273e446576656c6f7065723c2f746578743e3c2f673e4142434445464748494a4b4c4d4e4f505152535455565758595a6162636465666768696a6b6c6d6e6f707172737475767778797a303132333435363738392b2f3c6720636c6173733d2768656164273e203c636972636c6520636c6173733d2766616365272063783d27323235272063793d273135302720723d2731353027202f3e3c706f6c796c696e6520636c6173733d276e6f73652720706f696e74733d273232352031323520323530203135302032323520313530272f3e3c6720636c6173733d2765796573273e203c656c6c6970736520636c6173733d27776869746573272063783d27313630272063793d27313030272072783d273330272072793d27323027202f3e203c656c6c6970736520636c6173733d27776869746573272063783d27323930272063793d27313030272072783d273330272072793d27323027202f3e3c636972636c6520636c6173733d27707570696c73272063783d27313630272063793d273130302720723d2736272f3e3c636972636c6520636c6173733d27707570696c73272063783d27323930272063793d273130302720723d2736272f3e3c2f673e3c706f6c796c696e6520636c6173733d27626f74746f6d2073686f7274732720706f696e74733d273332352036373520333235203532352031323520353235203132352035323520313235203637352032303020363735203232352036303020323530203637352033323520363735272066696c6c3d273c7061746820636c6173733d276d6f7574682720643d274d3430302c3232376332352e312c302c34332e36322c31332e32332c35342e37352c32342e3333613131322e33392c3131322e33392c302c302c312c31322e38312c31352e33372c39392e33342c39392e33342c302c302c302d31302e34322d36433433362e31332c3235302e32312c3431342e34372c3234382c3430302c323438632d32362e32322c302d34352e35352c362e39312d35372e31342c31322e37316139392e33342c39392e33342c302c302c302d31302e34322c362c3131322e33392c3131322e33392c302c302c312c31322e38312d31352e3337433335362e33382c3234302e32332c3337342e392c3232372c3430302c3232376d302d32632d35302c302d37352c35302d37352c35307332352d32352c37352d32352c37352c32352c37352c32352d32352d35302d37352d35305a27207472616e73666f726d3d277472616e736c617465282d313735202d323529272f3e3c706f6c796c696e6520636c6173733d27626f74746f6d2070616e74732720706f696e74733d273332352037323520333235203532352031323520353235203132352035323520313235203732352032303020373235203232352036303020323530203732352033323520373235272066696c6c3d273c7465787420636c6173733d276c6574746572696e6720646576747970652720783d273439252720793d273437252720646f6d696e616e742d626173656c696e653d276d6964646c652720746578742d616e63686f723d276d6964646c65273e3c2f746578743e3c706f6c796c696e6520636c6173733d27626f74746f6d20736b6972742720706f696e74733d27333235203637352033323520353235203132352035323520313235203532352031323520363735203230302036373520323235203637352032353020363735203332352036373527202066696c6c3d273c656c6c6970736520636c6173733d276d6f757468272063783d27323235272063793d27323235272072783d273530272072793d27353027202f3ea2646970667358221220833497588a2e1ef42dd73dfe5f632d2f02f9778de52093dfe93728e49bc7b6d264736f6c634300080400333c672066696c6c3d2723373536643065273e3c636972636c6520636c6173733d2769726973272063783d27313630272063793d273130302720723d27313627202f3e3c636972636c6520636c6173733d2769726973272063783d27323930272063793d273130302720723d27313627202f3e3c2f673e3c672066696c6c3d2723353233613238273e3c636972636c6520636c6173733d2769726973272063783d27313630272063793d273130302720723d27313627202f3e3c636972636c6520636c6173733d2769726973272063783d27323930272063793d273130302720723d27313627202f3e3c2f673e54686973206973206d7920537469636b2046696775726520446576656c6f70657273204e465420636f6e74726163742c207761676d69213c672066696c6c3d2723303837326533273e3c636972636c6520636c6173733d2769726973272063783d27313630272063793d273130302720723d27313627202f3e3c636972636c6520636c6173733d2769726973272063783d27323930272063793d273130302720723d27313627202f3e3c2f673e3c672066696c6c3d2723393639363936273e3c636972636c6520636c6173733d2769726973272063783d27313630272063793d273130302720723d27313627202f3e3c636972636c6520636c6173733d2769726973272063783d27323930272063793d273130302720723d27313627202f3e3c2f673e3c672066696c6c3d2723306237353161273e3c636972636c6520636c6173733d2769726973272063783d27313630272063793d273130302720723d27313627202f3e3c636972636c6520636c6173733d2769726973272063783d27323930272063793d273130302720723d27313627202f3e3c2f673e3c672066696c6c3d2723386234353133273e3c636972636c6520636c6173733d2769726973272063783d27313630272063793d273130302720723d27313627202f3e3c636972636c6520636c6173733d2769726973272063783d27323930272063793d273130302720723d27313627202f3e3c2f673e",
  "linkReferences": {},
  "deployedLinkReferences": {}
}