{
  "_format": "hh-sol-artifact-1",
  "contractName": "StickFigureDevelopersNFT",
  "sourceName": "contracts/StickFigureDevelopersNFT.sol",
  "abi": [
    {
      "anonymous": false,
      "inputs": [
        {
          "indexed": true,
          "internalType": "address",
          "name": "owner",
          "type": "address"
        },
        {
          "indexed": true,
          "internalType": "address",
          "name": "approved",
          "type": "address"
        },
        {
          "indexed": true,
          "internalType": "uint256",
          "name": "tokenId",
          "type": "uint256"
        }
      ],
      "name": "Approval",
      "type": "event"
    },
    {
      "anonymous": false,
      "inputs": [
        {
          "indexed": true,
          "internalType": "address",
          "name": "owner",
          "type": "address"
        },
        {
          "indexed": true,
          "internalType": "address",
          "name": "operator",
          "type": "address"
        },
        {
          "indexed": false,
          "internalType": "bool",
          "name": "approved",
          "type": "bool"
        }
      ],
      "name": "ApprovalForAll",
      "type": "event"
    },
    {
      "anonymous": false,
      "inputs": [
        {
          "indexed": true,
          "internalType": "address",
          "name": "from",
          "type": "address"
        },
        {
          "indexed": true,
          "internalType": "address",
          "name": "to",
          "type": "address"
        },
        {
          "indexed": true,
          "internalType": "uint256",
          "name": "tokenId",
          "type": "uint256"
        }
      ],
      "name": "Transfer",
      "type": "event"
    },
    {
      "inputs": [
        {
          "internalType": "address",
          "name": "to",
          "type": "address"
        },
        {
          "internalType": "uint256",
          "name": "tokenId",
          "type": "uint256"
        }
      ],
      "name": "approve",
      "outputs": [],
      "stateMutability": "nonpayable",
      "type": "function"
    },
    {
      "inputs": [
        {
          "internalType": "address",
          "name": "owner",
          "type": "address"
        }
      ],
      "name": "balanceOf",
      "outputs": [
        {
          "internalType": "uint256",
          "name": "",
          "type": "uint256"
        }
      ],
      "stateMutability": "view",
      "type": "function"
    },
    {
      "inputs": [],
      "name": "createDeveloper",
      "outputs": [],
      "stateMutability": "nonpayable",
      "type": "function"
    },
    {
      "inputs": [
        {
          "internalType": "uint256",
          "name": "",
          "type": "uint256"
        }
      ],
      "name": "devToOwner",
      "outputs": [
        {
          "internalType": "address",
          "name": "",
          "type": "address"
        }
      ],
      "stateMutability": "view",
      "type": "function"
    },
    {
      "inputs": [
        {
          "internalType": "uint256",
          "name": "",
          "type": "uint256"
        }
      ],
      "name": "developers",
      "outputs": [
        {
          "internalType": "enum StickFigureDeveloper.Iris",
          "name": "eyeColor",
          "type": "uint8"
        },
        {
          "internalType": "enum StickFigureDeveloper.Pupils",
          "name": "pupilSize",
          "type": "uint8"
        },
        {
          "internalType": "enum StickFigureDeveloper.Mouths",
          "name": "expression",
          "type": "uint8"
        },
        {
          "internalType": "enum StickFigureDeveloper.Clothes",
          "name": "clothesType",
          "type": "uint8"
        },
        {
          "components": [
            {
              "internalType": "string",
              "name": "rgbColor",
              "type": "string"
            },
            {
              "internalType": "bool",
              "name": "isDark",
              "type": "bool"
            }
          ],
          "internalType": "struct HexColorHelper.HexColor",
          "name": "shirtColor",
          "type": "tuple"
        },
        {
          "components": [
            {
              "internalType": "string",
              "name": "rgbColor",
              "type": "string"
            },
            {
              "internalType": "bool",
              "name": "isDark",
              "type": "bool"
            }
          ],
          "internalType": "struct HexColorHelper.HexColor",
          "name": "bottomColor",
          "type": "tuple"
        },
        {
          "internalType": "bool",
          "name": "is10x",
          "type": "bool"
        },
        {
          "internalType": "string",
          "name": "language",
          "type": "string"
        }
      ],
      "stateMutability": "view",
      "type": "function"
    },
    {
      "inputs": [
        {
          "internalType": "uint256",
          "name": "tokenId",
          "type": "uint256"
        }
      ],
      "name": "getApproved",
      "outputs": [
        {
          "internalType": "address",
          "name": "",
          "type": "address"
        }
      ],
      "stateMutability": "view",
      "type": "function"
    },
    {
      "inputs": [
        {
          "internalType": "uint256",
          "name": "tokenId",
          "type": "uint256"
        },
        {
          "internalType": "string",
          "name": "seed",
          "type": "string"
        }
      ],
      "name": "getRandomInt",
      "outputs": [
        {
          "internalType": "uint256",
          "name": "",
          "type": "uint256"
        }
      ],
      "stateMutability": "view",
      "type": "function"
    },
    {
      "inputs": [
        {
          "internalType": "address",
          "name": "owner",
          "type": "address"
        },
        {
          "internalType": "address",
          "name": "operator",
          "type": "address"
        }
      ],
      "name": "isApprovedForAll",
      "outputs": [
        {
          "internalType": "bool",
          "name": "",
          "type": "bool"
        }
      ],
      "stateMutability": "view",
      "type": "function"
    },
    {
      "inputs": [
        {
          "internalType": "uint256",
          "name": "",
          "type": "uint256"
        }
      ],
      "name": "languages",
      "outputs": [
        {
          "internalType": "string",
          "name": "",
          "type": "string"
        }
      ],
      "stateMutability": "view",
      "type": "function"
    },
    {
      "inputs": [],
      "name": "name",
      "outputs": [
        {
          "internalType": "string",
          "name": "",
          "type": "string"
        }
      ],
      "stateMutability": "view",
      "type": "function"
    },
    {
      "inputs": [
        {
          "internalType": "uint256",
          "name": "tokenId",
          "type": "uint256"
        }
      ],
      "name": "ownerOf",
      "outputs": [
        {
          "internalType": "address",
          "name": "",
          "type": "address"
        }
      ],
      "stateMutability": "view",
      "type": "function"
    },
    {
      "inputs": [
        {
          "internalType": "address",
          "name": "from",
          "type": "address"
        },
        {
          "internalType": "address",
          "name": "to",
          "type": "address"
        },
        {
          "internalType": "uint256",
          "name": "tokenId",
          "type": "uint256"
        }
      ],
      "name": "safeTransferFrom",
      "outputs": [],
      "stateMutability": "nonpayable",
      "type": "function"
    },
    {
      "inputs": [
        {
          "internalType": "address",
          "name": "from",
          "type": "address"
        },
        {
          "internalType": "address",
          "name": "to",
          "type": "address"
        },
        {
          "internalType": "uint256",
          "name": "tokenId",
          "type": "uint256"
        },
        {
          "internalType": "bytes",
          "name": "_data",
          "type": "bytes"
        }
      ],
      "name": "safeTransferFrom",
      "outputs": [],
      "stateMutability": "nonpayable",
      "type": "function"
    },
    {
      "inputs": [
        {
          "internalType": "address",
          "name": "operator",
          "type": "address"
        },
        {
          "internalType": "bool",
          "name": "approved",
          "type": "bool"
        }
      ],
      "name": "setApprovalForAll",
      "outputs": [],
      "stateMutability": "nonpayable",
      "type": "function"
    },
    {
      "inputs": [
        {
          "internalType": "bytes4",
          "name": "interfaceId",
          "type": "bytes4"
        }
      ],
      "name": "supportsInterface",
      "outputs": [
        {
          "internalType": "bool",
          "name": "",
          "type": "bool"
        }
      ],
      "stateMutability": "view",
      "type": "function"
    },
    {
      "inputs": [],
      "name": "symbol",
      "outputs": [
        {
          "internalType": "string",
          "name": "",
          "type": "string"
        }
      ],
      "stateMutability": "view",
      "type": "function"
    },
    {
      "inputs": [
        {
          "internalType": "uint256",
          "name": "tokenId",
          "type": "uint256"
        }
      ],
      "name": "tokenURI",
      "outputs": [
        {
          "internalType": "string",
          "name": "",
          "type": "string"
        }
      ],
      "stateMutability": "view",
      "type": "function"
    },
    {
      "inputs": [
        {
          "internalType": "address",
          "name": "from",
          "type": "address"
        },
        {
          "internalType": "address",
          "name": "to",
          "type": "address"
        },
        {
          "internalType": "uint256",
          "name": "tokenId",
          "type": "uint256"
        }
      ],
      "name": "transferFrom",
      "outputs": [],
      "stateMutability": "nonpayable",
      "type": "function"
    }
  ],
  "bytecode": "0x60806040526040518060c001604052806040518060a001604052806076815260200162006ce76076913981526020016040518060a001604052806076815260200162006ef66076913981526020016040518060a001604052806076815260200162006c716076913981526020016040518060a001604052806076815260200162006e806076913981526020016040518060a001604052806076815260200162006e0a6076913981526020016040518060a001604052806076815260200162006d94607691398152506007906006620000d992919062000955565b50604051806103a001604052806040518060400160405280600381526020017f416461000000000000000000000000000000000000000000000000000000000081525081526020016040518060400160405280600581526020017f424153494300000000000000000000000000000000000000000000000000000081525081526020016040518060400160405280600181526020017f430000000000000000000000000000000000000000000000000000000000000081525081526020016040518060400160405280600281526020017f432300000000000000000000000000000000000000000000000000000000000081525081526020016040518060400160405280600381526020017f432b2b000000000000000000000000000000000000000000000000000000000081525081526020016040518060400160405280600781526020017f436c6f6a7572650000000000000000000000000000000000000000000000000081525081526020016040518060400160405280600581526020017f436f626f6c00000000000000000000000000000000000000000000000000000081525081526020016040518060400160405280600481526020017f446172740000000000000000000000000000000000000000000000000000000081525081526020016040518060400160405280600681526020017f45726c616e67000000000000000000000000000000000000000000000000000081525081526020016040518060400160405280600281526020017f476f00000000000000000000000000000000000000000000000000000000000081525081526020016040518060400160405280600781526020017f4861736b656c6c0000000000000000000000000000000000000000000000000081525081526020016040518060400160405280600481526020017f4a6176610000000000000000000000000000000000000000000000000000000081525081526020016040518060400160405280600a81526020017f4a6176615363726970740000000000000000000000000000000000000000000081525081526020016040518060400160405280600581526020017f4a756c696100000000000000000000000000000000000000000000000000000081525081526020016040518060400160405280600681526020017f4b6f746c696e000000000000000000000000000000000000000000000000000081525081526020016040518060400160405280600381526020017f4c7561000000000000000000000000000000000000000000000000000000000081525081526020016040518060400160405280600581526020017f4f43616d6c00000000000000000000000000000000000000000000000000000081525081526020016040518060400160405280600b81526020017f4f626a6563746976652d4300000000000000000000000000000000000000000081525081526020016040518060400160405280600381526020017f504850000000000000000000000000000000000000000000000000000000000081525081526020016040518060400160405280600681526020017f50617363616c000000000000000000000000000000000000000000000000000081525081526020016040518060400160405280600481526020017f5065726c0000000000000000000000000000000000000000000000000000000081525081526020016040518060400160405280600681526020017f507974686f6e000000000000000000000000000000000000000000000000000081525081526020016040518060400160405280600181526020017f520000000000000000000000000000000000000000000000000000000000000081525081526020016040518060400160405280600481526020017f527562790000000000000000000000000000000000000000000000000000000081525081526020016040518060400160405280600481526020017f527573740000000000000000000000000000000000000000000000000000000081525081526020016040518060400160405280600581526020017f5363616c6100000000000000000000000000000000000000000000000000000081525081526020016040518060400160405280600881526020017f536f6c696469747900000000000000000000000000000000000000000000000081525081526020016040518060400160405280600581526020017f537769667400000000000000000000000000000000000000000000000000000081525081526020016040518060400160405280600a81526020017f5479706553637269707400000000000000000000000000000000000000000000815250815250600890601d620007a5929190620009bc565b50348015620007b357600080fd5b506040518060400160405280601c81526020017f537469636b2046696775726520446576656c6f706572732074657374000000008152506040518060400160405280600881526020017f535449434b46494700000000000000000000000000000000000000000000000081525081600090805190602001906200083892919062000a23565b5080600190805190602001906200085192919062000a23565b5050506200088360405180606001604052806037815260200162006d5d603791396200088960201b6200118b1760201c565b62000c6e565b6200092981604051602401620008a0919062000b82565b6040516020818303038152906040527f41304fac000000000000000000000000000000000000000000000000000000007bffffffffffffffffffffffffffffffffffffffffffffffffffffffff19166020820180517bffffffffffffffffffffffffffffffffffffffffffffffffffffffff83818316178352505050506200092c60201b60201c565b50565b60008151905060006a636f6e736f6c652e6c6f679050602083016000808483855afa5050505050565b828054828255906000526020600020908101928215620009a9579160200282015b82811115620009a85782518290805190602001906200099792919062000a23565b509160200191906001019062000976565b5b509050620009b8919062000ab4565b5090565b82805482825590600052602060002090810192821562000a10579160200282015b8281111562000a0f578251829080519060200190620009fe92919062000a23565b5091602001919060010190620009dd565b5b50905062000a1f919062000ab4565b5090565b82805462000a319062000bf8565b90600052602060002090601f01602090048101928262000a55576000855562000aa1565b82601f1062000a7057805160ff191683800117855562000aa1565b8280016001018555821562000aa1579182015b8281111562000aa057825182559160200191906001019062000a83565b5b50905062000ab0919062000adc565b5090565b5b8082111562000ad8576000818162000ace919062000afb565b5060010162000ab5565b5090565b5b8082111562000af757600081600090555060010162000add565b5090565b50805462000b099062000bf8565b6000825580601f1062000b1d575062000b3e565b601f01602090049060005260206000209081019062000b3d919062000adc565b5b50565b600062000b4e8262000ba6565b62000b5a818562000bb1565b935062000b6c81856020860162000bc2565b62000b778162000c5d565b840191505092915050565b6000602082019050818103600083015262000b9e818462000b41565b905092915050565b600081519050919050565b600082825260208201905092915050565b60005b8381101562000be257808201518184015260208101905062000bc5565b8381111562000bf2576000848401525b50505050565b6000600282049050600182168062000c1157607f821691505b6020821081141562000c285762000c2762000c2e565b5b50919050565b7f4e487b7100000000000000000000000000000000000000000000000000000000600052602260045260246000fd5b6000601f19601f8301169050919050565b615ff38062000c7e6000396000f3fe608060405234801561001057600080fd5b50600436106101165760003560e01c8063644d3984116100a2578063b88d4fde11610071578063b88d4fde146102f1578063c87b56dd1461030d578063dc05990f1461033d578063e985e9c51461036d578063eff25cd61461039d57610116565b8063644d39841461027d57806370a082311461028757806395d89b41146102b7578063a22cb465146102d557610116565b806323b872dd116100e957806323b872dd146101b557806342842e0e146101d15780635ccb5ac5146101ed5780635ffb03c91461021d5780636352211e1461024d57610116565b806301ffc9a71461011b57806306fdde031461014b578063081812fc14610169578063095ea7b314610199575b600080fd5b61013560048036038101906101309190613a92565b6103d4565b604051610142919061438d565b60405180910390f35b6101536104b6565b604051610160919061443b565b60405180910390f35b610183600480360381019061017e9190613ae4565b610548565b6040516101909190614326565b60405180910390f35b6101b360048036038101906101ae9190613a56565b6105cd565b005b6101cf60048036038101906101ca9190613950565b6106e5565b005b6101eb60048036038101906101e69190613950565b610745565b005b61020760048036038101906102029190613b0d565b610765565b604051610214919061469b565b60405180910390f35b61023760048036038101906102329190613ae4565b61079d565b604051610244919061443b565b60405180910390f35b61026760048036038101906102629190613ae4565b610849565b6040516102749190614326565b60405180910390f35b6102856108fb565b005b6102a1600480360381019061029c91906138eb565b6109b6565b6040516102ae919061469b565b60405180910390f35b6102bf610a6e565b6040516102cc919061443b565b60405180910390f35b6102ef60048036038101906102ea9190613a1a565b610b00565b005b61030b6004803603810190610306919061399f565b610c81565b005b61032760048036038101906103229190613ae4565b610ce3565b604051610334919061443b565b60405180910390f35b61035760048036038101906103529190613ae4565b610e35565b6040516103649190614326565b60405180910390f35b61038760048036038101906103829190613914565b610e68565b604051610394919061438d565b60405180910390f35b6103b760048036038101906103b29190613ae4565b610efc565b6040516103cb9897969594939291906143a8565b60405180910390f35b60007f80ac58cd000000000000000000000000000000000000000000000000000000007bffffffffffffffffffffffffffffffffffffffffffffffffffffffff1916827bffffffffffffffffffffffffffffffffffffffffffffffffffffffff1916148061049f57507f5b5e139f000000000000000000000000000000000000000000000000000000007bffffffffffffffffffffffffffffffffffffffffffffffffffffffff1916827bffffffffffffffffffffffffffffffffffffffffffffffffffffffff1916145b806104af57506104ae82611224565b5b9050919050565b6060600080546104c590614a87565b80601f01602080910402602001604051908101604052809291908181526020018280546104f190614a87565b801561053e5780601f106105135761010080835404028352916020019161053e565b820191906000526020600020905b81548152906001019060200180831161052157829003601f168201915b5050505050905090565b60006105538261128e565b610592576040517f08c379a0000000000000000000000000000000000000000000000000000000008152600401610589906145fb565b60405180910390fd5b6004600083815260200190815260200160002060009054906101000a900473ffffffffffffffffffffffffffffffffffffffff169050919050565b60006105d882610849565b90508073ffffffffffffffffffffffffffffffffffffffff168373ffffffffffffffffffffffffffffffffffffffff161415610649576040517f08c379a00000000000000000000000000000000000000000000000000000000081526004016106409061465b565b60405180910390fd5b8073ffffffffffffffffffffffffffffffffffffffff166106686112fa565b73ffffffffffffffffffffffffffffffffffffffff1614806106975750610696816106916112fa565b610e68565b5b6106d6576040517f08c379a00000000000000000000000000000000000000000000000000000000081526004016106cd9061453b565b60405180910390fd5b6106e08383611302565b505050565b6106f66106f06112fa565b826113bb565b610735576040517f08c379a000000000000000000000000000000000000000000000000000000000815260040161072c9061467b565b60405180910390fd5b610740838383611499565b505050565b61076083838360405180602001604052806000815250610c81565b505050565b600042838360405160200161077c93929190614292565b6040516020818303038152906040528051906020012060001c905092915050565b600881815481106107ad57600080fd5b9060005260206000200160009150905080546107c890614a87565b80601f01602080910402602001604051908101604052809291908181526020018280546107f490614a87565b80156108415780601f1061081657610100808354040283529160200191610841565b820191906000526020600020905b81548152906001019060200180831161082457829003601f168201915b505050505081565b6000806002600084815260200190815260200160002060009054906101000a900473ffffffffffffffffffffffffffffffffffffffff169050600073ffffffffffffffffffffffffffffffffffffffff168173ffffffffffffffffffffffffffffffffffffffff1614156108f2576040517f08c379a00000000000000000000000000000000000000000000000000000000081526004016108e99061457b565b60405180910390fd5b80915050919050565b6000610907600c6116f5565b905061091281611703565b61092133600980549050611e4f565b61098660098054905061096261093e61093985611e6d565b611f00565b60405160200161094e9190614265565b604051602081830303815290604052611f00565b6040516020016109729190614243565b6040516020818303038152906040526120be565b610990600c612132565b6109b36040518060600160405280602581526020016156f3602591398233612148565b50565b60008073ffffffffffffffffffffffffffffffffffffffff168273ffffffffffffffffffffffffffffffffffffffff161415610a27576040517f08c379a0000000000000000000000000000000000000000000000000000000008152600401610a1e9061455b565b60405180910390fd5b600360008373ffffffffffffffffffffffffffffffffffffffff1673ffffffffffffffffffffffffffffffffffffffff168152602001908152602001600020549050919050565b606060018054610a7d90614a87565b80601f0160208091040260200160405190810160405280929190818152602001828054610aa990614a87565b8015610af65780601f10610acb57610100808354040283529160200191610af6565b820191906000526020600020905b815481529060010190602001808311610ad957829003601f168201915b5050505050905090565b610b086112fa565b73ffffffffffffffffffffffffffffffffffffffff168273ffffffffffffffffffffffffffffffffffffffff161415610b76576040517f08c379a0000000000000000000000000000000000000000000000000000000008152600401610b6d906144fb565b60405180910390fd5b8060056000610b836112fa565b73ffffffffffffffffffffffffffffffffffffffff1673ffffffffffffffffffffffffffffffffffffffff16815260200190815260200160002060008473ffffffffffffffffffffffffffffffffffffffff1673ffffffffffffffffffffffffffffffffffffffff16815260200190815260200160002060006101000a81548160ff0219169083151502179055508173ffffffffffffffffffffffffffffffffffffffff16610c306112fa565b73ffffffffffffffffffffffffffffffffffffffff167f17307eab39ab6107e8899845ad3d59bd9653f200f220920489ca2b5937696c3183604051610c75919061438d565b60405180910390a35050565b610c92610c8c6112fa565b836113bb565b610cd1576040517f08c379a0000000000000000000000000000000000000000000000000000000008152600401610cc89061467b565b60405180910390fd5b610cdd848484846121e7565b50505050565b6060610cee8261128e565b610d2d576040517f08c379a0000000000000000000000000000000000000000000000000000000008152600401610d24906145db565b60405180910390fd5b6000600660008481526020019081526020016000208054610d4d90614a87565b80601f0160208091040260200160405190810160405280929190818152602001828054610d7990614a87565b8015610dc65780601f10610d9b57610100808354040283529160200191610dc6565b820191906000526020600020905b815481529060010190602001808311610da957829003601f168201915b505050505090506000610dd7612243565b9050600081511415610ded578192505050610e30565b600082511115610e22578082604051602001610e0a9291906140bb565b60405160208183030381529060405292505050610e30565b610e2b8461225a565b925050505b919050565b600a6020528060005260406000206000915054906101000a900473ffffffffffffffffffffffffffffffffffffffff1681565b6000600560008473ffffffffffffffffffffffffffffffffffffffff1673ffffffffffffffffffffffffffffffffffffffff16815260200190815260200160002060008373ffffffffffffffffffffffffffffffffffffffff1673ffffffffffffffffffffffffffffffffffffffff16815260200190815260200160002060009054906101000a900460ff16905092915050565b60098181548110610f0c57600080fd5b90600052602060002090600702016000915090508060000160009054906101000a900460ff16908060000160019054906101000a900460ff16908060000160029054906101000a900460ff16908060000160039054906101000a900460ff169080600101604051806040016040529081600082018054610f8b90614a87565b80601f0160208091040260200160405190810160405280929190818152602001828054610fb790614a87565b80156110045780601f10610fd957610100808354040283529160200191611004565b820191906000526020600020905b815481529060010190602001808311610fe757829003601f168201915b505050505081526020016001820160009054906101000a900460ff161515151581525050908060030160405180604001604052908160008201805461104890614a87565b80601f016020809104026020016040519081016040528092919081815260200182805461107490614a87565b80156110c15780601f10611096576101008083540402835291602001916110c1565b820191906000526020600020905b8154815290600101906020018083116110a457829003601f168201915b505050505081526020016001820160009054906101000a900460ff161515151581525050908060050160009054906101000a900460ff169080600601805461110890614a87565b80601f016020809104026020016040519081016040528092919081815260200182805461113490614a87565b80156111815780601f1061115657610100808354040283529160200191611181565b820191906000526020600020905b81548152906001019060200180831161116457829003601f168201915b5050505050905088565b6112218160405160240161119f919061443b565b6040516020818303038152906040527f41304fac000000000000000000000000000000000000000000000000000000007bffffffffffffffffffffffffffffffffffffffffffffffffffffffff19166020820180517bffffffffffffffffffffffffffffffffffffffffffffffffffffffff8381831617835250505050612301565b50565b60007f01ffc9a7000000000000000000000000000000000000000000000000000000007bffffffffffffffffffffffffffffffffffffffffffffffffffffffff1916827bffffffffffffffffffffffffffffffffffffffffffffffffffffffff1916149050919050565b60008073ffffffffffffffffffffffffffffffffffffffff166002600084815260200190815260200160002060009054906101000a900473ffffffffffffffffffffffffffffffffffffffff1673ffffffffffffffffffffffffffffffffffffffff1614159050919050565b600033905090565b816004600083815260200190815260200160002060006101000a81548173ffffffffffffffffffffffffffffffffffffffff021916908373ffffffffffffffffffffffffffffffffffffffff160217905550808273ffffffffffffffffffffffffffffffffffffffff1661137583610849565b73ffffffffffffffffffffffffffffffffffffffff167f8c5be1e5ebec7d5bd14f71427d1e84f3dd0314c0f7b2291e5b200ac8c7c3b92560405160405180910390a45050565b60006113c68261128e565b611405576040517f08c379a00000000000000000000000000000000000000000000000000000000081526004016113fc9061451b565b60405180910390fd5b600061141083610849565b90508073ffffffffffffffffffffffffffffffffffffffff168473ffffffffffffffffffffffffffffffffffffffff16148061147f57508373ffffffffffffffffffffffffffffffffffffffff1661146784610548565b73ffffffffffffffffffffffffffffffffffffffff16145b80611490575061148f8185610e68565b5b91505092915050565b8273ffffffffffffffffffffffffffffffffffffffff166114b982610849565b73ffffffffffffffffffffffffffffffffffffffff161461150f576040517f08c379a00000000000000000000000000000000000000000000000000000000081526004016115069061461b565b60405180910390fd5b600073ffffffffffffffffffffffffffffffffffffffff168273ffffffffffffffffffffffffffffffffffffffff16141561157f576040517f08c379a0000000000000000000000000000000000000000000000000000000008152600401611576906144db565b60405180910390fd5b61158a83838361232a565b611595600082611302565b6001600360008573ffffffffffffffffffffffffffffffffffffffff1673ffffffffffffffffffffffffffffffffffffffff16815260200190815260200160002060008282546115e591906148fb565b925050819055506001600360008473ffffffffffffffffffffffffffffffffffffffff1673ffffffffffffffffffffffffffffffffffffffff168152602001908152602001600020600082825461163c91906147e9565b92505081905550816002600083815260200190815260200160002060006101000a81548173ffffffffffffffffffffffffffffffffffffffff021916908373ffffffffffffffffffffffffffffffffffffffff160217905550808273ffffffffffffffffffffffffffffffffffffffff168473ffffffffffffffffffffffffffffffffffffffff167fddf252ad1be2c89b69c2b068fc378daa952ba7f163c4a11628f55a4df523b3ef60405160405180910390a4505050565b600081600001549050919050565b600960405180610100016040528061175460006005866040518060400160405280600481526020017f697269730000000000000000000000000000000000000000000000000000000081525061232f565b600581111561178c577f4e487b7100000000000000000000000000000000000000000000000000000000600052602160045260246000fd5b60058111156117c4577f4e487b7100000000000000000000000000000000000000000000000000000000600052602160045260246000fd5b8152602001600961180e60006009876040518060400160405280600581526020017f707570696c00000000000000000000000000000000000000000000000000000081525061232f565b1061181a57600161181d565b60005b60ff166001811115611858577f4e487b7100000000000000000000000000000000000000000000000000000000600052602160045260246000fd5b6001811115611890577f4e487b7100000000000000000000000000000000000000000000000000000000600052602160045260246000fd5b81526020016118d860006003866040518060400160405280600681526020017f6d6f75746873000000000000000000000000000000000000000000000000000081525061232f565b6003811115611910577f4e487b7100000000000000000000000000000000000000000000000000000000600052602160045260246000fd5b6003811115611948577f4e487b7100000000000000000000000000000000000000000000000000000000600052602160045260246000fd5b815260200161199060006002866040518060400160405280600781526020017f636c6f746865730000000000000000000000000000000000000000000000000081525061232f565b60038111156119c8577f4e487b7100000000000000000000000000000000000000000000000000000000600052602160045260246000fd5b6003811115611a00577f4e487b7100000000000000000000000000000000000000000000000000000000600052602160045260246000fd5b8152602001611a44846040518060400160405280600581526020017f736869727400000000000000000000000000000000000000000000000000000081525061239a565b8152602001611a88846040518060400160405280600781526020017f636c6f746865730000000000000000000000000000000000000000000000000081525061239a565b81526020016046611ad260006063876040518060400160405280600381526020017f313078000000000000000000000000000000000000000000000000000000000081525061232f565b11151581526020016008611b2f60006001600880549050611af391906148fb565b876040518060400160405280600481526020017f6c616e670000000000000000000000000000000000000000000000000000000081525061232f565b81548110611b66577f4e487b7100000000000000000000000000000000000000000000000000000000600052603260045260246000fd5b906000526020600020018054611b7b90614a87565b80601f0160208091040260200160405190810160405280929190818152602001828054611ba790614a87565b8015611bf45780601f10611bc957610100808354040283529160200191611bf4565b820191906000526020600020905b815481529060010190602001808311611bd757829003601f168201915b5050505050815250908060018154018082558091505060019003906000526020600020906007020160009091909190915060008201518160000160006101000a81548160ff02191690836005811115611c76577f4e487b7100000000000000000000000000000000000000000000000000000000600052602160045260246000fd5b021790555060208201518160000160016101000a81548160ff02191690836001811115611ccc577f4e487b7100000000000000000000000000000000000000000000000000000000600052602160045260246000fd5b021790555060408201518160000160026101000a81548160ff02191690836003811115611d22577f4e487b7100000000000000000000000000000000000000000000000000000000600052602160045260246000fd5b021790555060608201518160000160036101000a81548160ff02191690836003811115611d78577f4e487b7100000000000000000000000000000000000000000000000000000000600052602160045260246000fd5b02179055506080820151816001016000820151816000019080519060200190611da29291906136f3565b5060208201518160010160006101000a81548160ff021916908315150217905550505060a0820151816003016000820151816000019080519060200190611dea9291906136f3565b5060208201518160010160006101000a81548160ff021916908315150217905550505060c08201518160050160006101000a81548160ff02191690831515021790555060e0820151816006019080519060200190611e499291906136f3565b50505050565b611e698282604051806020016040528060008152506126bf565b5050565b60606040518061030001604052806102d881526020016157186102d89139611e948361271a565b611e9d8461285a565b6040518061014001604052806101058152602001615ade6101059139611ec286612b29565b611ecb87612d2d565b611ed488612f87565b604051602001611eea9796959493929190614110565b6040516020818303038152906040529050919050565b60606000825190506000811415611f2957604051806020016040528060008152509150506120b9565b60006003600283611f3a91906147e9565b611f449190614870565b6004611f5091906148a1565b90506000602082611f6191906147e9565b67ffffffffffffffff811115611fa0577f4e487b7100000000000000000000000000000000000000000000000000000000600052604160045260246000fd5b6040519080825280601f01601f191660200182016040528015611fd25781602001600182028036833780820191505090505b5090506000604051806060016040528060408152602001615a9e604091399050600181016020830160005b868110156120765760038101905062ffffff818a015116603f8160121c168401518060081b905060ff603f83600c1c1686015116810190508060081b905060ff603f8360061c1686015116810190508060081b905060ff603f831686015116810190508060e01b90508084526004840193505050611ffd565b50600386066001811461209057600281146120a0576120ab565b613d3d60f01b60028303526120ab565b603d60f81b60018303525b508484525050819450505050505b919050565b6120c78261128e565b612106576040517f08c379a00000000000000000000000000000000000000000000000000000000081526004016120fd9061459b565b60405180910390fd5b8060066000848152602001908152602001600020908051906020019061212d9291906136f3565b505050565b6001816000016000828254019250508190555050565b6121e28383836040516024016121609392919061445d565b6040516020818303038152906040527fe3849f79000000000000000000000000000000000000000000000000000000007bffffffffffffffffffffffffffffffffffffffffffffffffffffffff19166020820180517bffffffffffffffffffffffffffffffffffffffffffffffffffffffff8381831617835250505050612301565b505050565b6121f2848484611499565b6121fe848484846131ce565b61223d576040517f08c379a00000000000000000000000000000000000000000000000000000000081526004016122349061449b565b60405180910390fd5b50505050565b606060405180602001604052806000815250905090565b60606122658261128e565b6122a4576040517f08c379a000000000000000000000000000000000000000000000000000000000815260040161229b9061463b565b60405180910390fd5b60006122ae612243565b905060008151116122ce57604051806020016040528060008152506122f9565b806122d884613365565b6040516020016122e99291906140bb565b6040516020818303038152906040525b915050919050565b60008151905060006a636f6e736f6c652e6c6f679050602083016000808483855afa5050505050565b505050565b6000848560018661234091906147e9565b61234a91906148fb565b42878787876040516020016123639594939291906142cb565b6040516020818303038152906040528051906020012060001c6123869190614b3d565b61239091906147e9565b9050949350505050565b6123a2613779565b60004284846040516020016123b993929190614292565b6040516020818303038152906040528051906020012090506000600767ffffffffffffffff811115612414577f4e487b7100000000000000000000000000000000000000000000000000000000600052604160045260246000fd5b6040519080825280601f01601f1916602001820160405280156124465781602001600182028036833780820191505090505b50905060008080600090507f2300000000000000000000000000000000000000000000000000000000000000846000815181106124ac577f4e487b7100000000000000000000000000000000000000000000000000000000600052603260045260246000fd5b60200101907effffffffffffffffffffffffffffffffffffffffffffffffffffffffffffff1916908160001a90535060005b600681101561267c57600f868260208110612522577f4e487b7100000000000000000000000000000000000000000000000000000000600052603260045260246000fd5b1a60f81b60f81c169250600060028261253b9190614b3d565b1415612553578260ff168261255091906147b1565b91505b7f3031323334353637383961626364656600000000000000000000000000000000600f8783602081106125af577f4e487b7100000000000000000000000000000000000000000000000000000000600052603260045260246000fd5b1a60f81b60f81c1660ff16601081106125f1577f4e487b7100000000000000000000000000000000000000000000000000000000600052603260045260246000fd5b1a60f81b8560018361260391906147e9565b8151811061263a577f4e487b7100000000000000000000000000000000000000000000000000000000600052603260045260246000fd5b60200101907effffffffffffffffffffffffffffffffffffffffffffffffffffffffffffff1916908160001a905350808061267490614aea565b9150506124de565b50600860038261268c919061483f565b61ffff16101561269b57600192505b60405180604001604052808581526020018415158152509550505050505092915050565b6126c98383613512565b6126d660008484846131ce565b612715576040517f08c379a000000000000000000000000000000000000000000000000000000000815260040161270c9061449b565b60405180910390fd5b505050565b6060600061275d836040518060400160405280600581526020017f736869727400000000000000000000000000000000000000000000000000000081525061239a565b905060006040518060400160405280600481526020017f233030300000000000000000000000000000000000000000000000000000000081525090508160200151156127dc576040518060400160405280600481526020017f236666660000000000000000000000000000000000000000000000000000000081525090505b6040518060c00160405280608d81526020016153c8608d913982600001516040518060400160405280600481526020017f27202f3e00000000000000000000000000000000000000000000000000000000815250604051602001612842939291906140df565b60405160208183030381529060405292505050919050565b6060600060098381548110612898577f4e487b7100000000000000000000000000000000000000000000000000000000600052603260045260246000fd5b906000526020600020906007020160000160039054906101000a900460ff1690506060600060038111156128f5577f4e487b7100000000000000000000000000000000000000000000000000000000600052602160045260246000fd5b82600381111561292e577f4e487b7100000000000000000000000000000000000000000000000000000000600052602160045260246000fd5b14806129aa57506001600381111561296f577f4e487b7100000000000000000000000000000000000000000000000000000000600052602160045260246000fd5b8260038111156129a8577f4e487b7100000000000000000000000000000000000000000000000000000000600052602160045260246000fd5b145b156129cf576040518060a0016040528060768152602001615e2f607691399050612a85565b60026003811115612a09577f4e487b7100000000000000000000000000000000000000000000000000000000600052602160045260246000fd5b826003811115612a42577f4e487b7100000000000000000000000000000000000000000000000000000000600052602160045260246000fd5b1415612a68576040518060a0016040528060778152602001615f0c607791399050612a84565b6040518060a0016040528060778152602001615c476077913990505b5b80612ac5856040518060400160405280600781526020017f636c6f746865730000000000000000000000000000000000000000000000000081525061239a565b600001516040518060400160405280600481526020017f27202f3e00000000000000000000000000000000000000000000000000000000815250604051602001612b11939291906141e3565b60405160208183030381529060405292505050919050565b6060600760098381548110612b67577f4e487b7100000000000000000000000000000000000000000000000000000000600052603260045260246000fd5b906000526020600020906007020160000160009054906101000a900460ff166005811115612bbe577f4e487b7100000000000000000000000000000000000000000000000000000000600052602160045260246000fd5b81548110612bf5577f4e487b7100000000000000000000000000000000000000000000000000000000600052603260045260246000fd5b90600052602060002001600180811115612c38577f4e487b7100000000000000000000000000000000000000000000000000000000600052602160045260246000fd5b60098481548110612c72577f4e487b7100000000000000000000000000000000000000000000000000000000600052603260045260246000fd5b906000526020600020906007020160000160019054906101000a900460ff166001811115612cc9577f4e487b7100000000000000000000000000000000000000000000000000000000600052602160045260246000fd5b14612cec576040518060a0016040528060648152602001615be360649139612d06565b6040518060a001604052806066815260200161568d606691395b604051602001612d1792919061421f565b6040516020818303038152906040529050919050565b6060600060098381548110612d6b577f4e487b7100000000000000000000000000000000000000000000000000000000600052603260045260246000fd5b906000526020600020906007020160000160029054906101000a900460ff169050606060006003811115612dc8577f4e487b7100000000000000000000000000000000000000000000000000000000600052602160045260246000fd5b826003811115612e01577f4e487b7100000000000000000000000000000000000000000000000000000000600052602160045260246000fd5b1415612e2a57604051806102600160405280610238815260200161545561023891399050612f7d565b60016003811115612e64577f4e487b7100000000000000000000000000000000000000000000000000000000600052602160045260246000fd5b826003811115612e9d577f4e487b7100000000000000000000000000000000000000000000000000000000600052602160045260246000fd5b1415612ec657604051806101a001604052806101718152602001615cbe61017191399050612f7c565b60026003811115612f00577f4e487b7100000000000000000000000000000000000000000000000000000000600052602160045260246000fd5b826003811115612f39577f4e487b7100000000000000000000000000000000000000000000000000000000600052602160045260246000fd5b1415612f5f576040518060600160405280603981526020016159f0603991399050612f7b565b6040518060600160405280603b8152602001615f83603b913990505b5b5b8092505050919050565b606060098281548110612fc3577f4e487b7100000000000000000000000000000000000000000000000000000000600052603260045260246000fd5b906000526020600020906007020160010160010160009054906101000a900460ff16613024576040518060400160405280601081526020017f3c6720636c6173733d276461726b273e0000000000000000000000000000000081525061305b565b6040518060400160405280601181526020017f3c6720636c6173733d276c69676874273e0000000000000000000000000000008152505b60098381548110613095577f4e487b7100000000000000000000000000000000000000000000000000000000600052603260045260246000fd5b906000526020600020906007020160050160009054906101000a900460ff166130d6576040518060a0016040528060678152602001615ea5606791396130f0565b6040518060a00160405280606a815260200161535e606a91395b6040518060a00160405280606181526020016152fd6061913960098581548110613143577f4e487b7100000000000000000000000000000000000000000000000000000000600052603260045260246000fd5b90600052602060002090600702016006016040518060400160405280600781526020017f3c2f746578743e000000000000000000000000000000000000000000000000008152506040518060a0016040528060758152602001615a29607591396040516020016131b89695949392919061418b565b6040516020818303038152906040529050919050565b60006131ef8473ffffffffffffffffffffffffffffffffffffffff166136e0565b15613358578373ffffffffffffffffffffffffffffffffffffffff1663150b7a026132186112fa565b8786866040518563ffffffff1660e01b815260040161323a9493929190614341565b602060405180830381600087803b15801561325457600080fd5b505af192505050801561328557506040513d601f19601f820116820180604052508101906132829190613abb565b60015b613308573d80600081146132b5576040519150601f19603f3d011682016040523d82523d6000602084013e6132ba565b606091505b50600081511415613300576040517f08c379a00000000000000000000000000000000000000000000000000000000081526004016132f79061449b565b60405180910390fd5b805181602001fd5b63150b7a0260e01b7bffffffffffffffffffffffffffffffffffffffffffffffffffffffff1916817bffffffffffffffffffffffffffffffffffffffffffffffffffffffff19161491505061335d565b600190505b949350505050565b606060008214156133ad576040518060400160405280600181526020017f3000000000000000000000000000000000000000000000000000000000000000815250905061350d565b600082905060005b600082146133df5780806133c890614aea565b915050600a826133d89190614870565b91506133b5565b60008167ffffffffffffffff811115613421577f4e487b7100000000000000000000000000000000000000000000000000000000600052604160045260246000fd5b6040519080825280601f01601f1916602001820160405280156134535781602001600182028036833780820191505090505b5090505b600085146135065760018261346c91906148fb565b9150600a8561347b9190614b3d565b603061348791906147e9565b60f81b8183815181106134c3577f4e487b7100000000000000000000000000000000000000000000000000000000600052603260045260246000fd5b60200101907effffffffffffffffffffffffffffffffffffffffffffffffffffffffffffff1916908160001a905350600a856134ff9190614870565b9450613457565b8093505050505b919050565b600073ffffffffffffffffffffffffffffffffffffffff168273ffffffffffffffffffffffffffffffffffffffff161415613582576040517f08c379a0000000000000000000000000000000000000000000000000000000008152600401613579906145bb565b60405180910390fd5b61358b8161128e565b156135cb576040517f08c379a00000000000000000000000000000000000000000000000000000000081526004016135c2906144bb565b60405180910390fd5b6135d76000838361232a565b6001600360008473ffffffffffffffffffffffffffffffffffffffff1673ffffffffffffffffffffffffffffffffffffffff168152602001908152602001600020600082825461362791906147e9565b92505081905550816002600083815260200190815260200160002060006101000a81548173ffffffffffffffffffffffffffffffffffffffff021916908373ffffffffffffffffffffffffffffffffffffffff160217905550808273ffffffffffffffffffffffffffffffffffffffff16600073ffffffffffffffffffffffffffffffffffffffff167fddf252ad1be2c89b69c2b068fc378daa952ba7f163c4a11628f55a4df523b3ef60405160405180910390a45050565b600080823b905060008111915050919050565b8280546136ff90614a87565b90600052602060002090601f0160209004810192826137215760008555613768565b82601f1061373a57805160ff1916838001178555613768565b82800160010185558215613768579182015b8281111561376757825182559160200191906001019061374c565b5b5090506137759190613795565b5090565b6040518060400160405280606081526020016000151581525090565b5b808211156137ae576000816000905550600101613796565b5090565b60006137c56137c0846146db565b6146b6565b9050828152602081018484840111156137dd57600080fd5b6137e8848285614a45565b509392505050565b60006138036137fe8461470c565b6146b6565b90508281526020810184848401111561381b57600080fd5b613826848285614a45565b509392505050565b60008135905061383d816152a0565b92915050565b600081359050613852816152b7565b92915050565b600081359050613867816152ce565b92915050565b60008151905061387c816152ce565b92915050565b600082601f83011261389357600080fd5b81356138a38482602086016137b2565b91505092915050565b600082601f8301126138bd57600080fd5b81356138cd8482602086016137f0565b91505092915050565b6000813590506138e5816152e5565b92915050565b6000602082840312156138fd57600080fd5b600061390b8482850161382e565b91505092915050565b6000806040838503121561392757600080fd5b60006139358582860161382e565b92505060206139468582860161382e565b9150509250929050565b60008060006060848603121561396557600080fd5b60006139738682870161382e565b93505060206139848682870161382e565b9250506040613995868287016138d6565b9150509250925092565b600080600080608085870312156139b557600080fd5b60006139c38782880161382e565b94505060206139d48782880161382e565b93505060406139e5878288016138d6565b925050606085013567ffffffffffffffff811115613a0257600080fd5b613a0e87828801613882565b91505092959194509250565b60008060408385031215613a2d57600080fd5b6000613a3b8582860161382e565b9250506020613a4c85828601613843565b9150509250929050565b60008060408385031215613a6957600080fd5b6000613a778582860161382e565b9250506020613a88858286016138d6565b9150509250929050565b600060208284031215613aa457600080fd5b6000613ab284828501613858565b91505092915050565b600060208284031215613acd57600080fd5b6000613adb8482850161386d565b91505092915050565b600060208284031215613af657600080fd5b6000613b04848285016138d6565b91505092915050565b60008060408385031215613b2057600080fd5b6000613b2e858286016138d6565b925050602083013567ffffffffffffffff811115613b4b57600080fd5b613b57858286016138ac565b9150509250929050565b613b6a8161492f565b82525050565b613b7981614941565b82525050565b613b8881614941565b82525050565b6000613b9982614752565b613ba38185614768565b9350613bb3818560208601614a54565b613bbc81614c59565b840191505092915050565b6000613bd282614752565b613bdc8185614779565b9350613bec818560208601614a54565b80840191505092915050565b613c01816149fd565b82525050565b613c1081614a0f565b82525050565b613c1f81614a21565b82525050565b613c2e81614a33565b82525050565b6000613c3f8261475d565b613c498185614784565b9350613c59818560208601614a54565b613c6281614c59565b840191505092915050565b6000613c788261475d565b613c828185614795565b9350613c92818560208601614a54565b613c9b81614c59565b840191505092915050565b6000613cb18261475d565b613cbb81856147a6565b9350613ccb818560208601614a54565b80840191505092915050565b60008154613ce481614a87565b613cee81866147a6565b94506001821660008114613d095760018114613d1a57613d4d565b60ff19831686528186019350613d4d565b613d238561473d565b60005b83811015613d4557815481890152600182019150602081019050613d26565b838801955050505b50505092915050565b6000613d63603283614795565b9150613d6e82614c6a565b604082019050919050565b6000613d86601c83614795565b9150613d9182614cb9565b602082019050919050565b6000613da96005836147a6565b9150613db482614ce2565b600582019050919050565b6000613dcc602483614795565b9150613dd782614d0b565b604082019050919050565b6000613def601983614795565b9150613dfa82614d5a565b602082019050919050565b6000613e12602c83614795565b9150613e1d82614d83565b604082019050919050565b6000613e35603883614795565b9150613e4082614dd2565b604082019050919050565b6000613e58602a83614795565b9150613e6382614e21565b604082019050919050565b6000613e7b602983614795565b9150613e8682614e70565b604082019050919050565b6000613e9e602e83614795565b9150613ea982614ebf565b604082019050919050565b6000613ec16002836147a6565b9150613ecc82614f0e565b600282019050919050565b6000613ee4602083614795565b9150613eef82614f37565b602082019050919050565b6000613f07603183614795565b9150613f1282614f60565b604082019050919050565b6000613f2a602c83614795565b9150613f3582614faf565b604082019050919050565b6000613f4d602983614795565b9150613f5882614ffe565b604082019050919050565b6000613f70602f83614795565b9150613f7b8261504d565b604082019050919050565b6000613f936004836147a6565b9150613f9e8261509c565b600482019050919050565b6000613fb6602183614795565b9150613fc1826150c5565b604082019050919050565b6000613fd9601d836147a6565b9150613fe482615114565b601d82019050919050565b6000613ffc603183614795565b91506140078261513d565b604082019050919050565b600061401f6080836147a6565b915061402a8261518c565b608082019050919050565b60006140426006836147a6565b915061404d82615227565b600682019050919050565b600060408301600083015184820360008601526140758282613c34565b915050602083015161408a6020860182613b70565b508091505092915050565b61409e816149f3565b82525050565b6140b56140b0826149f3565b614b33565b82525050565b60006140c78285613ca6565b91506140d38284613ca6565b91508190509392505050565b60006140eb8286613ca6565b91506140f78285613ca6565b91506141038284613ca6565b9150819050949350505050565b600061411c828a613ca6565b91506141288289613ca6565b91506141348288613ca6565b91506141408287613ca6565b915061414c8286613ca6565b915061415782613d9c565b91506141638285613ca6565b915061416f8284613bc7565b915061417a82614035565b915081905098975050505050505050565b60006141978289613ca6565b91506141a38288613ca6565b91506141af8287613ca6565b91506141bb8286613cd7565b91506141c78285613ca6565b91506141d38284613ca6565b9150819050979650505050505050565b60006141ef8286613ca6565b91506141fb8285613ca6565b91506142078284613ca6565b915061421282613f86565b9150819050949350505050565b600061422b8285613cd7565b91506142378284613ca6565b91508190509392505050565b600061424e82613fcc565b915061425a8284613ca6565b915081905092915050565b600061427082614012565b915061427c8284613ca6565b915061428782613eb4565b915081905092915050565b600061429e82866140a4565b6020820191506142ae82856140a4565b6020820191506142be8284613ca6565b9150819050949350505050565b60006142d782886140a4565b6020820191506142e782876140a4565b6020820191506142f782866140a4565b60208201915061430782856140a4565b6020820191506143178284613ca6565b91508190509695505050505050565b600060208201905061433b6000830184613b61565b92915050565b60006080820190506143566000830187613b61565b6143636020830186613b61565b6143706040830185614095565b81810360608301526143828184613b8e565b905095945050505050565b60006020820190506143a26000830184613b7f565b92915050565b6000610100820190506143be600083018b613c07565b6143cb602083018a613c25565b6143d86040830189613c16565b6143e56060830188613bf8565b81810360808301526143f78187614058565b905081810360a083015261440b8186614058565b905061441a60c0830185613b7f565b81810360e083015261442c8184613c6d565b90509998505050505050505050565b600060208201905081810360008301526144558184613c6d565b905092915050565b600060608201905081810360008301526144778186613c6d565b90506144866020830185614095565b6144936040830184613b61565b949350505050565b600060208201905081810360008301526144b481613d56565b9050919050565b600060208201905081810360008301526144d481613d79565b9050919050565b600060208201905081810360008301526144f481613dbf565b9050919050565b6000602082019050818103600083015261451481613de2565b9050919050565b6000602082019050818103600083015261453481613e05565b9050919050565b6000602082019050818103600083015261455481613e28565b9050919050565b6000602082019050818103600083015261457481613e4b565b9050919050565b6000602082019050818103600083015261459481613e6e565b9050919050565b600060208201905081810360008301526145b481613e91565b9050919050565b600060208201905081810360008301526145d481613ed7565b9050919050565b600060208201905081810360008301526145f481613efa565b9050919050565b6000602082019050818103600083015261461481613f1d565b9050919050565b6000602082019050818103600083015261463481613f40565b9050919050565b6000602082019050818103600083015261465481613f63565b9050919050565b6000602082019050818103600083015261467481613fa9565b9050919050565b6000602082019050818103600083015261469481613fef565b9050919050565b60006020820190506146b06000830184614095565b92915050565b60006146c06146d1565b90506146cc8282614ab9565b919050565b6000604051905090565b600067ffffffffffffffff8211156146f6576146f5614c2a565b5b6146ff82614c59565b9050602081019050919050565b600067ffffffffffffffff82111561472757614726614c2a565b5b61473082614c59565b9050602081019050919050565b60008190508160005260206000209050919050565b600081519050919050565b600081519050919050565b600082825260208201905092915050565b600081905092915050565b600082825260208201905092915050565b600082825260208201905092915050565b600081905092915050565b60006147bc826149c5565b91506147c7836149c5565b92508261ffff038211156147de576147dd614b6e565b5b828201905092915050565b60006147f4826149f3565b91506147ff836149f3565b9250827fffffffffffffffffffffffffffffffffffffffffffffffffffffffffffffffff0382111561483457614833614b6e565b5b828201905092915050565b600061484a826149c5565b9150614855836149c5565b92508261486557614864614b9d565b5b828204905092915050565b600061487b826149f3565b9150614886836149f3565b92508261489657614895614b9d565b5b828204905092915050565b60006148ac826149f3565b91506148b7836149f3565b9250817fffffffffffffffffffffffffffffffffffffffffffffffffffffffffffffffff04831182151516156148f0576148ef614b6e565b5b828202905092915050565b6000614906826149f3565b9150614911836149f3565b92508282101561492457614923614b6e565b5b828203905092915050565b600061493a826149d3565b9050919050565b60008115159050919050565b60007fffffffff0000000000000000000000000000000000000000000000000000000082169050919050565b600081905061498782615250565b919050565b600081905061499a82615264565b919050565b60008190506149ad82615278565b919050565b60008190506149c08261528c565b919050565b600061ffff82169050919050565b600073ffffffffffffffffffffffffffffffffffffffff82169050919050565b6000819050919050565b6000614a0882614979565b9050919050565b6000614a1a8261498c565b9050919050565b6000614a2c8261499f565b9050919050565b6000614a3e826149b2565b9050919050565b82818337600083830152505050565b60005b83811015614a72578082015181840152602081019050614a57565b83811115614a81576000848401525b50505050565b60006002820490506001821680614a9f57607f821691505b60208210811415614ab357614ab2614bfb565b5b50919050565b614ac282614c59565b810181811067ffffffffffffffff82111715614ae157614ae0614c2a565b5b80604052505050565b6000614af5826149f3565b91507fffffffffffffffffffffffffffffffffffffffffffffffffffffffffffffffff821415614b2857614b27614b6e565b5b600182019050919050565b6000819050919050565b6000614b48826149f3565b9150614b53836149f3565b925082614b6357614b62614b9d565b5b828206905092915050565b7f4e487b7100000000000000000000000000000000000000000000000000000000600052601160045260246000fd5b7f4e487b7100000000000000000000000000000000000000000000000000000000600052601260045260246000fd5b7f4e487b7100000000000000000000000000000000000000000000000000000000600052602160045260246000fd5b7f4e487b7100000000000000000000000000000000000000000000000000000000600052602260045260246000fd5b7f4e487b7100000000000000000000000000000000000000000000000000000000600052604160045260246000fd5b6000601f19601f8301169050919050565b7f4552433732313a207472616e7366657220746f206e6f6e20455243373231526560008201527f63656976657220696d706c656d656e7465720000000000000000000000000000602082015250565b7f4552433732313a20746f6b656e20616c7265616479206d696e74656400000000600082015250565b7f3c2f673e20000000000000000000000000000000000000000000000000000000600082015250565b7f4552433732313a207472616e7366657220746f20746865207a65726f2061646460008201527f7265737300000000000000000000000000000000000000000000000000000000602082015250565b7f4552433732313a20617070726f766520746f2063616c6c657200000000000000600082015250565b7f4552433732313a206f70657261746f7220717565727920666f72206e6f6e657860008201527f697374656e7420746f6b656e0000000000000000000000000000000000000000602082015250565b7f4552433732313a20617070726f76652063616c6c6572206973206e6f74206f7760008201527f6e6572206e6f7220617070726f76656420666f7220616c6c0000000000000000602082015250565b7f4552433732313a2062616c616e636520717565727920666f7220746865207a6560008201527f726f206164647265737300000000000000000000000000000000000000000000602082015250565b7f4552433732313a206f776e657220717565727920666f72206e6f6e657869737460008201527f656e7420746f6b656e0000000000000000000000000000000000000000000000602082015250565b7f45524337323155524953746f726167653a2055524920736574206f66206e6f6e60008201527f6578697374656e7420746f6b656e000000000000000000000000000000000000602082015250565b7f227d000000000000000000000000000000000000000000000000000000000000600082015250565b7f4552433732313a206d696e7420746f20746865207a65726f2061646472657373600082015250565b7f45524337323155524953746f726167653a2055524920717565727920666f722060008201527f6e6f6e6578697374656e7420746f6b656e000000000000000000000000000000602082015250565b7f4552433732313a20617070726f76656420717565727920666f72206e6f6e657860008201527f697374656e7420746f6b656e0000000000000000000000000000000000000000602082015250565b7f4552433732313a207472616e73666572206f6620746f6b656e2074686174206960008201527f73206e6f74206f776e0000000000000000000000000000000000000000000000602082015250565b7f4552433732314d657461646174613a2055524920717565727920666f72206e6f60008201527f6e6578697374656e7420746f6b656e0000000000000000000000000000000000602082015250565b7f3c2f673e00000000000000000000000000000000000000000000000000000000600082015250565b7f4552433732313a20617070726f76616c20746f2063757272656e74206f776e6560008201527f7200000000000000000000000000000000000000000000000000000000000000602082015250565b7f646174613a6170706c69636174696f6e2f6a736f6e3b6261736536342c000000600082015250565b7f4552433732313a207472616e736665722063616c6c6572206973206e6f74206f60008201527f776e6572206e6f7220617070726f766564000000000000000000000000000000602082015250565b7f7b226e616d65223a20224120737469636b2066696775726520646576656c6f7060008201527f6572222c226465736372697074696f6e223a202241207768696d736963616c2060208201527f636f6c6c656374696f6e206f6620646576656c6f706572732e222c2022696d6160408201527f6765223a2022646174613a696d6167652f7376672b786d6c3b6261736536342c606082015250565b7f3c2f7376673e0000000000000000000000000000000000000000000000000000600082015250565b6004811061526157615260614bcc565b5b50565b6006811061527557615274614bcc565b5b50565b6004811061528957615288614bcc565b5b50565b6002811061529d5761529c614bcc565b5b50565b6152a98161492f565b81146152b457600080fd5b50565b6152c081614941565b81146152cb57600080fd5b50565b6152d78161494d565b81146152e257600080fd5b50565b6152ee816149f3565b81146152f957600080fd5b5056fe3c7465787420636c6173733d276c6574746572696e67206c616e67747970652720783d273439252720793d273532252720646f6d696e616e742d626173656c696e653d276d6964646c652720746578742d616e63686f723d276d6964646c65273e3c7465787420636c6173733d276c6574746572696e6720646576747970652720783d273439252720793d273437252720646f6d696e616e742d626173656c696e653d276d6964646c652720746578742d616e63686f723d276d6964646c65273e3130783c2f746578743e203c7061746820636c6173733d2773686972742720643d274d3530302c3430305635353048333030563430306c2d37352c3530563337356c37352d35306832357332352c32352c37352c32352c37352d32352c37352d32356832356c37352c35307637355a27207472616e73666f726d3d277472616e736c617465282d313735202d323529272066696c6c3d273c7061746820636c6173733d276d6f7574682720643d274d3430302c323734632d33392e35372c302d36332e35342d33322e322d37312e33312d34342e3633433333382c3233362e33382c3336312e39312c3235312c3430302c3235316332362c302c34352e322d362e38352c35362e372d31322e36316139322e32322c39322e32322c302c302c302c31342e35362d382e3934433436332e34332c3234322c3433392e34382c3237342c3430302c3237345a27207472616e73666f726d3d277472616e736c617465282d3137342e3638202d323529272f3e3c7061746820643d274d3436372e35362c3233332e33613131322e33392c3131322e33392c302c302c312d31322e38312c31352e3337433434332e36322c3235392e37372c3432352e312c3237332c3430302c323733732d34332e36322d31332e32332d35342e37352d32342e3333613131322e33392c3131322e33392c302c302c312d31322e38312d31352e33372c39392e33342c39392e33342c302c302c302c31302e34322c366332312c31302e352c34322e36372c31322e37312c35372e31342c31322e37312c32362e32322c302c34352e35352d362e39312c35372e31342d31322e37316139392e33342c39392e33342c302c302c302c31302e34322d364d3437352c323235732d32352c32352d37352c32352d37352d32352d37352d32352c32352c35302c37352c35302c37352d35302c37352d35305a27207472616e73666f726d3d277472616e736c617465282d313735202d323529272f3e3c636972636c6520636c6173733d27707570696c73272063783d27313630272063793d273130302720723d273132272f3e3c636972636c6520636c6173733d27707570696c73272063783d27323930272063793d273130302720723d273132272f3e3c2f673e416e204e465420772f20494420257320686173206265656e206d696e74656420746f2025733c73766720786d6c6e733d27687474703a2f2f7777772e77332e6f72672f323030302f737667272076696577426f783d272d38202d382034363020373630273e203c646566733e203c7374796c653e202a207b207374726f6b653a20233030303b207374726f6b652d6d697465726c696d69743a2031303b207374726f6b652d77696474683a203270783b207d202e6c6574746572696e67207b207374726f6b652d77696474683a303b207d202e626f6479207b2066696c6c3a206e6f6e653b207d202e666163652c2e626f6479206c696e65207b207374726f6b652d77696474683a3370783b207d202e666163652c202e6e6f73652c202e776869746573207b2066696c6c3a20236666663b207d202e6d6f757468207b2066696c6c3a20236666663b207374726f6b652d77696474683a3370783b207d202e64657674797065207b20666f6e743a20626f6c642033347078206d6f6e6f73706163653b207d202e6c616e6774797065207b20666f6e743a20626f6c6420333470782073616e732d73657269663b207d202e707570696c737b66696c6c3a233030303b7d2e6c696768747b66696c6c3a236666663b7d2e6461726b7b66696c6c3a233030303b7d3c2f7374796c653e203c2f646566733e203c6720636c6173733d27626f6479273e203c6c696e652078313d27323235272079313d27333235272078323d27343530272079323d2734303027202f3e203c6c696e652078313d27323235272079313d27333235272078323d2730272079323d2734303027202f3e203c6c696e652078313d27323235272079313d27333030272078323d27323235272079323d2735353027202f3e203c6c696e652078313d27323235272079313d27353530272078323d27313530272079323d2737353027202f3e203c6c696e652078313d27323235272079313d27353530272078323d27333030272079323d2737353027202f3e3c2f673e3c6720636c6173733d27636c6f74686573273e3c6c696e6520636c6173733d276d6f757468272078313d27313530272079313d27323235272078323d27333030272079323d27323235272f3e3c7465787420636c6173733d276c6574746572696e67206c616e67747970652720783d273439252720793d273537252720646f6d696e616e742d626173656c696e653d276d6964646c652720746578742d616e63686f723d276d6964646c65273e446576656c6f7065723c2f746578743e3c2f673e4142434445464748494a4b4c4d4e4f505152535455565758595a6162636465666768696a6b6c6d6e6f707172737475767778797a303132333435363738392b2f3c6720636c6173733d2768656164273e203c636972636c6520636c6173733d2766616365272063783d27323235272063793d273135302720723d2731353027202f3e3c706f6c796c696e6520636c6173733d276e6f73652720706f696e74733d273232352031323520323530203135302032323520313530272f3e3c6720636c6173733d2765796573273e203c656c6c6970736520636c6173733d27776869746573272063783d27313630272063793d27313030272072783d273330272072793d27323027202f3e203c656c6c6970736520636c6173733d27776869746573272063783d27323930272063793d27313030272072783d273330272072793d27323027202f3e3c636972636c6520636c6173733d27707570696c73272063783d27313630272063793d273130302720723d2736272f3e3c636972636c6520636c6173733d27707570696c73272063783d27323930272063793d273130302720723d2736272f3e3c2f673e3c706f6c796c696e6520636c6173733d27626f74746f6d2073686f7274732720706f696e74733d273332352036373520333235203532352031323520353235203132352035323520313235203637352032303020363735203232352036303020323530203637352033323520363735272066696c6c3d273c7061746820636c6173733d276d6f7574682720643d274d3430302c3232376332352e312c302c34332e36322c31332e32332c35342e37352c32342e3333613131322e33392c3131322e33392c302c302c312c31322e38312c31352e33372c39392e33342c39392e33342c302c302c302d31302e34322d36433433362e31332c3235302e32312c3431342e34372c3234382c3430302c323438632d32362e32322c302d34352e35352c362e39312d35372e31342c31322e37316139392e33342c39392e33342c302c302c302d31302e34322c362c3131322e33392c3131322e33392c302c302c312c31322e38312d31352e3337433335362e33382c3234302e32332c3337342e392c3232372c3430302c3232376d302d32632d35302c302d37352c35302d37352c35307332352d32352c37352d32352c37352c32352c37352c32352d32352d35302d37352d35305a27207472616e73666f726d3d277472616e736c617465282d313735202d323529272f3e3c706f6c796c696e6520636c6173733d27626f74746f6d2070616e74732720706f696e74733d273332352037323520333235203532352031323520353235203132352035323520313235203732352032303020373235203232352036303020323530203732352033323520373235272066696c6c3d273c7465787420636c6173733d276c6574746572696e6720646576747970652720783d273439252720793d273437252720646f6d696e616e742d626173656c696e653d276d6964646c652720746578742d616e63686f723d276d6964646c65273e3c2f746578743e3c706f6c796c696e6520636c6173733d27626f74746f6d20736b6972742720706f696e74733d27333235203637352033323520353235203132352035323520313235203532352031323520363735203230302036373520323235203637352032353020363735203332352036373527202066696c6c3d273c656c6c6970736520636c6173733d276d6f757468272063783d27323235272063793d27323235272072783d273530272072793d27353027202f3ea2646970667358221220ea0d927e16ed4269428b13f62d9457073562768dd129260970eaee7f22ffa17b64736f6c634300080400333c672066696c6c3d2723373536643065273e3c636972636c6520636c6173733d2769726973272063783d27313630272063793d273130302720723d27313627202f3e3c636972636c6520636c6173733d2769726973272063783d27323930272063793d273130302720723d27313627202f3e3c2f673e3c672066696c6c3d2723353233613238273e3c636972636c6520636c6173733d2769726973272063783d27313630272063793d273130302720723d27313627202f3e3c636972636c6520636c6173733d2769726973272063783d27323930272063793d273130302720723d27313627202f3e3c2f673e54686973206973206d7920537469636b2046696775726520446576656c6f70657273204e465420636f6e74726163742c207761676d69213c672066696c6c3d2723303837326533273e3c636972636c6520636c6173733d2769726973272063783d27313630272063793d273130302720723d27313627202f3e3c636972636c6520636c6173733d2769726973272063783d27323930272063793d273130302720723d27313627202f3e3c2f673e3c672066696c6c3d2723393639363936273e3c636972636c6520636c6173733d2769726973272063783d27313630272063793d273130302720723d27313627202f3e3c636972636c6520636c6173733d2769726973272063783d27323930272063793d273130302720723d27313627202f3e3c2f673e3c672066696c6c3d2723306237353161273e3c636972636c6520636c6173733d2769726973272063783d27313630272063793d273130302720723d27313627202f3e3c636972636c6520636c6173733d2769726973272063783d27323930272063793d273130302720723d27313627202f3e3c2f673e3c672066696c6c3d2723386234353133273e3c636972636c6520636c6173733d2769726973272063783d27313630272063793d273130302720723d27313627202f3e3c636972636c6520636c6173733d2769726973272063783d27323930272063793d273130302720723d27313627202f3e3c2f673e",
  "linkReferences": {},
  "deployedLinkReferences": {}
}