{
  "_format": "hh-sol-artifact-1",
  "contractName": "StickFigureDevelopersNFT",
  "sourceName": "contracts/StickFigureDevelopersNFT.sol",
  "abi": [
    {
      "anonymous": false,
      "inputs": [
        {
          "indexed": true,
          "internalType": "address",
          "name": "owner",
          "type": "address"
        },
        {
          "indexed": true,
          "internalType": "address",
          "name": "approved",
          "type": "address"
        },
        {
          "indexed": true,
          "internalType": "uint256",
          "name": "tokenId",
          "type": "uint256"
        }
      ],
      "name": "Approval",
      "type": "event"
    },
    {
      "anonymous": false,
      "inputs": [
        {
          "indexed": true,
          "internalType": "address",
          "name": "owner",
          "type": "address"
        },
        {
          "indexed": true,
          "internalType": "address",
          "name": "operator",
          "type": "address"
        },
        {
          "indexed": false,
          "internalType": "bool",
          "name": "approved",
          "type": "bool"
        }
      ],
      "name": "ApprovalForAll",
      "type": "event"
    },
    {
      "anonymous": false,
      "inputs": [
        {
          "indexed": false,
          "internalType": "address",
          "name": "sender",
          "type": "address"
        },
        {
          "indexed": false,
          "internalType": "uint256",
          "name": "tokenId",
          "type": "uint256"
        }
      ],
      "name": "NewDeveloper",
      "type": "event"
    },
    {
      "anonymous": false,
      "inputs": [
        {
          "indexed": true,
          "internalType": "address",
          "name": "from",
          "type": "address"
        },
        {
          "indexed": true,
          "internalType": "address",
          "name": "to",
          "type": "address"
        },
        {
          "indexed": true,
          "internalType": "uint256",
          "name": "tokenId",
          "type": "uint256"
        }
      ],
      "name": "Transfer",
      "type": "event"
    },
    {
      "inputs": [
        {
          "internalType": "address",
          "name": "to",
          "type": "address"
        },
        {
          "internalType": "uint256",
          "name": "tokenId",
          "type": "uint256"
        }
      ],
      "name": "approve",
      "outputs": [],
      "stateMutability": "nonpayable",
      "type": "function"
    },
    {
      "inputs": [
        {
          "internalType": "address",
          "name": "owner",
          "type": "address"
        }
      ],
      "name": "balanceOf",
      "outputs": [
        {
          "internalType": "uint256",
          "name": "",
          "type": "uint256"
        }
      ],
      "stateMutability": "view",
      "type": "function"
    },
    {
      "inputs": [],
      "name": "createDeveloper",
      "outputs": [],
      "stateMutability": "nonpayable",
      "type": "function"
    },
    {
      "inputs": [
        {
          "internalType": "uint256",
          "name": "",
          "type": "uint256"
        }
      ],
      "name": "devToOwner",
      "outputs": [
        {
          "internalType": "address",
          "name": "",
          "type": "address"
        }
      ],
      "stateMutability": "view",
      "type": "function"
    },
    {
      "inputs": [
        {
          "internalType": "uint256",
          "name": "",
          "type": "uint256"
        }
      ],
      "name": "developers",
      "outputs": [
        {
          "internalType": "enum StickFigureDeveloper.Iris",
          "name": "eyeColor",
          "type": "uint8"
        },
        {
          "internalType": "enum StickFigureDeveloper.Pupils",
          "name": "pupilSize",
          "type": "uint8"
        },
        {
          "internalType": "enum StickFigureDeveloper.Mouths",
          "name": "expression",
          "type": "uint8"
        },
        {
          "internalType": "enum StickFigureDeveloper.Clothes",
          "name": "clothesType",
          "type": "uint8"
        },
        {
          "components": [
            {
              "internalType": "string",
              "name": "rgbColor",
              "type": "string"
            },
            {
              "internalType": "bool",
              "name": "isDark",
              "type": "bool"
            }
          ],
          "internalType": "struct HexColorHelper.HexColor",
          "name": "shirtColor",
          "type": "tuple"
        },
        {
          "components": [
            {
              "internalType": "string",
              "name": "rgbColor",
              "type": "string"
            },
            {
              "internalType": "bool",
              "name": "isDark",
              "type": "bool"
            }
          ],
          "internalType": "struct HexColorHelper.HexColor",
          "name": "bottomColor",
          "type": "tuple"
        },
        {
          "internalType": "bool",
          "name": "is10x",
          "type": "bool"
        },
        {
          "internalType": "string",
          "name": "language",
          "type": "string"
        }
      ],
      "stateMutability": "view",
      "type": "function"
    },
    {
      "inputs": [
        {
          "internalType": "uint256",
          "name": "tokenId",
          "type": "uint256"
        }
      ],
      "name": "getApproved",
      "outputs": [
        {
          "internalType": "address",
          "name": "",
          "type": "address"
        }
      ],
      "stateMutability": "view",
      "type": "function"
    },
    {
      "inputs": [
        {
          "internalType": "string",
          "name": "seed",
          "type": "string"
        }
      ],
      "name": "getRandomInt",
      "outputs": [
        {
          "internalType": "uint256",
          "name": "",
          "type": "uint256"
        }
      ],
      "stateMutability": "view",
      "type": "function"
    },
    {
      "inputs": [
        {
          "internalType": "address",
          "name": "owner",
          "type": "address"
        },
        {
          "internalType": "address",
          "name": "operator",
          "type": "address"
        }
      ],
      "name": "isApprovedForAll",
      "outputs": [
        {
          "internalType": "bool",
          "name": "",
          "type": "bool"
        }
      ],
      "stateMutability": "view",
      "type": "function"
    },
    {
      "inputs": [
        {
          "internalType": "uint256",
          "name": "",
          "type": "uint256"
        }
      ],
      "name": "languages",
      "outputs": [
        {
          "internalType": "string",
          "name": "",
          "type": "string"
        }
      ],
      "stateMutability": "view",
      "type": "function"
    },
    {
      "inputs": [],
      "name": "name",
      "outputs": [
        {
          "internalType": "string",
          "name": "",
          "type": "string"
        }
      ],
      "stateMutability": "view",
      "type": "function"
    },
    {
      "inputs": [
        {
          "internalType": "uint256",
          "name": "tokenId",
          "type": "uint256"
        }
      ],
      "name": "ownerOf",
      "outputs": [
        {
          "internalType": "address",
          "name": "",
          "type": "address"
        }
      ],
      "stateMutability": "view",
      "type": "function"
    },
    {
      "inputs": [
        {
          "internalType": "address",
          "name": "from",
          "type": "address"
        },
        {
          "internalType": "address",
          "name": "to",
          "type": "address"
        },
        {
          "internalType": "uint256",
          "name": "tokenId",
          "type": "uint256"
        }
      ],
      "name": "safeTransferFrom",
      "outputs": [],
      "stateMutability": "nonpayable",
      "type": "function"
    },
    {
      "inputs": [
        {
          "internalType": "address",
          "name": "from",
          "type": "address"
        },
        {
          "internalType": "address",
          "name": "to",
          "type": "address"
        },
        {
          "internalType": "uint256",
          "name": "tokenId",
          "type": "uint256"
        },
        {
          "internalType": "bytes",
          "name": "_data",
          "type": "bytes"
        }
      ],
      "name": "safeTransferFrom",
      "outputs": [],
      "stateMutability": "nonpayable",
      "type": "function"
    },
    {
      "inputs": [
        {
          "internalType": "address",
          "name": "operator",
          "type": "address"
        },
        {
          "internalType": "bool",
          "name": "approved",
          "type": "bool"
        }
      ],
      "name": "setApprovalForAll",
      "outputs": [],
      "stateMutability": "nonpayable",
      "type": "function"
    },
    {
      "inputs": [
        {
          "internalType": "bytes4",
          "name": "interfaceId",
          "type": "bytes4"
        }
      ],
      "name": "supportsInterface",
      "outputs": [
        {
          "internalType": "bool",
          "name": "",
          "type": "bool"
        }
      ],
      "stateMutability": "view",
      "type": "function"
    },
    {
      "inputs": [],
      "name": "symbol",
      "outputs": [
        {
          "internalType": "string",
          "name": "",
          "type": "string"
        }
      ],
      "stateMutability": "view",
      "type": "function"
    },
    {
      "inputs": [
        {
          "internalType": "uint256",
          "name": "tokenId",
          "type": "uint256"
        }
      ],
      "name": "tokenURI",
      "outputs": [
        {
          "internalType": "string",
          "name": "",
          "type": "string"
        }
      ],
      "stateMutability": "view",
      "type": "function"
    },
    {
      "inputs": [
        {
          "internalType": "address",
          "name": "from",
          "type": "address"
        },
        {
          "internalType": "address",
          "name": "to",
          "type": "address"
        },
        {
          "internalType": "uint256",
          "name": "tokenId",
          "type": "uint256"
        }
      ],
      "name": "transferFrom",
      "outputs": [],
      "stateMutability": "nonpayable",
      "type": "function"
    }
  ],
  "bytecode": "0x60806040526040518060c001604052806040518060a0016040528060768152602001620069496076913981526020016040518060a001604052806076815260200162006b216076913981526020016040518060a0016040528060768152602001620068d36076913981526020016040518060a001604052806076815260200162006aab6076913981526020016040518060a001604052806076815260200162006a356076913981526020016040518060a0016040528060768152602001620069bf607691398152506007906006620000d99291906200085a565b50604051806103a001604052806040518060400160405280600381526020017f416461000000000000000000000000000000000000000000000000000000000081525081526020016040518060400160405280600581526020017f424153494300000000000000000000000000000000000000000000000000000081525081526020016040518060400160405280600181526020017f430000000000000000000000000000000000000000000000000000000000000081525081526020016040518060400160405280600281526020017f432300000000000000000000000000000000000000000000000000000000000081525081526020016040518060400160405280600381526020017f432b2b000000000000000000000000000000000000000000000000000000000081525081526020016040518060400160405280600781526020017f436c6f6a7572650000000000000000000000000000000000000000000000000081525081526020016040518060400160405280600581526020017f436f626f6c00000000000000000000000000000000000000000000000000000081525081526020016040518060400160405280600481526020017f446172740000000000000000000000000000000000000000000000000000000081525081526020016040518060400160405280600681526020017f45726c616e67000000000000000000000000000000000000000000000000000081525081526020016040518060400160405280600281526020017f476f00000000000000000000000000000000000000000000000000000000000081525081526020016040518060400160405280600781526020017f4861736b656c6c0000000000000000000000000000000000000000000000000081525081526020016040518060400160405280600481526020017f4a6176610000000000000000000000000000000000000000000000000000000081525081526020016040518060400160405280600a81526020017f4a6176615363726970740000000000000000000000000000000000000000000081525081526020016040518060400160405280600581526020017f4a756c696100000000000000000000000000000000000000000000000000000081525081526020016040518060400160405280600681526020017f4b6f746c696e000000000000000000000000000000000000000000000000000081525081526020016040518060400160405280600381526020017f4c7561000000000000000000000000000000000000000000000000000000000081525081526020016040518060400160405280600581526020017f4f43616d6c00000000000000000000000000000000000000000000000000000081525081526020016040518060400160405280600b81526020017f4f626a6563746976652d4300000000000000000000000000000000000000000081525081526020016040518060400160405280600381526020017f504850000000000000000000000000000000000000000000000000000000000081525081526020016040518060400160405280600681526020017f50617363616c000000000000000000000000000000000000000000000000000081525081526020016040518060400160405280600481526020017f5065726c0000000000000000000000000000000000000000000000000000000081525081526020016040518060400160405280600681526020017f507974686f6e000000000000000000000000000000000000000000000000000081525081526020016040518060400160405280600181526020017f520000000000000000000000000000000000000000000000000000000000000081525081526020016040518060400160405280600481526020017f527562790000000000000000000000000000000000000000000000000000000081525081526020016040518060400160405280600481526020017f527573740000000000000000000000000000000000000000000000000000000081525081526020016040518060400160405280600581526020017f5363616c6100000000000000000000000000000000000000000000000000000081525081526020016040518060400160405280600881526020017f536f6c696469747900000000000000000000000000000000000000000000000081525081526020016040518060400160405280600581526020017f537769667400000000000000000000000000000000000000000000000000000081525081526020016040518060400160405280600a81526020017f5479706553637269707400000000000000000000000000000000000000000000815250815250600890601d620007a5929190620008c1565b50348015620007b357600080fd5b506040518060400160405280601c81526020017f537469636b2046696775726520446576656c6f706572732074657374000000008152506040518060400160405280600881526020017f535449434b46494700000000000000000000000000000000000000000000000081525081600090805190602001906200083892919062000928565b5080600190805190602001906200085192919062000928565b50505062000aab565b828054828255906000526020600020908101928215620008ae579160200282015b82811115620008ad5782518290805190602001906200089c92919062000928565b50916020019190600101906200087b565b5b509050620008bd9190620009b9565b5090565b82805482825590600052602060002090810192821562000915579160200282015b82811115620009145782518290805190602001906200090392919062000928565b5091602001919060010190620008e2565b5b509050620009249190620009b9565b5090565b828054620009369062000a46565b90600052602060002090601f0160209004810192826200095a5760008555620009a6565b82601f106200097557805160ff1916838001178555620009a6565b82800160010185558215620009a6579182015b82811115620009a557825182559160200191906001019062000988565b5b509050620009b59190620009e1565b5090565b5b80821115620009dd5760008181620009d3919062000a00565b50600101620009ba565b5090565b5b80821115620009fc576000816000905550600101620009e2565b5090565b50805462000a0e9062000a46565b6000825580601f1062000a22575062000a43565b601f01602090049060005260206000209081019062000a429190620009e1565b5b50565b6000600282049050600182168062000a5f57607f821691505b6020821081141562000a765762000a7562000a7c565b5b50919050565b7f4e487b7100000000000000000000000000000000000000000000000000000000600052602260045260246000fd5b615e188062000abb6000396000f3fe608060405234801561001057600080fd5b50600436106101165760003560e01c80636d3883f7116100a2578063b88d4fde11610071578063b88d4fde146102f1578063c87b56dd1461030d578063dc05990f1461033d578063e985e9c51461036d578063eff25cd61461039d57610116565b80636d3883f71461025757806370a082311461028757806395d89b41146102b7578063a22cb465146102d557610116565b806323b872dd116100e957806323b872dd146101b557806342842e0e146101d15780635ffb03c9146101ed5780636352211e1461021d578063644d39841461024d57610116565b806301ffc9a71461011b57806306fdde031461014b578063081812fc14610169578063095ea7b314610199575b600080fd5b61013560048036038101906101309190613937565b6103d4565b6040516101429190614215565b60405180910390f35b6101536104b6565b60405161016091906142c3565b60405180910390f35b610183600480360381019061017e91906139ca565b610548565b6040516101909190614185565b60405180910390f35b6101b360048036038101906101ae91906138fb565b6105cd565b005b6101cf60048036038101906101ca91906137f5565b6106e5565b005b6101eb60048036038101906101e691906137f5565b610745565b005b610207600480360381019061020291906139ca565b610765565b60405161021491906142c3565b60405180910390f35b610237600480360381019061023291906139ca565b610811565b6040516102449190614185565b60405180910390f35b6102556108c3565b005b610271600480360381019061026c9190613989565b610994565b60405161027e91906144e5565b60405180910390f35b6102a1600480360381019061029c9190613790565b6109c9565b6040516102ae91906144e5565b60405180910390f35b6102bf610a81565b6040516102cc91906142c3565b60405180910390f35b6102ef60048036038101906102ea91906138bf565b610b13565b005b61030b60048036038101906103069190613844565b610c94565b005b610327600480360381019061032291906139ca565b610cf6565b60405161033491906142c3565b60405180910390f35b610357600480360381019061035291906139ca565b610e48565b6040516103649190614185565b60405180910390f35b610387600480360381019061038291906137b9565b610e7b565b6040516103949190614215565b60405180910390f35b6103b760048036038101906103b291906139ca565b610f0f565b6040516103cb989796959493929190614230565b60405180910390f35b60007f80ac58cd000000000000000000000000000000000000000000000000000000007bffffffffffffffffffffffffffffffffffffffffffffffffffffffff1916827bffffffffffffffffffffffffffffffffffffffffffffffffffffffff1916148061049f57507f5b5e139f000000000000000000000000000000000000000000000000000000007bffffffffffffffffffffffffffffffffffffffffffffffffffffffff1916827bffffffffffffffffffffffffffffffffffffffffffffffffffffffff1916145b806104af57506104ae8261119e565b5b9050919050565b6060600080546104c5906148d1565b80601f01602080910402602001604051908101604052809291908181526020018280546104f1906148d1565b801561053e5780601f106105135761010080835404028352916020019161053e565b820191906000526020600020905b81548152906001019060200180831161052157829003601f168201915b5050505050905090565b600061055382611208565b610592576040517f08c379a000000000000000000000000000000000000000000000000000000000815260040161058990614445565b60405180910390fd5b6004600083815260200190815260200160002060009054906101000a900473ffffffffffffffffffffffffffffffffffffffff169050919050565b60006105d882610811565b90508073ffffffffffffffffffffffffffffffffffffffff168373ffffffffffffffffffffffffffffffffffffffff161415610649576040517f08c379a0000000000000000000000000000000000000000000000000000000008152600401610640906144a5565b60405180910390fd5b8073ffffffffffffffffffffffffffffffffffffffff16610668611274565b73ffffffffffffffffffffffffffffffffffffffff161480610697575061069681610691611274565b610e7b565b5b6106d6576040517f08c379a00000000000000000000000000000000000000000000000000000000081526004016106cd90614385565b60405180910390fd5b6106e0838361127c565b505050565b6106f66106f0611274565b82611335565b610735576040517f08c379a000000000000000000000000000000000000000000000000000000000815260040161072c906144c5565b60405180910390fd5b610740838383611413565b505050565b61076083838360405180602001604052806000815250610c94565b505050565b6008818154811061077557600080fd5b906000526020600020016000915090508054610790906148d1565b80601f01602080910402602001604051908101604052809291908181526020018280546107bc906148d1565b80156108095780601f106107de57610100808354040283529160200191610809565b820191906000526020600020905b8154815290600101906020018083116107ec57829003601f168201915b505050505081565b6000806002600084815260200190815260200160002060009054906101000a900473ffffffffffffffffffffffffffffffffffffffff169050600073ffffffffffffffffffffffffffffffffffffffff168173ffffffffffffffffffffffffffffffffffffffff1614156108ba576040517f08c379a00000000000000000000000000000000000000000000000000000000081526004016108b1906143c5565b60405180910390fd5b80915050919050565b60006108cf600c61166f565b90506108da8161167d565b6108e933600980549050611dc3565b61094e60098054905061092a61090661090185611de1565b611e74565b60405160200161091691906140f7565b604051602081830303815290604052611e74565b60405160200161093a91906140d5565b604051602081830303815290604052612032565b610958600c6120a6565b7f71b909df09f7ac491501b9c09903085e5b1f46547051602530452bb557cb1e3533826040516109899291906141ec565b60405180910390a150565b600042826040516020016109a9929190614124565b6040516020818303038152906040528051906020012060001c9050919050565b60008073ffffffffffffffffffffffffffffffffffffffff168273ffffffffffffffffffffffffffffffffffffffff161415610a3a576040517f08c379a0000000000000000000000000000000000000000000000000000000008152600401610a31906143a5565b60405180910390fd5b600360008373ffffffffffffffffffffffffffffffffffffffff1673ffffffffffffffffffffffffffffffffffffffff168152602001908152602001600020549050919050565b606060018054610a90906148d1565b80601f0160208091040260200160405190810160405280929190818152602001828054610abc906148d1565b8015610b095780601f10610ade57610100808354040283529160200191610b09565b820191906000526020600020905b815481529060010190602001808311610aec57829003601f168201915b5050505050905090565b610b1b611274565b73ffffffffffffffffffffffffffffffffffffffff168273ffffffffffffffffffffffffffffffffffffffff161415610b89576040517f08c379a0000000000000000000000000000000000000000000000000000000008152600401610b8090614345565b60405180910390fd5b8060056000610b96611274565b73ffffffffffffffffffffffffffffffffffffffff1673ffffffffffffffffffffffffffffffffffffffff16815260200190815260200160002060008473ffffffffffffffffffffffffffffffffffffffff1673ffffffffffffffffffffffffffffffffffffffff16815260200190815260200160002060006101000a81548160ff0219169083151502179055508173ffffffffffffffffffffffffffffffffffffffff16610c43611274565b73ffffffffffffffffffffffffffffffffffffffff167f17307eab39ab6107e8899845ad3d59bd9653f200f220920489ca2b5937696c3183604051610c889190614215565b60405180910390a35050565b610ca5610c9f611274565b83611335565b610ce4576040517f08c379a0000000000000000000000000000000000000000000000000000000008152600401610cdb906144c5565b60405180910390fd5b610cf0848484846120bc565b50505050565b6060610d0182611208565b610d40576040517f08c379a0000000000000000000000000000000000000000000000000000000008152600401610d3790614425565b60405180910390fd5b6000600660008481526020019081526020016000208054610d60906148d1565b80601f0160208091040260200160405190810160405280929190818152602001828054610d8c906148d1565b8015610dd95780601f10610dae57610100808354040283529160200191610dd9565b820191906000526020600020905b815481529060010190602001808311610dbc57829003601f168201915b505050505090506000610dea612118565b9050600081511415610e00578192505050610e43565b600082511115610e35578082604051602001610e1d929190613f4d565b60405160208183030381529060405292505050610e43565b610e3e8461212f565b925050505b919050565b600a6020528060005260406000206000915054906101000a900473ffffffffffffffffffffffffffffffffffffffff1681565b6000600560008473ffffffffffffffffffffffffffffffffffffffff1673ffffffffffffffffffffffffffffffffffffffff16815260200190815260200160002060008373ffffffffffffffffffffffffffffffffffffffff1673ffffffffffffffffffffffffffffffffffffffff16815260200190815260200160002060009054906101000a900460ff16905092915050565b60098181548110610f1f57600080fd5b90600052602060002090600702016000915090508060000160009054906101000a900460ff16908060000160019054906101000a900460ff16908060000160029054906101000a900460ff16908060000160039054906101000a900460ff169080600101604051806040016040529081600082018054610f9e906148d1565b80601f0160208091040260200160405190810160405280929190818152602001828054610fca906148d1565b80156110175780601f10610fec57610100808354040283529160200191611017565b820191906000526020600020905b815481529060010190602001808311610ffa57829003601f168201915b505050505081526020016001820160009054906101000a900460ff161515151581525050908060030160405180604001604052908160008201805461105b906148d1565b80601f0160208091040260200160405190810160405280929190818152602001828054611087906148d1565b80156110d45780601f106110a9576101008083540402835291602001916110d4565b820191906000526020600020905b8154815290600101906020018083116110b757829003601f168201915b505050505081526020016001820160009054906101000a900460ff161515151581525050908060050160009054906101000a900460ff169080600601805461111b906148d1565b80601f0160208091040260200160405190810160405280929190818152602001828054611147906148d1565b80156111945780601f1061116957610100808354040283529160200191611194565b820191906000526020600020905b81548152906001019060200180831161117757829003601f168201915b5050505050905088565b60007f01ffc9a7000000000000000000000000000000000000000000000000000000007bffffffffffffffffffffffffffffffffffffffffffffffffffffffff1916827bffffffffffffffffffffffffffffffffffffffffffffffffffffffff1916149050919050565b60008073ffffffffffffffffffffffffffffffffffffffff166002600084815260200190815260200160002060009054906101000a900473ffffffffffffffffffffffffffffffffffffffff1673ffffffffffffffffffffffffffffffffffffffff1614159050919050565b600033905090565b816004600083815260200190815260200160002060006101000a81548173ffffffffffffffffffffffffffffffffffffffff021916908373ffffffffffffffffffffffffffffffffffffffff160217905550808273ffffffffffffffffffffffffffffffffffffffff166112ef83610811565b73ffffffffffffffffffffffffffffffffffffffff167f8c5be1e5ebec7d5bd14f71427d1e84f3dd0314c0f7b2291e5b200ac8c7c3b92560405160405180910390a45050565b600061134082611208565b61137f576040517f08c379a000000000000000000000000000000000000000000000000000000000815260040161137690614365565b60405180910390fd5b600061138a83610811565b90508073ffffffffffffffffffffffffffffffffffffffff168473ffffffffffffffffffffffffffffffffffffffff1614806113f957508373ffffffffffffffffffffffffffffffffffffffff166113e184610548565b73ffffffffffffffffffffffffffffffffffffffff16145b8061140a57506114098185610e7b565b5b91505092915050565b8273ffffffffffffffffffffffffffffffffffffffff1661143382610811565b73ffffffffffffffffffffffffffffffffffffffff1614611489576040517f08c379a000000000000000000000000000000000000000000000000000000000815260040161148090614465565b60405180910390fd5b600073ffffffffffffffffffffffffffffffffffffffff168273ffffffffffffffffffffffffffffffffffffffff1614156114f9576040517f08c379a00000000000000000000000000000000000000000000000000000000081526004016114f090614325565b60405180910390fd5b6115048383836121d6565b61150f60008261127c565b6001600360008573ffffffffffffffffffffffffffffffffffffffff1673ffffffffffffffffffffffffffffffffffffffff168152602001908152602001600020600082825461155f9190614745565b925050819055506001600360008473ffffffffffffffffffffffffffffffffffffffff1673ffffffffffffffffffffffffffffffffffffffff16815260200190815260200160002060008282546115b69190614633565b92505081905550816002600083815260200190815260200160002060006101000a81548173ffffffffffffffffffffffffffffffffffffffff021916908373ffffffffffffffffffffffffffffffffffffffff160217905550808273ffffffffffffffffffffffffffffffffffffffff168473ffffffffffffffffffffffffffffffffffffffff167fddf252ad1be2c89b69c2b068fc378daa952ba7f163c4a11628f55a4df523b3ef60405160405180910390a4505050565b600081600001549050919050565b60096040518061010001604052806116cd600060056040518060400160405280600481526020017f69726973000000000000000000000000000000000000000000000000000000008152506121db565b6005811115611705577f4e487b7100000000000000000000000000000000000000000000000000000000600052602160045260246000fd5b600581111561173d577f4e487b7100000000000000000000000000000000000000000000000000000000600052602160045260246000fd5b81526020016009611786600060096040518060400160405280600581526020017f707570696c0000000000000000000000000000000000000000000000000000008152506121db565b10611792576001611795565b60005b60ff1660018111156117d0577f4e487b7100000000000000000000000000000000000000000000000000000000600052602160045260246000fd5b6001811115611808577f4e487b7100000000000000000000000000000000000000000000000000000000600052602160045260246000fd5b815260200161184f600060036040518060400160405280600681526020017f6d6f7574687300000000000000000000000000000000000000000000000000008152506121db565b6003811115611887577f4e487b7100000000000000000000000000000000000000000000000000000000600052602160045260246000fd5b60038111156118bf577f4e487b7100000000000000000000000000000000000000000000000000000000600052602160045260246000fd5b8152602001611906600060026040518060400160405280600781526020017f636c6f74686573000000000000000000000000000000000000000000000000008152506121db565b600381111561193e577f4e487b7100000000000000000000000000000000000000000000000000000000600052602160045260246000fd5b6003811115611976577f4e487b7100000000000000000000000000000000000000000000000000000000600052602160045260246000fd5b81526020016119ba846040518060400160405280600581526020017f736869727400000000000000000000000000000000000000000000000000000081525061223f565b81526020016119fe846040518060400160405280600781526020017f636c6f746865730000000000000000000000000000000000000000000000000081525061223f565b8152602001604f611a47600060636040518060400160405280600381526020017f31307800000000000000000000000000000000000000000000000000000000008152506121db565b11151581526020016008611aa360006001600880549050611a689190614745565b6040518060400160405280600481526020017f6c616e67000000000000000000000000000000000000000000000000000000008152506121db565b81548110611ada577f4e487b7100000000000000000000000000000000000000000000000000000000600052603260045260246000fd5b906000526020600020018054611aef906148d1565b80601f0160208091040260200160405190810160405280929190818152602001828054611b1b906148d1565b8015611b685780601f10611b3d57610100808354040283529160200191611b68565b820191906000526020600020905b815481529060010190602001808311611b4b57829003601f168201915b5050505050815250908060018154018082558091505060019003906000526020600020906007020160009091909190915060008201518160000160006101000a81548160ff02191690836005811115611bea577f4e487b7100000000000000000000000000000000000000000000000000000000600052602160045260246000fd5b021790555060208201518160000160016101000a81548160ff02191690836001811115611c40577f4e487b7100000000000000000000000000000000000000000000000000000000600052602160045260246000fd5b021790555060408201518160000160026101000a81548160ff02191690836003811115611c96577f4e487b7100000000000000000000000000000000000000000000000000000000600052602160045260246000fd5b021790555060608201518160000160036101000a81548160ff02191690836003811115611cec577f4e487b7100000000000000000000000000000000000000000000000000000000600052602160045260246000fd5b02179055506080820151816001016000820151816000019080519060200190611d16929190613598565b5060208201518160010160006101000a81548160ff021916908315150217905550505060a0820151816003016000820151816000019080519060200190611d5e929190613598565b5060208201518160010160006101000a81548160ff021916908315150217905550505060c08201518160050160006101000a81548160ff02191690831515021790555060e0820151816006019080519060200190611dbd929190613598565b50505050565b611ddd828260405180602001604052806000815250612564565b5050565b60606040518061030001604052806102d8815260200161553d6102d89139611e08836125bf565b611e11846126ff565b60405180610140016040528061010581526020016159036101059139611e36866129ce565b611e3f87612bd2565b611e4888612e2c565b604051602001611e5e9796959493929190613fa2565b6040516020818303038152906040529050919050565b60606000825190506000811415611e9d576040518060200160405280600081525091505061202d565b60006003600283611eae9190614633565b611eb891906146ba565b6004611ec491906146eb565b90506000602082611ed59190614633565b67ffffffffffffffff811115611f14577f4e487b7100000000000000000000000000000000000000000000000000000000600052604160045260246000fd5b6040519080825280601f01601f191660200182016040528015611f465781602001600182028036833780820191505090505b50905060006040518060600160405280604081526020016158c3604091399050600181016020830160005b86811015611fea5760038101905062ffffff818a015116603f8160121c168401518060081b905060ff603f83600c1c1686015116810190508060081b905060ff603f8360061c1686015116810190508060081b905060ff603f831686015116810190508060e01b90508084526004840193505050611f71565b50600386066001811461200457600281146120145761201f565b613d3d60f01b600283035261201f565b603d60f81b60018303525b508484525050819450505050505b919050565b61203b82611208565b61207a576040517f08c379a0000000000000000000000000000000000000000000000000000000008152600401612071906143e5565b60405180910390fd5b806006600084815260200190815260200160002090805190602001906120a1929190613598565b505050565b6001816000016000828254019250508190555050565b6120c7848484611413565b6120d384848484613073565b612112576040517f08c379a0000000000000000000000000000000000000000000000000000000008152600401612109906142e5565b60405180910390fd5b50505050565b606060405180602001604052806000815250905090565b606061213a82611208565b612179576040517f08c379a000000000000000000000000000000000000000000000000000000000815260040161217090614485565b60405180910390fd5b6000612183612118565b905060008151116121a357604051806020016040528060008152506121ce565b806121ad8461320a565b6040516020016121be929190613f4d565b6040516020818303038152906040525b915050919050565b505050565b600083846001856121ec9190614633565b6121f69190614745565b4284604051602001612209929190614124565b6040516020818303038152906040528051906020012060001c61222c9190614987565b6122369190614633565b90509392505050565b61224761361e565b600042848460405160200161225e9392919061414c565b6040516020818303038152906040528051906020012090506000600767ffffffffffffffff8111156122b9577f4e487b7100000000000000000000000000000000000000000000000000000000600052604160045260246000fd5b6040519080825280601f01601f1916602001820160405280156122eb5781602001600182028036833780820191505090505b50905060008080600090507f230000000000000000000000000000000000000000000000000000000000000084600081518110612351577f4e487b7100000000000000000000000000000000000000000000000000000000600052603260045260246000fd5b60200101907effffffffffffffffffffffffffffffffffffffffffffffffffffffffffffff1916908160001a90535060005b600681101561252157600f8682602081106123c7577f4e487b7100000000000000000000000000000000000000000000000000000000600052603260045260246000fd5b1a60f81b60f81c16925060006002826123e09190614987565b14156123f8578260ff16826123f591906145fb565b91505b7f3031323334353637383961626364656600000000000000000000000000000000600f878360208110612454577f4e487b7100000000000000000000000000000000000000000000000000000000600052603260045260246000fd5b1a60f81b60f81c1660ff1660108110612496577f4e487b7100000000000000000000000000000000000000000000000000000000600052603260045260246000fd5b1a60f81b856001836124a89190614633565b815181106124df577f4e487b7100000000000000000000000000000000000000000000000000000000600052603260045260246000fd5b60200101907effffffffffffffffffffffffffffffffffffffffffffffffffffffffffffff1916908160001a905350808061251990614934565b915050612383565b5060086003826125319190614689565b61ffff16101561254057600192505b60405180604001604052808581526020018415158152509550505050505092915050565b61256e83836133b7565b61257b6000848484613073565b6125ba576040517f08c379a00000000000000000000000000000000000000000000000000000000081526004016125b1906142e5565b60405180910390fd5b505050565b60606000612602836040518060400160405280600581526020017f736869727400000000000000000000000000000000000000000000000000000081525061223f565b905060006040518060400160405280600481526020017f23303030000000000000000000000000000000000000000000000000000000008152509050816020015115612681576040518060400160405280600481526020017f236666660000000000000000000000000000000000000000000000000000000081525090505b6040518060c00160405280608d8152602001615212608d913982600001516040518060400160405280600481526020017f27202f3e000000000000000000000000000000000000000000000000000000008152506040516020016126e793929190613f71565b60405160208183030381529060405292505050919050565b606060006009838154811061273d577f4e487b7100000000000000000000000000000000000000000000000000000000600052603260045260246000fd5b906000526020600020906007020160000160039054906101000a900460ff16905060606000600381111561279a577f4e487b7100000000000000000000000000000000000000000000000000000000600052602160045260246000fd5b8260038111156127d3577f4e487b7100000000000000000000000000000000000000000000000000000000600052602160045260246000fd5b148061284f575060016003811115612814577f4e487b7100000000000000000000000000000000000000000000000000000000600052602160045260246000fd5b82600381111561284d577f4e487b7100000000000000000000000000000000000000000000000000000000600052602160045260246000fd5b145b15612874576040518060a0016040528060768152602001615c5460769139905061292a565b600260038111156128ae577f4e487b7100000000000000000000000000000000000000000000000000000000600052602160045260246000fd5b8260038111156128e7577f4e487b7100000000000000000000000000000000000000000000000000000000600052602160045260246000fd5b141561290d576040518060a0016040528060778152602001615d31607791399050612929565b6040518060a0016040528060778152602001615a6c6077913990505b5b8061296a856040518060400160405280600781526020017f636c6f746865730000000000000000000000000000000000000000000000000081525061223f565b600001516040518060400160405280600481526020017f27202f3e000000000000000000000000000000000000000000000000000000008152506040516020016129b693929190614075565b60405160208183030381529060405292505050919050565b6060600760098381548110612a0c577f4e487b7100000000000000000000000000000000000000000000000000000000600052603260045260246000fd5b906000526020600020906007020160000160009054906101000a900460ff166005811115612a63577f4e487b7100000000000000000000000000000000000000000000000000000000600052602160045260246000fd5b81548110612a9a577f4e487b7100000000000000000000000000000000000000000000000000000000600052603260045260246000fd5b90600052602060002001600180811115612add577f4e487b7100000000000000000000000000000000000000000000000000000000600052602160045260246000fd5b60098481548110612b17577f4e487b7100000000000000000000000000000000000000000000000000000000600052603260045260246000fd5b906000526020600020906007020160000160019054906101000a900460ff166001811115612b6e577f4e487b7100000000000000000000000000000000000000000000000000000000600052602160045260246000fd5b14612b91576040518060a0016040528060648152602001615a0860649139612bab565b6040518060a00160405280606681526020016154d7606691395b604051602001612bbc9291906140b1565b6040516020818303038152906040529050919050565b6060600060098381548110612c10577f4e487b7100000000000000000000000000000000000000000000000000000000600052603260045260246000fd5b906000526020600020906007020160000160029054906101000a900460ff169050606060006003811115612c6d577f4e487b7100000000000000000000000000000000000000000000000000000000600052602160045260246000fd5b826003811115612ca6577f4e487b7100000000000000000000000000000000000000000000000000000000600052602160045260246000fd5b1415612ccf57604051806102600160405280610238815260200161529f61023891399050612e22565b60016003811115612d09577f4e487b7100000000000000000000000000000000000000000000000000000000600052602160045260246000fd5b826003811115612d42577f4e487b7100000000000000000000000000000000000000000000000000000000600052602160045260246000fd5b1415612d6b57604051806101a001604052806101718152602001615ae361017191399050612e21565b60026003811115612da5577f4e487b7100000000000000000000000000000000000000000000000000000000600052602160045260246000fd5b826003811115612dde577f4e487b7100000000000000000000000000000000000000000000000000000000600052602160045260246000fd5b1415612e0457604051806060016040528060398152602001615815603991399050612e20565b6040518060600160405280603b8152602001615da8603b913990505b5b5b8092505050919050565b606060098281548110612e68577f4e487b7100000000000000000000000000000000000000000000000000000000600052603260045260246000fd5b906000526020600020906007020160010160010160009054906101000a900460ff16612ec9576040518060400160405280601081526020017f3c6720636c6173733d276461726b273e00000000000000000000000000000000815250612f00565b6040518060400160405280601181526020017f3c6720636c6173733d276c69676874273e0000000000000000000000000000008152505b60098381548110612f3a577f4e487b7100000000000000000000000000000000000000000000000000000000600052603260045260246000fd5b906000526020600020906007020160050160009054906101000a900460ff16612f7b576040518060a0016040528060678152602001615cca60679139612f95565b6040518060a00160405280606a81526020016151a8606a91395b6040518060a00160405280606181526020016151476061913960098581548110612fe8577f4e487b7100000000000000000000000000000000000000000000000000000000600052603260045260246000fd5b90600052602060002090600702016006016040518060400160405280600781526020017f3c2f746578743e000000000000000000000000000000000000000000000000008152506040518060a001604052806075815260200161584e6075913960405160200161305d9695949392919061401d565b6040516020818303038152906040529050919050565b60006130948473ffffffffffffffffffffffffffffffffffffffff16613585565b156131fd578373ffffffffffffffffffffffffffffffffffffffff1663150b7a026130bd611274565b8786866040518563ffffffff1660e01b81526004016130df94939291906141a0565b602060405180830381600087803b1580156130f957600080fd5b505af192505050801561312a57506040513d601f19601f820116820180604052508101906131279190613960565b60015b6131ad573d806000811461315a576040519150601f19603f3d011682016040523d82523d6000602084013e61315f565b606091505b506000815114156131a5576040517f08c379a000000000000000000000000000000000000000000000000000000000815260040161319c906142e5565b60405180910390fd5b805181602001fd5b63150b7a0260e01b7bffffffffffffffffffffffffffffffffffffffffffffffffffffffff1916817bffffffffffffffffffffffffffffffffffffffffffffffffffffffff191614915050613202565b600190505b949350505050565b60606000821415613252576040518060400160405280600181526020017f300000000000000000000000000000000000000000000000000000000000000081525090506133b2565b600082905060005b6000821461328457808061326d90614934565b915050600a8261327d91906146ba565b915061325a565b60008167ffffffffffffffff8111156132c6577f4e487b7100000000000000000000000000000000000000000000000000000000600052604160045260246000fd5b6040519080825280601f01601f1916602001820160405280156132f85781602001600182028036833780820191505090505b5090505b600085146133ab576001826133119190614745565b9150600a856133209190614987565b603061332c9190614633565b60f81b818381518110613368577f4e487b7100000000000000000000000000000000000000000000000000000000600052603260045260246000fd5b60200101907effffffffffffffffffffffffffffffffffffffffffffffffffffffffffffff1916908160001a905350600a856133a491906146ba565b94506132fc565b8093505050505b919050565b600073ffffffffffffffffffffffffffffffffffffffff168273ffffffffffffffffffffffffffffffffffffffff161415613427576040517f08c379a000000000000000000000000000000000000000000000000000000000815260040161341e90614405565b60405180910390fd5b61343081611208565b15613470576040517f08c379a000000000000000000000000000000000000000000000000000000000815260040161346790614305565b60405180910390fd5b61347c600083836121d6565b6001600360008473ffffffffffffffffffffffffffffffffffffffff1673ffffffffffffffffffffffffffffffffffffffff16815260200190815260200160002060008282546134cc9190614633565b92505081905550816002600083815260200190815260200160002060006101000a81548173ffffffffffffffffffffffffffffffffffffffff021916908373ffffffffffffffffffffffffffffffffffffffff160217905550808273ffffffffffffffffffffffffffffffffffffffff16600073ffffffffffffffffffffffffffffffffffffffff167fddf252ad1be2c89b69c2b068fc378daa952ba7f163c4a11628f55a4df523b3ef60405160405180910390a45050565b600080823b905060008111915050919050565b8280546135a4906148d1565b90600052602060002090601f0160209004810192826135c6576000855561360d565b82601f106135df57805160ff191683800117855561360d565b8280016001018555821561360d579182015b8281111561360c5782518255916020019190600101906135f1565b5b50905061361a919061363a565b5090565b6040518060400160405280606081526020016000151581525090565b5b8082111561365357600081600090555060010161363b565b5090565b600061366a61366584614525565b614500565b90508281526020810184848401111561368257600080fd5b61368d84828561488f565b509392505050565b60006136a86136a384614556565b614500565b9050828152602081018484840111156136c057600080fd5b6136cb84828561488f565b509392505050565b6000813590506136e2816150ea565b92915050565b6000813590506136f781615101565b92915050565b60008135905061370c81615118565b92915050565b60008151905061372181615118565b92915050565b600082601f83011261373857600080fd5b8135613748848260208601613657565b91505092915050565b600082601f83011261376257600080fd5b8135613772848260208601613695565b91505092915050565b60008135905061378a8161512f565b92915050565b6000602082840312156137a257600080fd5b60006137b0848285016136d3565b91505092915050565b600080604083850312156137cc57600080fd5b60006137da858286016136d3565b92505060206137eb858286016136d3565b9150509250929050565b60008060006060848603121561380a57600080fd5b6000613818868287016136d3565b9350506020613829868287016136d3565b925050604061383a8682870161377b565b9150509250925092565b6000806000806080858703121561385a57600080fd5b6000613868878288016136d3565b9450506020613879878288016136d3565b935050604061388a8782880161377b565b925050606085013567ffffffffffffffff8111156138a757600080fd5b6138b387828801613727565b91505092959194509250565b600080604083850312156138d257600080fd5b60006138e0858286016136d3565b92505060206138f1858286016136e8565b9150509250929050565b6000806040838503121561390e57600080fd5b600061391c858286016136d3565b925050602061392d8582860161377b565b9150509250929050565b60006020828403121561394957600080fd5b6000613957848285016136fd565b91505092915050565b60006020828403121561397257600080fd5b600061398084828501613712565b91505092915050565b60006020828403121561399b57600080fd5b600082013567ffffffffffffffff8111156139b557600080fd5b6139c184828501613751565b91505092915050565b6000602082840312156139dc57600080fd5b60006139ea8482850161377b565b91505092915050565b6139fc81614779565b82525050565b613a0b8161478b565b82525050565b613a1a8161478b565b82525050565b6000613a2b8261459c565b613a3581856145b2565b9350613a4581856020860161489e565b613a4e81614aa3565b840191505092915050565b6000613a648261459c565b613a6e81856145c3565b9350613a7e81856020860161489e565b80840191505092915050565b613a9381614847565b82525050565b613aa281614859565b82525050565b613ab18161486b565b82525050565b613ac08161487d565b82525050565b6000613ad1826145a7565b613adb81856145ce565b9350613aeb81856020860161489e565b613af481614aa3565b840191505092915050565b6000613b0a826145a7565b613b1481856145df565b9350613b2481856020860161489e565b613b2d81614aa3565b840191505092915050565b6000613b43826145a7565b613b4d81856145f0565b9350613b5d81856020860161489e565b80840191505092915050565b60008154613b76816148d1565b613b8081866145f0565b94506001821660008114613b9b5760018114613bac57613bdf565b60ff19831686528186019350613bdf565b613bb585614587565b60005b83811015613bd757815481890152600182019150602081019050613bb8565b838801955050505b50505092915050565b6000613bf56032836145df565b9150613c0082614ab4565b604082019050919050565b6000613c18601c836145df565b9150613c2382614b03565b602082019050919050565b6000613c3b6005836145f0565b9150613c4682614b2c565b600582019050919050565b6000613c5e6024836145df565b9150613c6982614b55565b604082019050919050565b6000613c816019836145df565b9150613c8c82614ba4565b602082019050919050565b6000613ca4602c836145df565b9150613caf82614bcd565b604082019050919050565b6000613cc76038836145df565b9150613cd282614c1c565b604082019050919050565b6000613cea602a836145df565b9150613cf582614c6b565b604082019050919050565b6000613d0d6029836145df565b9150613d1882614cba565b604082019050919050565b6000613d30602e836145df565b9150613d3b82614d09565b604082019050919050565b6000613d536002836145f0565b9150613d5e82614d58565b600282019050919050565b6000613d766020836145df565b9150613d8182614d81565b602082019050919050565b6000613d996031836145df565b9150613da482614daa565b604082019050919050565b6000613dbc602c836145df565b9150613dc782614df9565b604082019050919050565b6000613ddf6029836145df565b9150613dea82614e48565b604082019050919050565b6000613e02602f836145df565b9150613e0d82614e97565b604082019050919050565b6000613e256004836145f0565b9150613e3082614ee6565b600482019050919050565b6000613e486021836145df565b9150613e5382614f0f565b604082019050919050565b6000613e6b601d836145f0565b9150613e7682614f5e565b601d82019050919050565b6000613e8e6031836145df565b9150613e9982614f87565b604082019050919050565b6000613eb16080836145f0565b9150613ebc82614fd6565b608082019050919050565b6000613ed46006836145f0565b9150613edf82615071565b600682019050919050565b60006040830160008301518482036000860152613f078282613ac6565b9150506020830151613f1c6020860182613a02565b508091505092915050565b613f308161483d565b82525050565b613f47613f428261483d565b61497d565b82525050565b6000613f598285613b38565b9150613f658284613b38565b91508190509392505050565b6000613f7d8286613b38565b9150613f898285613b38565b9150613f958284613b38565b9150819050949350505050565b6000613fae828a613b38565b9150613fba8289613b38565b9150613fc68288613b38565b9150613fd28287613b38565b9150613fde8286613b38565b9150613fe982613c2e565b9150613ff58285613b38565b91506140018284613a59565b915061400c82613ec7565b915081905098975050505050505050565b60006140298289613b38565b91506140358288613b38565b91506140418287613b38565b915061404d8286613b69565b91506140598285613b38565b91506140658284613b38565b9150819050979650505050505050565b60006140818286613b38565b915061408d8285613b38565b91506140998284613b38565b91506140a482613e18565b9150819050949350505050565b60006140bd8285613b69565b91506140c98284613b38565b91508190509392505050565b60006140e082613e5e565b91506140ec8284613b38565b915081905092915050565b600061410282613ea4565b915061410e8284613b38565b915061411982613d46565b915081905092915050565b60006141308285613f36565b6020820191506141408284613b38565b91508190509392505050565b60006141588286613f36565b6020820191506141688285613f36565b6020820191506141788284613b38565b9150819050949350505050565b600060208201905061419a60008301846139f3565b92915050565b60006080820190506141b560008301876139f3565b6141c260208301866139f3565b6141cf6040830185613f27565b81810360608301526141e18184613a20565b905095945050505050565b600060408201905061420160008301856139f3565b61420e6020830184613f27565b9392505050565b600060208201905061422a6000830184613a11565b92915050565b600061010082019050614246600083018b613a99565b614253602083018a613ab7565b6142606040830189613aa8565b61426d6060830188613a8a565b818103608083015261427f8187613eea565b905081810360a08301526142938186613eea565b90506142a260c0830185613a11565b81810360e08301526142b48184613aff565b90509998505050505050505050565b600060208201905081810360008301526142dd8184613aff565b905092915050565b600060208201905081810360008301526142fe81613be8565b9050919050565b6000602082019050818103600083015261431e81613c0b565b9050919050565b6000602082019050818103600083015261433e81613c51565b9050919050565b6000602082019050818103600083015261435e81613c74565b9050919050565b6000602082019050818103600083015261437e81613c97565b9050919050565b6000602082019050818103600083015261439e81613cba565b9050919050565b600060208201905081810360008301526143be81613cdd565b9050919050565b600060208201905081810360008301526143de81613d00565b9050919050565b600060208201905081810360008301526143fe81613d23565b9050919050565b6000602082019050818103600083015261441e81613d69565b9050919050565b6000602082019050818103600083015261443e81613d8c565b9050919050565b6000602082019050818103600083015261445e81613daf565b9050919050565b6000602082019050818103600083015261447e81613dd2565b9050919050565b6000602082019050818103600083015261449e81613df5565b9050919050565b600060208201905081810360008301526144be81613e3b565b9050919050565b600060208201905081810360008301526144de81613e81565b9050919050565b60006020820190506144fa6000830184613f27565b92915050565b600061450a61451b565b90506145168282614903565b919050565b6000604051905090565b600067ffffffffffffffff8211156145405761453f614a74565b5b61454982614aa3565b9050602081019050919050565b600067ffffffffffffffff82111561457157614570614a74565b5b61457a82614aa3565b9050602081019050919050565b60008190508160005260206000209050919050565b600081519050919050565b600081519050919050565b600082825260208201905092915050565b600081905092915050565b600082825260208201905092915050565b600082825260208201905092915050565b600081905092915050565b60006146068261480f565b91506146118361480f565b92508261ffff03821115614628576146276149b8565b5b828201905092915050565b600061463e8261483d565b91506146498361483d565b9250827fffffffffffffffffffffffffffffffffffffffffffffffffffffffffffffffff0382111561467e5761467d6149b8565b5b828201905092915050565b60006146948261480f565b915061469f8361480f565b9250826146af576146ae6149e7565b5b828204905092915050565b60006146c58261483d565b91506146d08361483d565b9250826146e0576146df6149e7565b5b828204905092915050565b60006146f68261483d565b91506147018361483d565b9250817fffffffffffffffffffffffffffffffffffffffffffffffffffffffffffffffff048311821515161561473a576147396149b8565b5b828202905092915050565b60006147508261483d565b915061475b8361483d565b92508282101561476e5761476d6149b8565b5b828203905092915050565b60006147848261481d565b9050919050565b60008115159050919050565b60007fffffffff0000000000000000000000000000000000000000000000000000000082169050919050565b60008190506147d18261509a565b919050565b60008190506147e4826150ae565b919050565b60008190506147f7826150c2565b919050565b600081905061480a826150d6565b919050565b600061ffff82169050919050565b600073ffffffffffffffffffffffffffffffffffffffff82169050919050565b6000819050919050565b6000614852826147c3565b9050919050565b6000614864826147d6565b9050919050565b6000614876826147e9565b9050919050565b6000614888826147fc565b9050919050565b82818337600083830152505050565b60005b838110156148bc5780820151818401526020810190506148a1565b838111156148cb576000848401525b50505050565b600060028204905060018216806148e957607f821691505b602082108114156148fd576148fc614a45565b5b50919050565b61490c82614aa3565b810181811067ffffffffffffffff8211171561492b5761492a614a74565b5b80604052505050565b600061493f8261483d565b91507fffffffffffffffffffffffffffffffffffffffffffffffffffffffffffffffff821415614972576149716149b8565b5b600182019050919050565b6000819050919050565b60006149928261483d565b915061499d8361483d565b9250826149ad576149ac6149e7565b5b828206905092915050565b7f4e487b7100000000000000000000000000000000000000000000000000000000600052601160045260246000fd5b7f4e487b7100000000000000000000000000000000000000000000000000000000600052601260045260246000fd5b7f4e487b7100000000000000000000000000000000000000000000000000000000600052602160045260246000fd5b7f4e487b7100000000000000000000000000000000000000000000000000000000600052602260045260246000fd5b7f4e487b7100000000000000000000000000000000000000000000000000000000600052604160045260246000fd5b6000601f19601f8301169050919050565b7f4552433732313a207472616e7366657220746f206e6f6e20455243373231526560008201527f63656976657220696d706c656d656e7465720000000000000000000000000000602082015250565b7f4552433732313a20746f6b656e20616c7265616479206d696e74656400000000600082015250565b7f3c2f673e20000000000000000000000000000000000000000000000000000000600082015250565b7f4552433732313a207472616e7366657220746f20746865207a65726f2061646460008201527f7265737300000000000000000000000000000000000000000000000000000000602082015250565b7f4552433732313a20617070726f766520746f2063616c6c657200000000000000600082015250565b7f4552433732313a206f70657261746f7220717565727920666f72206e6f6e657860008201527f697374656e7420746f6b656e0000000000000000000000000000000000000000602082015250565b7f4552433732313a20617070726f76652063616c6c6572206973206e6f74206f7760008201527f6e6572206e6f7220617070726f76656420666f7220616c6c0000000000000000602082015250565b7f4552433732313a2062616c616e636520717565727920666f7220746865207a6560008201527f726f206164647265737300000000000000000000000000000000000000000000602082015250565b7f4552433732313a206f776e657220717565727920666f72206e6f6e657869737460008201527f656e7420746f6b656e0000000000000000000000000000000000000000000000602082015250565b7f45524337323155524953746f726167653a2055524920736574206f66206e6f6e60008201527f6578697374656e7420746f6b656e000000000000000000000000000000000000602082015250565b7f227d000000000000000000000000000000000000000000000000000000000000600082015250565b7f4552433732313a206d696e7420746f20746865207a65726f2061646472657373600082015250565b7f45524337323155524953746f726167653a2055524920717565727920666f722060008201527f6e6f6e6578697374656e7420746f6b656e000000000000000000000000000000602082015250565b7f4552433732313a20617070726f76656420717565727920666f72206e6f6e657860008201527f697374656e7420746f6b656e0000000000000000000000000000000000000000602082015250565b7f4552433732313a207472616e73666572206f6620746f6b656e2074686174206960008201527f73206e6f74206f776e0000000000000000000000000000000000000000000000602082015250565b7f4552433732314d657461646174613a2055524920717565727920666f72206e6f60008201527f6e6578697374656e7420746f6b656e0000000000000000000000000000000000602082015250565b7f3c2f673e00000000000000000000000000000000000000000000000000000000600082015250565b7f4552433732313a20617070726f76616c20746f2063757272656e74206f776e6560008201527f7200000000000000000000000000000000000000000000000000000000000000602082015250565b7f646174613a6170706c69636174696f6e2f6a736f6e3b6261736536342c000000600082015250565b7f4552433732313a207472616e736665722063616c6c6572206973206e6f74206f60008201527f776e6572206e6f7220617070726f766564000000000000000000000000000000602082015250565b7f7b226e616d65223a20224120737469636b2066696775726520646576656c6f7060008201527f6572222c226465736372697074696f6e223a202241207768696d736963616c2060208201527f636f6c6c656374696f6e206f6620646576656c6f706572732e222c2022696d6160408201527f6765223a2022646174613a696d6167652f7376672b786d6c3b6261736536342c606082015250565b7f3c2f7376673e0000000000000000000000000000000000000000000000000000600082015250565b600481106150ab576150aa614a16565b5b50565b600681106150bf576150be614a16565b5b50565b600481106150d3576150d2614a16565b5b50565b600281106150e7576150e6614a16565b5b50565b6150f381614779565b81146150fe57600080fd5b50565b61510a8161478b565b811461511557600080fd5b50565b61512181614797565b811461512c57600080fd5b50565b6151388161483d565b811461514357600080fd5b5056fe3c7465787420636c6173733d276c6574746572696e67206c616e67747970652720783d273439252720793d273532252720646f6d696e616e742d626173656c696e653d276d6964646c652720746578742d616e63686f723d276d6964646c65273e3c7465787420636c6173733d276c6574746572696e6720646576747970652720783d273439252720793d273437252720646f6d696e616e742d626173656c696e653d276d6964646c652720746578742d616e63686f723d276d6964646c65273e3130783c2f746578743e203c7061746820636c6173733d2773686972742720643d274d3530302c3430305635353048333030563430306c2d37352c3530563337356c37352d35306832357332352c32352c37352c32352c37352d32352c37352d32356832356c37352c35307637355a27207472616e73666f726d3d277472616e736c617465282d313735202d323529272066696c6c3d273c7061746820636c6173733d276d6f7574682720643d274d3430302c323734632d33392e35372c302d36332e35342d33322e322d37312e33312d34342e3633433333382c3233362e33382c3336312e39312c3235312c3430302c3235316332362c302c34352e322d362e38352c35362e372d31322e36316139322e32322c39322e32322c302c302c302c31342e35362d382e3934433436332e34332c3234322c3433392e34382c3237342c3430302c3237345a27207472616e73666f726d3d277472616e736c617465282d3137342e3638202d323529272f3e3c7061746820643d274d3436372e35362c3233332e33613131322e33392c3131322e33392c302c302c312d31322e38312c31352e3337433434332e36322c3235392e37372c3432352e312c3237332c3430302c323733732d34332e36322d31332e32332d35342e37352d32342e3333613131322e33392c3131322e33392c302c302c312d31322e38312d31352e33372c39392e33342c39392e33342c302c302c302c31302e34322c366332312c31302e352c34322e36372c31322e37312c35372e31342c31322e37312c32362e32322c302c34352e35352d362e39312c35372e31342d31322e37316139392e33342c39392e33342c302c302c302c31302e34322d364d3437352c323235732d32352c32352d37352c32352d37352d32352d37352d32352c32352c35302c37352c35302c37352d35302c37352d35305a27207472616e73666f726d3d277472616e736c617465282d313735202d323529272f3e3c636972636c6520636c6173733d27707570696c73272063783d27313630272063793d273130302720723d273132272f3e3c636972636c6520636c6173733d27707570696c73272063783d27323930272063793d273130302720723d273132272f3e3c2f673e3c73766720786d6c6e733d27687474703a2f2f7777772e77332e6f72672f323030302f737667272076696577426f783d272d38202d382034363020373630273e203c646566733e203c7374796c653e202a207b207374726f6b653a20233030303b207374726f6b652d6d697465726c696d69743a2031303b207374726f6b652d77696474683a203270783b207d202e6c6574746572696e67207b207374726f6b652d77696474683a303b207d202e626f6479207b2066696c6c3a206e6f6e653b207d202e666163652c2e626f6479206c696e65207b207374726f6b652d77696474683a3370783b207d202e666163652c202e6e6f73652c202e776869746573207b2066696c6c3a20236666663b207d202e6d6f757468207b2066696c6c3a20236666663b207374726f6b652d77696474683a3370783b207d202e64657674797065207b20666f6e743a20626f6c642033347078206d6f6e6f73706163653b207d202e6c616e6774797065207b20666f6e743a20626f6c6420333470782073616e732d73657269663b207d202e707570696c737b66696c6c3a233030303b7d2e6c696768747b66696c6c3a236666663b7d2e6461726b7b66696c6c3a233030303b7d3c2f7374796c653e203c2f646566733e203c6720636c6173733d27626f6479273e203c6c696e652078313d27323235272079313d27333235272078323d27343530272079323d2734303027202f3e203c6c696e652078313d27323235272079313d27333235272078323d2730272079323d2734303027202f3e203c6c696e652078313d27323235272079313d27333030272078323d27323235272079323d2735353027202f3e203c6c696e652078313d27323235272079313d27353530272078323d27313530272079323d2737353027202f3e203c6c696e652078313d27323235272079313d27353530272078323d27333030272079323d2737353027202f3e3c2f673e3c6720636c6173733d27636c6f74686573273e3c6c696e6520636c6173733d276d6f757468272078313d27313530272079313d27323235272078323d27333030272079323d27323235272f3e3c7465787420636c6173733d276c6574746572696e67206c616e67747970652720783d273439252720793d273537252720646f6d696e616e742d626173656c696e653d276d6964646c652720746578742d616e63686f723d276d6964646c65273e446576656c6f7065723c2f746578743e3c2f673e4142434445464748494a4b4c4d4e4f505152535455565758595a6162636465666768696a6b6c6d6e6f707172737475767778797a303132333435363738392b2f3c6720636c6173733d2768656164273e203c636972636c6520636c6173733d2766616365272063783d27323235272063793d273135302720723d2731353027202f3e3c706f6c796c696e6520636c6173733d276e6f73652720706f696e74733d273232352031323520323530203135302032323520313530272f3e3c6720636c6173733d2765796573273e203c656c6c6970736520636c6173733d27776869746573272063783d27313630272063793d27313030272072783d273330272072793d27323027202f3e203c656c6c6970736520636c6173733d27776869746573272063783d27323930272063793d27313030272072783d273330272072793d27323027202f3e3c636972636c6520636c6173733d27707570696c73272063783d27313630272063793d273130302720723d2736272f3e3c636972636c6520636c6173733d27707570696c73272063783d27323930272063793d273130302720723d2736272f3e3c2f673e3c706f6c796c696e6520636c6173733d27626f74746f6d2073686f7274732720706f696e74733d273332352036373520333235203532352031323520353235203132352035323520313235203637352032303020363735203232352036303020323530203637352033323520363735272066696c6c3d273c7061746820636c6173733d276d6f7574682720643d274d3430302c3232376332352e312c302c34332e36322c31332e32332c35342e37352c32342e3333613131322e33392c3131322e33392c302c302c312c31322e38312c31352e33372c39392e33342c39392e33342c302c302c302d31302e34322d36433433362e31332c3235302e32312c3431342e34372c3234382c3430302c323438632d32362e32322c302d34352e35352c362e39312d35372e31342c31322e37316139392e33342c39392e33342c302c302c302d31302e34322c362c3131322e33392c3131322e33392c302c302c312c31322e38312d31352e3337433335362e33382c3234302e32332c3337342e392c3232372c3430302c3232376d302d32632d35302c302d37352c35302d37352c35307332352d32352c37352d32352c37352c32352c37352c32352d32352d35302d37352d35305a27207472616e73666f726d3d277472616e736c617465282d313735202d323529272f3e3c706f6c796c696e6520636c6173733d27626f74746f6d2070616e74732720706f696e74733d273332352037323520333235203532352031323520353235203132352035323520313235203732352032303020373235203232352036303020323530203732352033323520373235272066696c6c3d273c7465787420636c6173733d276c6574746572696e6720646576747970652720783d273439252720793d273437252720646f6d696e616e742d626173656c696e653d276d6964646c652720746578742d616e63686f723d276d6964646c65273e3c2f746578743e3c706f6c796c696e6520636c6173733d27626f74746f6d20736b6972742720706f696e74733d27333235203637352033323520353235203132352035323520313235203532352031323520363735203230302036373520323235203637352032353020363735203332352036373527202066696c6c3d273c656c6c6970736520636c6173733d276d6f757468272063783d27323235272063793d27323235272072783d273530272072793d27353027202f3ea26469706673582212202b6ce3781584f997db8d0bb926bd78667eded3f1dc0eba6f86fcf27e9a89eb7564736f6c634300080400333c672066696c6c3d2723373536643065273e3c636972636c6520636c6173733d2769726973272063783d27313630272063793d273130302720723d27313627202f3e3c636972636c6520636c6173733d2769726973272063783d27323930272063793d273130302720723d27313627202f3e3c2f673e3c672066696c6c3d2723353233613238273e3c636972636c6520636c6173733d2769726973272063783d27313630272063793d273130302720723d27313627202f3e3c636972636c6520636c6173733d2769726973272063783d27323930272063793d273130302720723d27313627202f3e3c2f673e3c672066696c6c3d2723303837326533273e3c636972636c6520636c6173733d2769726973272063783d27313630272063793d273130302720723d27313627202f3e3c636972636c6520636c6173733d2769726973272063783d27323930272063793d273130302720723d27313627202f3e3c2f673e3c672066696c6c3d2723393639363936273e3c636972636c6520636c6173733d2769726973272063783d27313630272063793d273130302720723d27313627202f3e3c636972636c6520636c6173733d2769726973272063783d27323930272063793d273130302720723d27313627202f3e3c2f673e3c672066696c6c3d2723306237353161273e3c636972636c6520636c6173733d2769726973272063783d27313630272063793d273130302720723d27313627202f3e3c636972636c6520636c6173733d2769726973272063783d27323930272063793d273130302720723d27313627202f3e3c2f673e3c672066696c6c3d2723386234353133273e3c636972636c6520636c6173733d2769726973272063783d27313630272063793d273130302720723d27313627202f3e3c636972636c6520636c6173733d2769726973272063783d27323930272063793d273130302720723d27313627202f3e3c2f673e",
  "linkReferences": {},
  "deployedLinkReferences": {}
}